:020000040800F2
:1000000000C0002091410008D9410008D9410008F2
:10001000D9410008D9410008D9410008000000007A
:10002000000000000000000000000000D9410008AE
:10003000D941000800000000D94100081918000843
:10004000D9410008D9410008D9410008D941000828
:10005000D9410008D9410008D9410008D941000818
:10006000D9410008D9410008D941000835180008D5
:10007000D9410008D9410008D9410008D9410008F8
:10008000D9410008D9410008D9410008D9410008E8
:10009000D9410008D9410008D9410008D9410008D8
:1000A000D9410008D9410008D9410008D9410008C8
:1000B000D9410008D9410008D9410008D9410008B8
:1000C000D9410008D9410008D9410008D9410008A8
:1000D000D9410008D9410008D94100086D21000824
:1000E000D9410008D9410008D9410008D941000888
:1000F000D9410008D9410008D9410008D941000878
:10010000D9410008D9410008D9410008D941000867
:10011000D9410008D9410008D9410008D941000857
:10012000D9410008D9410008D9410008D941000847
:1001300080B500AF00F02AF80F4804F05BFB00F038
:100140008BFB0E4804F056FB06E000F08DFA0A2007
:1001500001F05CF903F0D0FE094B1B79002BF4D0C1
:10016000022000F02FFD074B01221A70064804F010
:1001700041FB00F06BF8FCE7A0990008E499000847
:10018000DC010020EE010020FC99000880B500AFE2
:1001900001F04CF801F08EF801F0B2F800F008FD23
:1001A00002F022F802F038F801F0D6F801F0EEF88B
:1001B00001F004F900F058FE4FF4E13001F0C8FD01
:1001C000042001F04BFB00F02BF80E4804F012FB6A
:1001D0000D4804F00FFB0D4804F00CFB0C4B1B68A2
:1001E00019460C4807F048F84FF47A510A4807F0CE
:1001F00043F8044804F0FEFA084B00221A7000BFCE
:1002000080BD00BF1C9A0008409A0008649A00084C
:1002100010000020749A00088C9A0008EE0100205B
:1002200080B400AF034B00221A7000BFBD4680BCF3
:10023000704700BFED01002080B400AF024B1B7877
:100240001846BD4680BC7047ED01002080B582B0E5
:1002500000AF01F0F5F8786000F004FD394B1B6841
:100260007A68D31A042B69D9364A7B68136000F088
:1002700077F800F035F900F0F7F900F091FE034649
:10028000314A936000237B8000233B802E4BB3F9DF
:1002900000002D4BB3F902103B46BA1C00F0A8FE3B
:1002A000294B1B79012B14D1284B1B78002B10D123
:1002B000B7F90230184600F007FEB7F900301846CB
:1002C00000F022FE012000F03FFE214B02221A70B6
:1002D00005E0002000F038FE1D4B01221A70B7F92E
:1002E0000230002BB8BF5B429BB2322B07D8B7F964
:1002F0000030002BB8BF5B429BB2322B03D9154BA9
:1003000000221A6004E0134B1B680133114A13608A
:1003100000F01EFA104B1A68531C0F490B600F4B6C
:10032000A3FB02139B09C82101FB03F3D31A002B83
:1003300001D100F03BFB03F0DFFD00E000BF083718
:10034000BD4680BDF0010020DC010020EC01002052
:10035000EE010020E8010020F40100201F85EB5190
:1003600080B582B000AF0023FB71FFF765FF034645
:10037000002B3FD04A4B9B684FF07E51184609F046
:10038000C1FA0346002B19D0454B9B68184608F06C
:10039000DDFC02460B46434806F06EFFFB7943F056
:1003A0000103FB713E4B9B683F49184609F0AAFACE
:1003B0000346002B1ED000F0AFFA1BE0384B9B68C1
:1003C0004FF08041184609F09DFA0346002B11D0EA
:1003D000364B1A68531C35490B60354BA3FB02138F
:1003E0005B09642101FB03F3D31A002B02D1032024
:1003F00000F0E8FB00F0DEFD38602E49386809F0B7
:100400009FFA0346002B0BD0386808F09FFC024689
:100410000B46294806F030FFFB7943F00203FB71DD
:10042000264B1B780A2B09D9254804F0E3F9FB7900
:1004300043F00803FB71234B03221A70224B1B6805
:10044000224A934204D9224804F0D4F900F064FA15
:10045000204B1B78012B06D11F4804F0CBF9FB7908
:1004600043F01003FB71FB79002B0FD01B4B1B7863
:10047000FA799A4206D1114B1B780133DAB20F4B4D
:100480001A7006E00D4B01221A7002E00B4B00229D
:100490001A70124AFB79137000BF0837BD4680BD41
:1004A000DC010020A09A0008000080BFF8010020B5
:1004B0001F85EB510000A041C49A0008FC010020F8
:1004C000E09A0008EE010020E8010020C0D40100FD
:1004D000F89A0008EC010020189B0008FD0100209C
:1004E00090B583B000AF01F009FA01F0B9FA034604
:1004F000FB8001F0BDFA0346BB8001F0C1FA034660
:10050000FB70524BB3F90030184609F009F8034666
:100510004F49184609F058F803461C46B7F906300B
:10052000184608F0FDFF03464A49184609F04CF802
:1005300003461946204608F03FFF0346184609F0D7
:1005400009FA03461AB2414B1A80434BB3F9003003
:10055000184608F0E5FF03463D49184609F034F80F
:1005600003461C46B7F90430184608F0D9FF034685
:100570003849184609F028F803461946204608F07D
:100580001BFF0346184609F0E5F903461AB2324B41
:100590001A802E4BB3F90030002BB8BF5B429BB2E0
:1005A000132B02D8294B00221A802B4BB3F90030B1
:1005B000002BB8BF5B429BB2132B02D8264B002204
:1005C0001A80224BB3F9003013F57A7F09DB1F4BF9
:1005D000B3F90030B3F57A7FA8BF4FF47A731BB23A
:1005E00000E01E4B1E4A13801B4BB3F9003013F57D
:1005F0007A7F09DB184BB3F90030B3F57A7FA8BFD7
:100600004FF47A731BB200E0144B154A5380FB7809
:10061000012B02D1124B01221A7101F045FA034657
:10062000002B0CBF01230023DBB21A460D4B1A70BE
:100630000C4B1B78012B05D1094B00221A80084B6B
:1006400000225A8000BF0C37BD4690BDFE0100203D
:10065000CDCC4C3FCDCC4C3E0002002018FCFFFF1F
:10066000DC010020EC01002080B582B000AF4FF427
:1006700000512F4801F0BDFE0346002B14BF01239B
:100680000023DBB2FB71FB79012B1BD1294B1B78BB
:10069000002B07D100F0D4FE0346274A1360254BF8
:1006A00001221A7000F0CCFE0246234B1B68D31ABD
:1006B00040F6B832934237D9204804F09BF800F056
:1006C0002BF931E01B4B1B78012B2DD100F0B8FE2C
:1006D0000246194B1B68D31A3B603B68B3F57A7F1F
:1006E0001FD2174B1B79002B0CBF01230023DBB259
:1006F0001A46134B1A71124B1B79002B01D0114B68
:1007000000E0114B1946114806F0B6FD0C4B1B7961
:10071000002B03D0022000F055FA02E0012000F087
:1007200051FA044B00221A7000BF0837BD4680BD45
:10073000001001400202002004020020309B00084B
:10074000DC010020409B0008449B0008489B0008F7
:1007500080B500AF3B4B1B78032B6BD801A252F83E
:1007600023F000BF75070008A1070008CF070008A5
:10077000D9070008344B1A68344BA3FB02135B09FA
:10078000642101FB03F3D31A312B04D80421304830
:1007900001F011FE4EE004212D4801F01BFE49E05E
:1007A000294B1A682B4BA3FB02135B094FF4FA7118
:1007B00001FB03F3D31AF92B04D80421244801F0D8
:1007C000FAFD37E00421224801F004FE32E0042162
:1007D0001F4801F0F0FD2DE01B4B1A681B4BA3FBDB
:1007E00002139B09C82101FB03F3D31A312B17D93C
:1007F000154B1A68154BA3FB02139B09C82101FB7B
:1008000003F3D31A632B10D90F4B1A680F4BA3FBBA
:1008100002139B09C82101FB03F3D31A952B04D8BB
:1008200004210B4801F0C7FD03E00421084801F052
:10083000D1FD00BF044B1B680133034A136000BFA6
:1008400080BD00BFEE010020080200201F85EB5193
:10085000000C0140D34D621080B582B000AF012082
:1008600000F072FB0023FB7144E0FB7901339BB283
:100870001A46920013441A4691001A460B46134436
:100880009B009BB27B80FB7901339BB21A4692009E
:1008900013441A4691001A460B4613445B00BB8072
:1008A000BB88B3F5FA7F02D94FF4FA73BB80B7F96E
:1008B0000230184600F008FBB7F90230184600F085
:1008C00023FB1021134801F076FDBB88184600F089
:1008D0009DFD10210F4801F07DFDBB88B3F57A7FA7
:1008E00005D2BB88C3F57A73184600F08FFDFB79FB
:1008F0000133FB71FB79092BB7D9002000F0E4FA32
:10090000002000F001FB002000F01EFB00BF0837B4
:10091000BD4680BD0008014080B582B000AF1D48D3
:1009200003F068FF002000F00FFB042000F04AF9FC
:100930004FF0804002F02DFA174802F02AFA1748CB
:1009400002F027FA164802F093FD00237B6010E0C6
:100950000421144801F02FFD642000F057FD04210C
:10096000104801F037FD642000F050FD7B68013332
:100970007B607B68042BEBDD0B4803F03BFF01F051
:1009800061FC642000F042FD4FF47A7000F03EFDFF
:10099000FAE700BF5C9B000800080040000C004024
:1009A00000240140000C0140709B00082DE9F04735
:1009B00092B008AF2A4B1B783B722A4B9B68FB60B6
:1009C00000F0F8FA03463B6100F0FEFA03467B6153
:1009D000254B9B783B7600F001FB0346FB61234BE4
:1009E0009B7887F820301F4BB3F900307B841D4B78
:1009F000B3F90230BB843B7A9A46FB68184608F08C
:100A0000A5F9804689463B69184608F09FF90446D7
:100A10000D467B69184608F09DFF06463B7E7B60CD
:100A2000FB69184608F096FF034697F82020B7F9AF
:100A30002210B7F9240007900691059204937B6871
:100A400003930296CDE9004542464B46514608487D
:100A500006F012FC00BF2837BD46BDE8F08700BF96
:100A6000EE010020DC0100201C02002028020020F2
:100A7000809B000880B582B000AF0346FB71FB7914
:100A8000012B04D11021064801F095FC03E0102150
:100A9000034801F09FFC00BF0837BD4680BD00BF82
:100AA0000008014080B500AF0020FFF7E3FF0A4BCC
:100AB00000221A60084B00221A71074B00225A715B
:100AC000054B00229A71044B00229A60024B0022CF
:100AD0001A7300BF80BD00BF0C02002080B582B039
:100AE00000AF78600A4A7B681360094B00221A71D4
:100AF000074B00229A71064B01221A7300F0A0FCEA
:100B00000346184600F006F800BF0837BD4680BD12
:100B10000C02002080B584B000AF7860194B1A68D1
:100B2000184B1B7919460B465B000B445B001344C2
:100B3000FB60FB681B88002B0AD1FB685B88002BDD
:100B400006D1FB681B79002B02D1FFF7ABFF16E043
:100B5000FB681B79002B02D0FB681B7900E00123A6
:100B6000084A5371074B01229A710120FFF782FF57
:100B7000FB681B881A467B681344024A936010374F
:100B8000BD4680BD0C02002080B582B000AF786009
:100B9000064B1B790133DAB2044B1A717868FFF700
:100BA000B9FF00BF0837BD4680BD00BF0C02002062
:100BB00080B500AF0020FFF75DFFFFF773FF00BFB8
:100BC00080BD000080B582B000AF0346FB71FB79A9
:100BD000013B092B3ED801A252F823F0050C000876
:100BE0000D0C0008150C00081D0C0008250C000851
:100BF0002D0C0008350C00083D0C0008450C0008C1
:100C00004D0C0008012000F0A7F827E0022000F0BA
:100C1000A3F823E0052000F09FF81FE0062000F075
:100C20009BF81BE0072000F097F817E0082000F081
:100C300093F813E0092000F08FF80FE00A2000F08D
:100C40008BF80BE00B2000F087F807E00C2000F099
:100C500083F803E0002000F07FF800BF00BF0837F2
:100C6000BD4680BD80B582B000AF3A4B1B7B012BE7
:100C700069D1384B1B68002B65D000F0E1FB786030
:100C8000344B9B687A68D31A002B5EDB314B1A68B1
:100C9000304B1B7919460B465B000B445B00134439
:100CA0003B602C4B9B79012B2DD10020FFF7E2FEFE
:100CB0003B685B88002B1BD1264B5B79012B13D93A
:100CC000244B5B79013BDAB2224B5A71214B012252
:100CD0009A710120FFF7CEFE3B681B881A467B689D
:100CE00013441C4A936031E07868FFF74DFF2DE014
:100CF000184B02229A713B685B881A467B68134442
:100D0000144A936022E0134B9B79022B1ED1114BA6
:100D10005B79012B13D90F4B5B79013BDAB20D4B99
:100D20005A710C4B01229A710120FFF7A3FE3B6818
:100D30001B881A467B681344064A936006E078686D
:100D4000FFF722FF02E000BF00E000BF0837BD460A
:100D500080BD00BF0C02002080B582B000AF03460A
:100D6000FB71FB790E2B5CD801A252F823F000BF77
:100D7000AD0D0008B30D0008BB0D0008C30D000841
:100D8000CB0D0008D30D0008DB0D0008E30D0008B3
:100D9000EB0D0008F30D0008FB0D0008030E000822
:100DA0000B0E0008130E00081B0E0008FFF77AFE5A
:100DB0003AE01F48FFF792FE36E01E48FFF78EFE2E
:100DC00032E01D48FFF78AFE2EE01C48FFF786FE42
:100DD0002AE01B48FFF782FE26E01A48FFF77EFE56
:100DE00022E01948FFF77AFE1EE01848FFF776FE6A
:100DF0001AE01748FFF772FE16E01648FFF76EFE7E
:100E000012E01548FFF76AFE0EE01448FFF766FE91
:100E10000AE01348FFF762FE06E01248FFF75EFEA5
:100E200002E0FFF73FFE00BF00BF0837BD4680BDB0
:100E3000789C0008849C0008909C00089C9C0008FA
:100E4000A89C0008B49C0008209C0008389C00085E
:100E5000D89B0008FC9B00084C9C0008589C00088C
:100E6000649C0008C09C000880B500AF134B0022B2
:100E70001A80124B00229A70104B0022DA700F4B2E
:100E80004FF000025A600D4B4FF000029A600C4B7D
:100E900000221A800A4B00229A70094B0022DA7055
:100EA000074B4FF000025A60054B4FF000029A606A
:100EB000044803F09FFC00BF80BD00BF1C0200205F
:100EC00028020020CC9C000880B483B000AF034609
:100ED000FB80B7F9063013F57A7F08DBB7F90630E7
:100EE000B3F57A7FA8BF4FF47A731BB200E0044BCE
:100EF000044A138000BF0C37BD4680BC704700BF5A
:100F000018FCFFFF1C02002080B483B000AF034632
:100F1000FB80B7F9063013F57A7F08DBB7F90630A6
:100F2000B3F57A7FA8BF4FF47A731BB200E0044B8D
:100F3000044A138000BF0C37BD4680BC704700BF19
:100F400018FCFFFF2802002080B582B000AF0346E6
:100F5000FB710D4AFB791370FB79002B05D10B4B0C
:100F600000221A800A4B00221A80FB79002B01D044
:100F7000084B00E0084B1946084806F07DF900BF11
:100F80000837BD4680BD00BF400200201C02002083
:100F900028020020E89C0008EC9C0008F09C000857
:100FA00080B400AF024B1B681846BD4680BC70473A
:100FB0000000002080B400AF024B1B681846BD46FD
:100FC00080BC70473C02002080B400AF024B5B68DD
:100FD0001846BD4680BC70471C02002080B400AF9C
:100FE000024B5B681846BD4680BC70472802002053
:100FF00090B587B000AFBA607B600346FB810B46BB
:10100000BB81B7F90C30184608F08AFA03465E49EE
:10101000184608F08DFB03467B61FB897B82B7F99C
:101020001230184608F07CFA04464FF07E51786979
:1010300008F0C2F903461946204608F0C5FA0346EF
:101040005249184608F05EFC0346002B01D0504B75
:1010500030E0B7F91230184608F062FA04464FF053
:101060007E51786908F0A8F903461946204608F031
:10107000ABFA03464449184608F062FC0346002BCD
:1010800002D04FF47A7315E0B7F91230184608F021
:1010900047FA04464FF07E51786908F08DF903460F
:1010A0001946204608F090FA0346184608F052FC0C
:1010B00003461BB2BA681380B7F91230184608F01D
:1010C0002FFA044679694FF07E5008F073F9034611
:1010D0001946204608F078FA03462C49184608F0CD
:1010E00011FC0346002B01D0294B30E0B7F9123038
:1010F000184608F015FA044679694FF07E5008F05A
:1011000059F903461946204608F05EFA03461E497F
:10111000184608F015FC0346002B02D04FF47A73F2
:1011200015E0B7F91230184608F0FAF90446796963
:101130004FF07E5008F03EF903461946204608F06D
:1011400043FA0346184608F005FC03461BB27A68CA
:101150001380B7F90E30002BB8BF5B429BB2312B26
:101160000DD8B7F90C30002BB8BF5B429BB2312BC6
:1011700005D8BB6800221A807B6800221A8000BF55
:101180001C37BD4690BD00BF00007A4400007AC401
:1011900018FCFFFF80B483B000AF03463960FB71D9
:1011A00097F90730002B0BDA3B68DAB20C49FB7970
:1011B00003F00F03043B1201D2B20B441A7609E08C
:1011C0003B68DAB2074997F907301201D2B20B44F3
:1011D00083F8002300BF0C37BD4680BC704700BFBA
:1011E00000ED00E000E100E080B582B000AF786083
:1011F0007B68013BB3F1807F01D301230FE00A4AF2
:101200007B68013B53600F214FF0FF30FFF7C2FFB7
:10121000054B00229A60044B07221A6000231846EF
:101220000837BD4680BD00BF10E000E080B500AFCC
:10123000002001F071FB00BF002001F0B9FA034665
:10124000002BF9D0002001F0E7F94FF4806001F0A5
:10125000FBF9002001F010FA1249002001F024FAF5
:10126000182001F059FB00BF182001F0A1FA034635
:10127000002BF9D0022002F09FFE022001F0A8F915
:1012800000BF01F0BDF90346082BFAD1064B074A0F
:101290001A60054B1B681946054805F0EDFF00BFB5
:1012A00080BD00BF000004081000002000A24A0416
:1012B000049D000880B500AF0D4B1B680D4AA2FBD2
:1012C00003239B091846FFF78FFF0346002B04D02A
:1012D000094803F08FFA00BFFDE700214FF0FF300F
:1012E000FFF758FF054803F085FA00BF80BD00BF37
:1012F00010000020D34D62102C9D0008409D000876
:1013000080B500AF40F2026001F0FAF840F20360ED
:1013100001F0F6F840F2046001F0F2F84FF4C0601A
:1013200001F0EEF80121094801F078F8084803F0CF
:1013300061FA00F08FF800F0C1F800F0D5F800F085
:10134000FDF8044803F056FA00BF80BD00023000EB
:10135000589D0008709D000880B500AF4FF4E06014
:1013600001F0CEF840F2027001F0CAF840F20370CA
:1013700001F0C6F800F0FCF800F069F9024803F04B
:1013800039FA00BF80BD00BF849D000880B500AF62
:1013900040F2096001F0B4F84FF4A06001F0B0F839
:1013A000022001F0A1F900F0DBF900F0FBF902489E
:1013B00003F020FA00BF80BDA09D000880B500AFFB
:1013C00040F61D1001F0C8F90346002B04D001F0CF
:1013D000E1F90B4803F00EFA022140F6FF7002F02B
:1013E00097FD0346012B04D0064803F003FA00BF23
:1013F000FDE702F075FD044803F0FCF900BF80BD75
:10140000B49D0008CC9D0008E49D000880B485B020
:1014100000AF7860094B1B68FB6001E000BF00BFB4
:10142000064B1A68FB68D31A7A689A42F6D800BF4E
:1014300000BF1437BD4680BC704700BF4402002087
:1014400080B400AF024B1B681846BD4680BC704795
:101450004402002080B500AF4FF4E073032218214E
:10146000134800F005FF832303221821114800F0E0
:10147000FFFE4FF48073032218210E4800F0F8FE9F
:101480004FF40053032218210B4800F0F1FE4FF4F3
:10149000C06303221821074800F0EAFE4FF44043DE
:1014A00003221821044800F0E3FE00BF80BD00BF06
:1014B0000010014000080140000C014080B500AF61
:1014C000E02303220421064800F0D2FE4FF4E0534B
:1014D00003220421034800F0CBFE00BF80BD00BF03
:1014E000000C01400010014080B500AF4FF40053E4
:1014F000032210210E4800F0BBFE4FF400510C48AF
:1015000000F068FF1023032210210A4800F0B0FE0B
:101510001021084800F05EFF042303221021064832
:1015200000F0A6FE0421044800F045FF00BF80BD86
:101530000010014000080140000C014080B500AFE0
:10154000042303220021084800F092FE0223032214
:101550000021064800F08CFE0C23032200210348E2
:1015600000F086FE00BF80BD001001400008014071
:1015700080B58CB000AF4FF0804001F0BFFA00237F
:101580003B8460237B840023BB8440F6CA03BB6298
:101590000023BB85002387F82E3007F1200319466E
:1015A0004FF0804001F042FB0123BB800423FB800D
:1015B00000233B8108237B810023BB814FF4007310
:1015C000FB813B1D1A4601214FF0804001F018FCC1
:1015D0003B1D1A4602214FF0804001F011FC3B1DDB
:1015E0001A4603214FF0804001F00AFC70220121CD
:1015F0004FF0804001F0F2FD702202214FF0804058
:1016000001F0ECFD702203214FF0804001F0E6FD77
:101610004FF400633B8200237B823223BB82002392
:10162000FB824FF480433B8300237B830023BB83F7
:1016300007F1100319464FF0804001F0B9FB4FF05D
:10164000804001F097FB00BF3037BD4680BD80B5BC
:1016500000AF00F005F800F03DF800BF80BD0000CD
:1016600080B588B000AF1A4801F048FA00233B82E9
:1016700060237B820023BB8240F6CA03BB61002348
:10168000BB830023BB7707F110031946104801F014
:10169000CDFA0123BB800423FB8000233B81082378
:1016A0007B810023BB814FF40073FB813B1D1A46F5
:1016B0000321074801F0A4FB70220321044801F034
:1016C0008DFD034801F056FB00BF2037BD4680BDAD
:1016D0000008004080B588B000AF204801F00EFA45
:1016E00000233B8260237B820023BB8240F6CA0337
:1016F000BB610023BB830023BB7707F110031946AE
:10170000164801F093FA0123BB800423FB800023D9
:101710003B8108237B810023BB814FF40073FB8155
:101720003B1D1A4601210D4801F06AFB3B1D1A467C
:1017300003210A4801F064FB70220121074801F0EF
:101740004DFD70220321054801F048FD034801F0DA
:1017500011FB00BF2037BD4680BD00BF000C00401C
:1017600080B500AF0E4801F09BFD002001F0D4FDD4
:1017700000210B4801F046FE01224FF48071084819
:1017800001F0E2FD00220121054801F0BDFE044800
:1017900001F056FE024801F07CFE00BF80BD00BF94
:1017A0000024014080B588B000AF0021164801F048
:1017B000F0FE0023BB77154BFB6001237B774FF4D2
:1017C00080633B6103237B61114B7B6000233B778C
:1017D0004FF48073BB604FF40053BB613B1D1A464E
:1017E0000021094801F03CFF0021074802F034F8CD
:1017F0000021054802F05BF8064801F074FE00BFC6
:101800002037BD4680BD00BF0000024034020020EA
:101810004C2401400024014080B500AF044B1B68FC
:101820000133034A136002F067FB00BF80BD00BFB5
:101830004402002080B500AF02220021064802F0D9
:1018400061F80346002B04D002220021024802F076
:10185000C6F800BF80BD00BF0000024080B582B066
:1018600000AF0346FB711D4B00221A701C4B002277
:101870001A701C4B00221A60102200211A4803F033
:10188000D3F81A4B00221A80FB79042B0DD100F0FB
:101890002FF9FFF7D5FD0346124A13600F4B0422C0
:1018A0001A70134802F0A6FF15E0FB79032B08D14C
:1018B00000F004F9094B03221A700E4802F09AFF57
:1018C00009E0FB7919460C4805F0D6FC00F0F6F863
:1018D000024B03221A700837BD4680BD5D0200200E
:1018E0005C0200205802002048020020E002002094
:1018F000009E0008349E0008689E000880B584B0F1
:1019000000AFFFF79DFD7860404B1B687A68D31AE3
:10191000092B74D93D4A7B6813603D4B1B78042B1F
:101920001ED100F05DF93B4B1B78012B69D13A4B7E
:101930001B687A68D31AB3F57A7F62D9354B0022D7
:101940001A700023FB6007E0344AFB68002122F88C
:101950001310FB680133FB60FB68072BF4DD50E0DC
:101960002B4B1B78032B4DD12D4B1B887B802C4B95
:101970005B883B80B7F90230184600F0B9F903469E
:101980001A46264B1A80B7F90030184600F0B0F915
:1019900003461A46214B9A80204B00225A801F4B47
:1019A0000022DA801D4B4FF47A721A811B4B002201
:1019B0005A811A4B00229A81184B0022DA81164A6A
:1019C0007B681360144B1B687A68D31AB3F57A7F6F
:1019D00011D9104B00221A700023BB6007E00F4A98
:1019E000BB68002122F81310BB680133BB60BB68E1
:1019F000072BF4DD06E0074B01221A7002E000BF5E
:101A000000E000BF1037BD4680BD00BFE4020020EB
:101A10005D0200205C0200205802002048020020E5
:101A20003402002080B483B000AF0346FB71FB7921
:101A3000072B01D9002309E0074B1B78002B01D1AC
:101A4000002303E0FB79054A32F9133018460C37BE
:101A5000BD4680BC704700BF5C02002048020020E9
:101A600080B500AF0220FFF7DDFF0346184680BDBA
:101A700080B500AF0020FFF7D5FF0346184680BDB4
:101A800080B582B000AF0420FFF7CCFF0346FB8097
:101A9000B7F90630B3F5FA7FCCBF01230023DBB2E0
:101AA00018460837BD4680BD80B400AF024B1B7896
:101AB0001846BD4680BC70475C02002080B500AF70
:101AC000094802F097FE094B00225A80074B40F666
:101AD000FF729A80054B4FF40062DA80034B32228A
:101AE0001A8100BF80BD00BFC89E0008040000200E
:101AF00080B500AF054802F07DFE054B00221A704C
:101B0000044B00221A8000BF80BD00BFDC9E00088D
:101B10005C020020E002002080B584B000AF294BB9
:101B20001B881A46284B002199542849264804F05E
:101B300057FFF8600023BB6020E00A220021F8680C
:101B400004F036FE78607B681BB213F57A7F08DB01
:101B50007B681BB2B3F57A7FA8BF4FF47A731AB2D1
:101B600000E01B4A1B49BB6821F8132017490020DD
:101B700004F036FFF860BB680133BB60FB68002BE4
:101B800002D0BB68072BD8DDBB68002B13DD07E054
:101B9000104ABB68002122F81310BB680133BB60F8
:101BA000BB68072BF4DD0C4B01221A70FFF748FCD1
:101BB00003460A4A1360034B00221A8000BF103705
:101BC000BD4680BDE002002060020020F09E0008BB
:101BD00018FCFFFF480200205C0200205802002091
:101BE00080B582B000AF2CE01C4802F0AAF8034692
:101BF000FB71FFF725FC0346194A1360FB790D2B97
:101C00001CD0FB790A2B06D1164B1B88002B17D052
:101C1000FFF782FF14E0134B1B887E2B0AD8114B71
:101C20001B885A1C91B20F4A118019460E4AFB7943
:101C3000535406E00B4B00221A8002E000BF00E084
:101C400000BF0521054802F0C4F80346002BCBD1A4
:101C500000BF00BF0837BD4680BD00BF0048004040
:101C600058020020E00200206002002090B482B000
:101C700000AF0446084611461A462346FB80034639
:101C8000BB800B467B8013463B80B7F90620B7F933
:101C900000309A4215DAB7F90620B7F90430D31AA2
:101CA0004FF47A7203FB02F2B7F90010B7F904306F
:101CB000CB1A92FBF3F39BB2A3F57A739BB21BB2E0
:101CC00010E0B7F90620B7F90030D31A4FF47A7252
:101CD00003FB02F2B7F90210B7F90030CB1A92FBFE
:101CE000F3F31BB218460837BD4690BC704700009E
:101CF00080B582B000AF0346FB80094BB3F90210F8
:101D0000074BB3F90420064BB3F90630B7F90600C8
:101D1000FFF7ACFF034618460837BD4680BD00BF3D
:101D20000400002080B400AFBFF34F8F00BF064B0C
:101D3000DB6803F4E0620449044B1343CB60BFF358
:101D40004F8F00BF00BFFDE700ED00E00400FA0583
:101D500080B582B000AF7860304801F073FE40F289
:101D6000036000F0CDFB4FF4C06000F0C9FB40F20F
:101D7000127000F0C5FB0121294800F04FFB4FF421
:101D8000806303221821274800F072FA4FF40063A1
:101D900003224821234800F06BFA79681F4801F0BC
:101DA000B3FE04211D4801F09EFF1C4801F06DFFA9
:101DB00079681A4801F0A8FE0021184801F02FFFA9
:101DC0000021164801F046FF0021144801F00CFFE5
:101DD0000021124801F0C5FF0021104801F0DDFF8D
:101DE00004210E4801F07FFF08210C4801F05EFF3E
:101DF0000A4801F04AFF00220021272002F006F9DC
:101E000040F20531054802F000F87968064805F00F
:101E100033FA00BF0837BD4680BD00BF0048004010
:101E200030001400000C01401C9F000880B584B0F5
:101E300000AF78607B68002B1ED0786802F040FA13
:101E4000B8600023FB6012E07A68FB6813441B78DB
:101E500019460B4801F064FF00BF0721084801F054
:101E6000B8FF0346002BF8D0FB680133FB60FA682B
:101E7000BB689A42E8D300E000BF1037BD4680BD82
:101E80000048004080B584B000AF78600B467B808E
:101E90007B68002B1DD07B88002B1AD00023FB8190
:101EA00012E0FB897A6813441B7819460B4801F04D
:101EB00037FF00BF0721094801F08BFF0346002BC5
:101EC000F8D0FB890133FB81FA897B889A42E8D3F9
:101ED00000E000BF1037BD4680BD00BF0048004095
:101EE0000FB480B5A2B000AF07F194037B6007F197
:101EF00008007B68D7F89020802102F06FF907F185
:101F000008031846FFF792FF00BF8837BD46BDE8BB
:101F1000804004B07047000080B582B000AF034637
:101F2000FB71FB790D2B02D0FB790A2B1CD1294BBD
:101F30001B88002B14D0274B1B881A46264B0021E8
:101F40009954264B01221A702548FFF76FFF22484B
:101F5000FFF76CFF2348FFF769FF1F4800F048F8C0
:101F60001C4B00221A8030E0FB79082B02D0FB7951
:101F70007F2B0DD1174B1B88002B26D0154B1B88B0
:101F8000013B9AB2134B1A801748FFF74FFF1CE032
:101F9000104B1B88FE2B18D80E4B1B885A1C91B275
:101FA0000C4A118019460C4AFB795354FB799BB2B9
:101FB00019460E4801F0B4FE00BF07210B4801F09E
:101FC00008FF0346002BF8D0FFE700BF0837BD46E7
:101FD00080BD00BFE8030020E8020020EA030020E3
:101FE0009C9F0008A49F0008A89F0008004800408C
:101FF00080B584B000AF78607B68002B00F08280F1
:102000007B681B78002B7DD04049786804F0FAFF8C
:102010000346002B06D03E49786804F0F3FF0346E0
:10202000002B18D13B48FFF701FF3B48FFF7FEFEAE
:102030003A48FFF7FBFE3A48FFF7F8FE3948FFF74A
:10204000F5FE3948FFF7F2FE3848FFF7EFFE384853
:10205000FFF7ECFE57E03749786804F0D3FF0346FA
:10206000002B03D13448FFF7E1FE4CE03349786898
:1020700004F0C8FF0346002B03D13148FFF7D6FE1A
:1020800041E03049786804F0BDFF0346002B03D1DE
:102090002D48FFF7CBFE36E004222C49786804F087
:1020A000E3FE0346002B0DD17B680433184604F091
:1020B000CBFA0346FB81B7F90E3019462448FFF7E7
:1020C0000FFF20E02349786804F09CFF0346002BB3
:1020D00003D12148FFF7AAFE15E02049786804F0F3
:1020E00091FF0346002B05D11D48FFF79FFEFFF728
:1020F00019FE08E079681B48FFF7F2FE1A48FFF75F
:1021000095FE00E000BF1037BD4680BDAC9F0008C3
:10211000B49F0008B89F0008C89F0008E89F000807
:1021200010A0000830A0000850A000087CA0000803
:10213000A4A00008C4A00008CCA00008E4A00008E7
:10214000ECA00008FCA0000804A1000814A10008ED
:102150001CA1000830A1000838A1000850A1000807
:1021600058A100086CA1000880A1000880B582B0C9
:1021700000AF1149114801F067FE0346002B0CD057
:102180000E4801F0DEFD0346FB71FB791846FFF7B0
:10219000C3FE0949094801F08BFE0949074801F0CF
:1021A00053FE0346002B03D00549044801F080FE8E
:1021B00000BF0837BD4680BD05030500004800404C
:1021C0000603060080B584B000AFF860B9607A609D
:1021D0007B689BB21946B868FFF754FE7B681846C7
:1021E0001037BD4680BD000080B500AF4FF40063DE
:1021F00003221021064800F03BF84FF40061044828
:1022000000F0E8F8034B00221A7000BF80BD00BF49
:1022100000080140EB03002080B500AF4FF40061DF
:10222000054800F0C8F8054B01221A70044802F076
:10223000E1FA00BF80BD00BF00080140EB030020B1
:10224000A4A1000880B500AF4FF40061054800F07C
:10225000C1F8054B00221A70044802F0CBFA00BF07
:1022600080BD00BF00080140EB030020C8A10008AA
:1022700080B489B000AFF860B9607A603B60002339
:10228000BB6100237B61BB6803F00F03BB61BB68CC
:1022900003F01003002B03D0BA697B681343BB61C2
:1022A0000023FB8339E0FB8B01229A403B681340FB
:1022B000002B2FD0FB681B687B61FB8B9B000F22E0
:1022C00002FA03F3DB437A6913407B61FB8B9B00CB
:1022D000BA6902FA03F37A6913437B61BB68282B5E
:1022E00009D1FB8B01229A40FB68143319463B68E5
:1022F00013400B600BE0BB68482B08D1FB8B01221D
:102300009A40FB68103319463B6813400B60FB682A
:102310007A691A60FB8B0133FB83FB8B072BC2D9D5
:102320000823FB833EE0FB8B01229A403B6813406D
:10233000002B34D0FB6804331B687B61FB8B083BAC
:102340009B000F2202FA03F3DB437A6913407B619F
:10235000FB8B083B9B00BA6902FA03F37A691343CB
:102360007B61BB68282B09D1FB8B01229A40FB685B
:10237000143319463B6813400B600BE0BB68482BD5
:1023800008D1FB8B01229A40FB68103319463B6849
:1023900013400B60FB6804331A467B691360FB8BA8
:1023A0000133FB83FB8B0F2BBDD900BF00BF24374C
:1023B000BD4680BC704780B483B000AF78603960A0
:1023C0007B6810331A463B68136000BF0C37BD466C
:1023D00080BC704780B483B000AF786039607B68A0
:1023E00014331A463B68136000BF0C37BD4680BCEF
:1023F000704780B483B000AF786039607B68083381
:102400001A683B681340002B01D0012300E0002331
:1024100018460C37BD4680BC7047000080B487B0BA
:1024200000AF78600B46FB7000233B610023FB602C
:1024300000237B610023BB607B68002B03DA2E4BFB
:102440001B687B6102E02D4B1B687B617B681B0C6A
:1024500003F00F03BB607B689BB23B617B6803F4B6
:102460004013B3F5401F0AD17B6923F070637B6191
:10247000224B1B68214A23F07063136021E07B68C4
:1024800003F48013002B0ED00322BB6802FA03F37F
:10249000FB60FB68DB437A6913407B617B6943F037
:1024A00070637B610DE07B685B0D1B013A6902FA8A
:1024B00003F3DB437A6913407B617B6943F070630C
:1024C0007B61FB78002B08D07B685B0D1B013A69B0
:1024D00002FA03F37A6913437B617B68002B03DA0A
:1024E000054A7B69136002E0044A7B69136000BF00
:1024F0001C37BD4680BC70471C00014004000140F1
:1025000080B483B000AF0346FB80FB889B099BB27D
:1025100003F1804303F504331968FB8803F01F03BC
:1025200001229A40FB889B099BB203F1804303F58B
:102530000433184641EA0203036000BF0C37BD466E
:1025400080BC704780B483B000AF0346FB80FB883B
:102550009B099BB203F1804303F504331968FB88A0
:1025600003F01F0301229A40FB889B099BB203F1F1
:10257000804303F50433184641EA0203036000BFB9
:102580000C37BD4680BC704780B483B000AF0346B3
:10259000FB80FB889B099BB203F1804303F5043366
:1025A0001968FB8803F01F03012202FA03F3DA43E0
:1025B000FB889B099BB203F1804303F50433184663
:1025C00001EA0203036000BF0C37BD4680BC7047C0
:1025D00080B485B000AF7860084B1B68FB60FB6877
:1025E00023F00303FB600549FA687B6813430B6023
:1025F00000BF1437BD4680BC704700BF04100240C6
:1026000080B400AF034B1B6803F00C031846BD46B3
:1026100080BC70470410024080B485B000AF786081
:10262000084B1B68FB60FB6823F0F003FB60054967
:10263000FA687B6813430B6000BF1437BD4680BC4B
:10264000704700BF0410024080B485B000AF7860CE
:10265000084B1B68FB60FB6823F4E063FB600549E3
:10266000FA687B6813430B6000BF1437BD4680BC1B
:10267000704700BF0410024080B485B000AF78609E
:10268000084B1B68FB60FB6823F46053FB60054943
:10269000FA687B6813430B6000BF1437BD4680BCEB
:1026A000704700BF0410024080B485B000AF78606E
:1026B00039600023FB600B4B1B68FB60FB6823F059
:1026C000036323F45023FB607A683B681343FA6882
:1026D0001343FB60034AFB68136000BF1437BD4619
:1026E00080BC70470410024080B485B000AF7860B1
:1026F000184B1B68FB60FB6823F0805323F44043B6
:10270000FB607B68072B0FD07B68072B18D87B6892
:10271000032B03D97B68052B06D011E07B689B0354
:10272000FA681343FB600CE07B6823F004037B60D2
:102730007B689A03FB68134343F08053FB6000E01F
:1027400000BF044AFB68136000BF1437BD4680BC5D
:10275000704700BF0410024080B483B000AF03464E
:10276000FB80FB889B099BB203F1804303F5043394
:102770001A68FB8803F01F0322FA03F303F0010336
:10278000002B01D0012300E0002318460C37BD4682
:1027900080BC704780B400AF044B1B68034A43F011
:1027A0008073136000BFBD4680BC70472410024098
:1027B00080B584B000AF0346FB800023FB6000239C
:1027C000FB720023BB72FB88B3F5106F69D0B3F5C1
:1027D000106F00F38F80B3F5006F2FD0B3F5006F4B
:1027E00000F38880182B75D0182B00F38380002B02
:1027F0003ED0102B7ED107E01120FFF7ADFF03463E
:10280000BB72FB680133FB60BB7A002B04D1FB6811
:102810004FF6FF729342EFD11120FFF79DFF034661
:10282000002B69D00123FB7266E040F60100FFF740
:1028300093FF0346BB72FB680133FB60BB7A002B3E
:1028400004D1FB686FF07C429342EED140F6010068
:10285000FFF782FF0346002B50D00123FB724DE0AF
:102860000120FFF779FF0346BB72FB680133FB6071
:10287000BB7A002B03D1FB68B3F5A06FF0D1012028
:10288000FFF76AFF0346002B3AD00123FB7237E0C3
:1028900040F60110FFF760FF0346BB72FB6801338F
:1028A000FB60BB7A002B03D1FB681A4A9342EFD13D
:1028B00040F60110FFF750FF0346002B22D0012302
:1028C000FB721FE01920FFF747FF0346BB72FB684E
:1028D0000133FB60BB7A002B03D1FB680D4A9342A6
:1028E000F0D11920FFF738FF0346002B0CD001234D
:1028F000FB7209E000BF08E000BF06E000BF04E093
:1029000000BF02E000BF00E000BFFB7A18461037AE
:10291000BD4680BDFFFF0F0080B483B000AF03460B
:10292000FB80FB889B099BB203F1804303F50433D2
:102930001968FB8803F01F0301229A40FB889B095A
:102940009BB203F1804303F50433184641EA0203C6
:10295000036000BF0C37BD4680BC704790B496B092
:1029600000AF0346FB7100237B655F4B07F1180442
:102970000FCB84E80F005D4A07F1100392E80300D3
:1029800083E80300594A07F1080392E8030083E84B
:102990000300574B1B689B0803F003037B647B6CAD
:1029A000022B0FD07B6C022B45D87B6C002B03D005
:1029B0007B6C012B03D03EE04E4B3B653EE04D4B24
:1029C0003B653BE04A4B1B6803F480333B643B6C44
:1029D000B3F5803F0DD1474BBB64454B1B6803F4F7
:1029E0000033FB63FB6BB3F5003F04D1424BBB6488
:1029F00001E0414BBB643E4B1B689B0C03F00F0393
:102A0000FB643B4B1B6803F00063002B03D0FB6CA3
:102A100043F01003FB64FB6C0E2B03D8FB6C0233FA
:102A2000FB6402E0FB6C0133FB64BB6CFA6C02FBE1
:102A300003F33B6502E02F4B3B6500BF2C4B1B684B
:102A40001B0903F00F03BB6307F11802BB6B1344B0
:102A50001B787B633A6D7B6B22FA03F33B63244B59
:102A60001B681B0A03F00703BB6307F11002BB6B73
:102A700013441B787B633A6B7B6B22FA03F3FB6294
:102A80001B4B1B68DB0A03F00703BB6307F108025B
:102A9000BB6B13441B787B633A6B7B6B22FA03F3AB
:102AA000BB62FB79032B17D801A252F823F000BFB9
:102AB000C12A0008C72A0008CD2A0008D32A000826
:102AC0003B6D7B6509E03B6B7B6506E0FB6A7B65E4
:102AD00003E0BB6A7B6500E000BF7B6D184658379A
:102AE000BD4690BC704700BFE8A10008F8A10008EF
:102AF0000410024000127A0000093D0080B582B047
:102B000000AF78607B68424A934273D07B68404A4A
:102B1000934278D87B683F4A93422CD07B683D4AE9
:102B2000934270D87B683C4A93425AD07B683A4AB9
:102B3000934268D87B68394A934249D07B68374AC8
:102B4000934260D87B68364A934238D07B68344AD7
:102B5000934258D87B68334A934227D07B68314AE6
:102B6000934250D87B68B3F1804F0DD07B682E4ADA
:102B7000934212D047E040F20B30FFF7E3FC40F203
:102B80000B30FFF701FD3FE04FF48060FFF7DAFC08
:102B90004FF48060FFF7F8FC36E040F20140FFF7A9
:102BA000D1FC40F20140FFF7EFFC2DE040F2024083
:102BB000FFF7C8FC40F20240FFF7E6FC24E040F2D9
:102BC0000340FFF7BFFC40F20340FFF7DDFC1BE0D2
:102BD00040F20440FFF7B6FC40F20440FFF7D4FC9B
:102BE00012E040F20540FFF7ADFC40F20540FFF770
:102BF000CBFC09E040F20D30FFF7A4FC40F20D30B1
:102C0000FFF7C2FC00E000BF00BF0837BD4680BD33
:102C100000340140002C014000140040001000402E
:102C2000000C0040000800400004004080B483B065
:102C300000AF786039603B681A887B6828331A6077
:102C40007B683F4A93422BD07B68B3F1804F27D0FB
:102C50007B683C4A934223D07B683B4A93421FD017
:102C60007B683A4A93421BD07B68394A934217D01B
:102C70007B68384A934213D07B68374A93420FD01F
:102C80007B68364A93420BD07B68354A934207D023
:102C90007B68344A934203D07B68334A934217D10E
:102CA0007B681A687B6822F070021A607B6819687A
:102CB0003B685B8803F060027B680A431A607B68AC
:102CC00019683B689B8803F010027B680A431A600E
:102CD0007B682C331A463B689B6813607B68234AE9
:102CE000934212D07B68224A93420ED07B681A68C6
:102CF0007B6822F440721A607B6819683B689B8984
:102D000003F440727B680A431A607B680C4A934262
:102D100003D07B680E4A934204D13B689A7B7B6860
:102D200030331A607B6814331B687A68143243F0BE
:102D30000103136000BF0C37BD4680BC704700BF65
:102D4000002C01400004004000080040000C00403E
:102D500000340140004C014000500140005401404B
:102D600000180040001C00400020004000100040FF
:102D70000014004080B483B000AF78607B681A68AC
:102D80007B6842F001021A6000BF0C37BD4680BC70
:102D9000704780B483B000AF78607B681A687B6846
:102DA00022F001021A6000BF0C37BD4680BC70479C
:102DB00080B483B000AF786039603B681A883B68A4
:102DC0005B8813439AB23B689B8813439AB23B6873
:102DD000DB8813439AB23B681B8913439AB23B6862
:102DE0005B8913439AB23B689B8913439AB27B6811
:102DF00044331A6000BF0C37BD4680BC70470000EA
:102E000080B485B000AFF8600B467A607B817B8927
:102E1000032B00F2D08101A252F823F02D2E0008DE
:102E2000292F00082D30000829310008FB682033C5
:102E30001B68FA68203223F001031360FB68183323
:102E40001B68FA68183223F003031360FB68203311
:102E50001B687A6812881146FA6820320B431360A7
:102E6000FB6820331B68FA68203223F002031360EA
:102E7000FB6820331B687A6892881146FA68203212
:102E80000B431360FB68674A934204D0FB68664AB1
:102E9000934240F09281FB6820331B68FA6820322D
:102EA00023F004031360FB6820331B687A685288A0
:102EB0001146FA6820320B431360FB6820331B680D
:102EC000FA68203223F008031360FB6820331B6884
:102ED0007A68D2881146FA6820320B431360FB6887
:102EE00004331B68FA68043223F480731360FB68B0
:102EF00004331B687A6812891146FA6804320B435E
:102F00001360FB6804331B68FA68043223F400730F
:102F10001360FB6804331B687A6852891146FA68AB
:102F200004320B43136048E1FB6820331B68FA68E6
:102F3000203223F010031360FB6818331B68FA6813
:102F4000183223F440731360FB6820331A687B68DF
:102F50001B881B01F968203113430B60FB68203389
:102F60001B68FA68203223F020031360FB682033CB
:102F70001A687B689B881B01F968203113430B603A
:102F8000FB68284A934204D0FB68274A934240F0EA
:102F90001681FB6820331B68FA68203223F0400357
:102FA0001360FB6820331A687B685B881B01F96833
:102FB000203113430B60FB6820331B68FA68203212
:102FC00023F080031360FB6820331A687B68DB887A
:102FD0001B01F968203113430B60FB6804331B6845
:102FE000FA68043223F480631360FB6804331A68C0
:102FF0007B681B899B00F968043113430B60FB68F5
:1030000004331B68FA68043223F400631360FB681E
:1030100004331A687B685B899B00F96804311343A9
:103020000B60CCE0002C014000340140FB682033F1
:103030001B68FA68203223F480731360FB681C332A
:103040001B68FA681C3223F003031360FB6820330B
:103050001A687B681B881B02F968203113430B60D8
:10306000FB6820331B68FA68203223F40073136076
:10307000FB6820331A687B689B881B02F968203143
:1030800013430B60FB68534A934204D0FB68524AD7
:10309000934240F09680FB6820331B68FA68203228
:1030A00023F480631360FB6820331A687B685B88B5
:1030B0001B02F968203113430B60FB6820331B6847
:1030C000FA68203223F400631360FB6820331A6827
:1030D0007B68DB881B02F968203113430B60FB68B7
:1030E00004331B68FA68043223F480531360FB68CE
:1030F00004331A687B681B891B01F9680431134388
:103100000B60FB6804331B68FA68043223F4005335
:103110001360FB6804331A687B685B891B01F968DC
:10312000043113430B604CE0FB6820331B68FA68E2
:10313000203223F480531360FB681C331B68FA6849
:103140001C3223F440731360FB6820331A687B68D9
:103150001B881B03F968203113430B60FB68203385
:103160001B68FA68203223F400531360FB68203395
:103170001A687B689B881B03F968203113430B6036
:10318000FB68144A934203D0FB68134A93421AD156
:10319000FB6804331B68FA68043223F4804313602D
:1031A000FB6804331A687B681B899B01F96804314A
:1031B00013430B6007E000BF06E000BF04E000BF60
:1031C00002E000BF00E000BF00BF1437BD4680BC76
:1031D000704700BF002C01400034014080B483B030
:1031E00000AF78600B467B8013463B807B88032BC7
:1031F00050D801A252F823F0093200082B320008FF
:103200004F320008713200087B6818331B687A68F7
:10321000183223F0700313607B6818331A683B88F8
:103220007968183113430B6035E07B6818331B68ED
:103230007A68183223F4E04313607B6818331A6805
:103240003B881B027968183113430B6023E07B68CD
:103250001C331B687A681C3223F0700313607B6890
:103260001C331A683B8879681C3113430B6012E0E9
:103270007B681C331B687A681C3223F4E0431360BC
:103280007B681C331A683B881B0279681C31134326
:103290000B6000E000BF00BF0C37BD4680BC70472C
:1032A00080B582B000AF78607B68184A93421ED028
:1032B0007B68164A934223D87B68154A934204D010
:1032C0007B68144A934209D01AE040F20930FFF7B4
:1032D00039F940F20930FFF757F912E040F20A30AD
:1032E000FFF730F940F20A30FFF74EF909E040F2FB
:1032F0000F30FFF727F940F20F30FFF745F900E0F4
:1033000000BF00BF0837BD4680BD00BF003C014084
:10331000002401400028014080B483B000AF7860F1
:10332000084B1B68074A23F470231360054B1A6887
:1033300004497B6813430B6000BF0C37BD4680BC5B
:10334000704700BF0424014080B485B000AFF8602E
:10335000B9601346FB71FB79002B27D0BB6803F4DF
:103360008073002B07D0FB6804331B68FA680432B3
:1033700043F480731360BB6803F48063002B07D0B1
:10338000FB6804331B68FA68043243F480631360FB
:10339000BB6803F00203002B2FD0FB6808331B68C7
:1033A000FA68083243F00203136026E0BB6803F4B6
:1033B0008073002B07D0FB6804331B68FA68043263
:1033C00023F480731360BB6803F48063002B07D081
:1033D000FB6804331B68FA68043223F480631360CB
:1033E000BB6803F00203002B07D0FB6808331B689F
:1033F000FA68083223F00203136000BF1437BD4699
:1034000080BC704780B483B000AF786039603B689F
:10341000002B08D07B6808331B687A68083243F4B5
:103420000063136007E07B6808331B687A68083222
:1034300023F40063136000BF0C37BD4680BC7047A7
:1034400080B483B000AF78607B6808331B6803F0FA
:103450000103002B07D17B6808331B687A680832A8
:1034600043F00103136000BF0C37BD4680BC7047BA
:1034700080B483B000AF78607B6808331B687A68DB
:10348000083223F00103136000BF0C37BD4680BC37
:10349000704780B483B000AF78607B6808331B68E6
:1034A0007A68083243F00803136000BF7B68083372
:1034B0001B6803F00803002BF8D17B6808331B68F6
:1034C0007A68083243F00403136000BF7B68083356
:1034D0001B6803F00403002BF8D100BF00BF0C37BA
:1034E000BD4680BC704780B483B000AF78607B6815
:1034F00008331B687A68083243F48073136000BF96
:103500000C37BD4680BC704780B483B000AF786094
:103510000B46FB701346BB70BB78002B1AD0FB78B0
:1035200003F00103002B07D07B6808331B687A681F
:10353000083243F480131360FB7803F00203002B7E
:1035400022D07B6808331B687A68083243F4004352
:10355000136019E0FB7803F00103002B07D07B68B0
:1035600008331B687A68083223F480131360FB78F1
:1035700003F00203002B07D07B6808331B687A68CE
:10358000083223F40043136000BF0C37BD4680BCF3
:10359000704780B582B000AF78600B46FB70FB7857
:1035A0001946786800F034FA0346002B01D100BFB9
:1035B000FDE7FA7813469B0013449B001A467B688C
:1035C000134408331968FA7813469B0013449B0090
:1035D0001A467B68134408331A4621F0010313602E
:1035E000FA7813469B0013449B001A467B681344E9
:1035F00008331A4600231360FA7813469B001344DD
:103600009B001A467B6813440C331A460023136050
:10361000FA7813469B0013449B001A467B681344B8
:1036200010331A4600231360FA7813469B001344A4
:103630009B001A467B68134414331A460023136018
:103640007B6804331A68FB789B000F2101FA03F3AF
:103650007968043113430B6000BF0837BD4680BD55
:1036600080B586B000AFF8600B467A60FB72FB7ADB
:103670001946F86800F0CCF90346002B01D100BFD1
:10368000FDE7FA7A13469B0013449B001A46FB6839
:10369000134410331A467B681B681360FA7A13468A
:1036A0009B0013449B001A46FB68134414331A46CC
:1036B0007B689B6813607B681969FA7A13469B00E4
:1036C00013449B001A46FB6813440C331A468BB212
:1036D0001360FA7A13469B0013449B001A46FB685A
:1036E000134408331B687B617B6923F47C537B6143
:1036F0007B685A687B68DB681A437B685B691343A5
:103700007A6913437B61FA7A13469B0013449B004A
:103710001A46FB68134408331A467B6913607B68BA
:103720001B7E012B17D1FA7A13469B0013449B0092
:103730001A46FB68134408331968FA7A13469B004B
:1037400013449B001A46FB68134408331A4641F0A1
:103750004003136016E0FA7A13469B0013449B0063
:103760001A46FB68134408331968FA7A13469B001B
:1037700013449B001A46FB68134408331A4621F091
:10378000400313607B685B7E012B17D1FA7A1346E6
:103790009B0013449B001A46FB68134408331968C6
:1037A000FA7A13469B0013449B001A46FB681344A5
:1037B00008331A4641F08003136016E0FA7A134684
:1037C0009B0013449B001A46FB6813440833196896
:1037D000FA7A13469B0013449B001A46FB68134475
:1037E00008331A4621F0800313607B689B7E002B10
:1037F00017D1FA7A13469B0013449B001A46FB68C4
:10380000134408331968FA7A13469B0013449B004B
:103810001A46FB68134408331A4621F0100313605C
:1038200016E0FA7A13469B0013449B001A46FB6885
:10383000134408331968FA7A13469B0013449B001B
:103840001A46FB68134408331A4641F0100313600C
:1038500000BF1837BD4680BD80B582B000AF78602C
:103860000B46FB70FB781946786800F0D1F80346E8
:10387000002B01D100BFFDE7FA7813469B001344EB
:103880009B001A467B68134408331968FA7813467C
:103890009B0013449B001A467B68134408331A4666
:1038A00041F02003136000BF0837BD4680BD80B5DE
:1038B00082B000AF78600B46FB70FB7819467868E1
:1038C00000F0A6F80346002B01D100BFFDE7FA780F
:1038D00013469B0013449B001A467B68134408332D
:1038E0001968FA7813469B0013449B001A467B68BC
:1038F000134408331A4641F00103136000BF083730
:10390000BD4680BD80B487B000AFF8600B467A60DA
:10391000FB7200237B6100233B617B68082B37D05F
:103920007B68082B4CD87B68022B03D07B68042B68
:1039300017D045E0FB681A68FB7A9B00796801FAAA
:1039400003F313403B61FA7A13469B0013449B0038
:103950001A46FB68134408331B6803F002037B61BB
:103960002FE0FB681A68FB7A9B00796801FA03F381
:1039700013403B61FA7A13469B0013449B001A469E
:10398000FB68134408331B6803F004037B6118E0F1
:10399000FB681A68FB7A9B00796801FA03F313400D
:1039A0003B61FA7A13469B0013449B001A46FB685E
:1039B000134408331B6803F008037B6101E0FFE751
:1039C000FDE73B69002B04D07B69002B01D001236C
:1039D00000E0002318461C37BD4680BC704780B409
:1039E00085B000AFF8600B467A60FB72FB68043369
:1039F0001A68FB7A9B00796801FA03F3F9680431CD
:103A000013430B6000BF1437BD4680BC70470000F5
:103A100080B485B000AF78600B46FB700123FB7368
:103A20007B68074A934204D1FB78042B01D9002319
:103A3000FB73FB7B18461437BD4680BC704700BF44
:103A40000004024080B582B000AF78607B68294AEC
:103A500093421CD07B68274A934245D87B68264A0C
:103A6000934238D07B68244A93423DD87B68234AEE
:103A7000934227D07B68214A934235D87B68204AFD
:103A800093420DD07B681F4A934212D02CE040F243
:103A90000E30FEF757FD40F20E30FEF775FD24E0C4
:103AA00040F21140FEF74EFD40F21140FEF76CFD72
:103AB0001BE040F21240FEF745FD40F21240FEF7D7
:103AC00063FD12E040F21340FEF73CFD40F213406C
:103AD000FEF75AFD09E040F21440FEF733FD40F2D4
:103AE0001440FEF751FD00E000BF00BF0837BD469F
:103AF00080BD00BF0038014000500040004C004035
:103B0000004400400048004080B586B000AF7860B7
:103B1000396000237B6100233B610023FB600023AD
:103B2000BB607B682B4A93421CD07B68294A934236
:103B300031D87B68284A934228D07B68264A934232
:103B400029D87B68254A93421BD07B68234A93423D
:103B500021D87B68224A934209D07B68214A93424C
:103B60000AD018E00320FEF7F9FE786114E0022085
:103B7000FEF7F4FE78610FE00220FEF7EFFE7861B9
:103B80000AE00220FEF7EAFE786105E00220FEF777
:103B9000E5FE786100E000BF3B685A087B691A4483
:103BA0003B68B2FBF3F3BB60BA684FF6F0731340A7
:103BB0003B61BB6803F00F03FB603A69FB6842EAB4
:103BC00003017B6808331A468BB2136000BF1837B5
:103BD000BD4680BD0038014000500040004C004010
:103BE000004400400048004080B483B000AF7860DB
:103BF00039607B680C331B687A680C3223F4C0632D
:103C000013607B680C331A687B680C3319463B6879
:103C100013430B6000BF0C37BD4680BC704780B4B7
:103C200083B000AF786039607B680C331B687A68BA
:103C30000C3223F4805313607B680C331A687B6862
:103C40000C3319463B6813430B6000BF0C37BD466D
:103C500080BC704780B483B000AF786039607B6807
:103C600010331B687A68103223F4405313607B686A
:103C700010331A687B68103319463B6813430B6096
:103C800000BF0C37BD4680BC704780B483B000AF26
:103C900078607B680C331B687A680C3243F40053FD
:103CA000136000BF0C37BD4680BC704780B485B040
:103CB00000AF786039600023FB607B680C331B68C1
:103CC000FB60FB6823F00803FB60FA683B68134362
:103CD000FB607B680C331A46FB68136000BF143727
:103CE000BD4680BC704780B485B000AF7860396055
:103CF0000023FB607B680C331B68FB60FB6823F0D0
:103D00000403FB60FA683B681343FB607B680C3379
:103D10001A46FB68136000BF1437BD4680BC70476D
:103D200080B483B000AF78600B467B807B887A6874
:103D30000432C3F30803136000BF0C37BD4680BCD8
:103D4000704780B483B000AF78607B6804331B6831
:103D50009BB2C3F308039BB218460C37BD4680BC28
:103D6000704780B483B000AF786039607B681433EB
:103D70001B687A68143223F4807313607B681433F1
:103D80001A683B6803F480737968143113430B603D
:103D900000BF0C37BD4680BC704780B483B000AF15
:103DA000786039607B6814331B687A68143223F4B6
:103DB000007313607B6814331A683B6803F4007364
:103DC0007968143113430B6000BF0C37BD4680BCCB
:103DD000704780B483B000AF78600B46FB70FB780F
:103DE0009A097B6813441A68FB7803F01F0322FAD0
:103DF00003F303F00103002B01D0012300E00023B3
:103E000018460C37BD4680BC704780B483B000AF05
:103E1000786039603B689B09C3F309027B681344EF
:103E20001A683B6803F01F03012101FA03F33968A4
:103E30008909C1F309007968014413430B6000BF8D
:103E40000C37BD4680BC704780B485B000AF786049
:103E500039600023FB600023BB603B689B09C3F310
:103E600009027B6813441A683B6803F01F030121B1
:103E700001FA03F31340FB603B689A0D7B6813441F
:103E80001A683B681B0C03F01F03012101FA03F3BE
:103E90001340BB60BB68002B04D0FB68002B01D033
:103EA000012300E0002318461437BD4680BC70474C
:103EB00080B483B000AF786039603B681B0C03F0BE
:103EC0001F03012202FA03F33A68910D7A680A444B
:103ED000DB43136000BF0C37BD4680BC7047000059
:103EE00080B400AF034B4CF6CC421A6000BFBD4615
:103EF00080BC70470030004080B400AF034B4AF6EE
:103F0000AA221A6000BFBD4680BC70470030004046
:103F100080B485B000AF03460A46FB8013467B7130
:103F2000204BFB600023BB601F4B45F255521A60CB
:103F30001E4B1B6803F00103BB60FB68013BFB6089
:103F4000FB68002B02D0BB68002BF1D1BB68002BB3
:103F500001D0002321E0164A7B791360114BFB60EE
:103F6000124B1B6803F00203BB60FB68013BFB6064
:103F7000FB68002B02D0BB68002BF1D1BB68002B83
:103F800001D0002309E0FB880A4AC3F30B03136046
:103F9000054B4AF6AA221A60012318461437BD467B
:103FA00080BC7047FFFF0F00003000400C30004025
:103FB000043000400830004080B485B000AF786025
:103FC000084B1B68FB60FB6823F00703FB60054997
:103FD000FA687B6813430B6000BF1437BD4680BC92
:103FE000704700BF0020024080B483B000AF78600B
:103FF000054A7B6843F0BF6343F40033D36000BFDE
:104000000C37BD4680BC704700ED00E080B586B03F
:1040100000AF0346FB710B46BB7113467B71002357
:10402000FB6000237B6100233B61364BDB6803F4BC
:10403000E063B3F5E06F15D0B3F5E06F2BD8B3F5BF
:10404000C06F14D0B3F5C06F25D8B3F5A06F13D0EF
:10405000B3F5A06F1FD8B3F5407F17D0B3F5806FCD
:104060000FD018E000237B6104233B611CE0012397
:104070007B6103233B6117E002237B6102233B61E9
:1040800012E003237B6101233B610DE004237B618C
:1040900000233B6108E04FF4A060FFF7A5FF022377
:1040A0007B6102233B6100BFBA797B69C3F10403E2
:1040B00002FA03F3FB607A793B69C3F104030F2131
:1040C00021FA03F31340FA681343FB60FB681B01FA
:1040D000FB600D4AFB79F968C9B213440A4683F8BC
:1040E0000023FB7903F01F030749FA795209D2B282
:1040F0001046012202FA03F341F8203000BF1837BE
:10410000BD4680BD00ED00E000E100E080B500AFFD
:104110000020FEF701FC00BF0020FEF749FB03462C
:10412000002BF9D00020FEF777FA4FF48060FEF7FD
:104130008BFA0020FEF7A0FA0F490020FEF7B4FA30
:104140001820FEF7E9FB00BF1820FEF731FB0346FD
:10415000002BF9D00220FFF72FFF0220FEF738FADC
:1041600000BFFEF74DFA0346082BFAD1034B044A71
:104170001A6000BF80BD00BF0000040810000020CE
:1041800000A24A0480B500AFFFF7C0FF00BF80BDAA
:10419000002103E00B4B5B58435004310A480B4BA2
:1041A00042189A42F6D30A4A02E00023136004320E
:1041B000084B9A42F9D3FFF7E5FF00F0AFFAFBF79F
:1041C000B7FF7047B8A5000800000020DC01002000
:1041D000DC01002038050020FEE7000030B51B4C54
:1041E000002924689BB02BDB4FF000050090049061
:1041F0004FF402701995ADF80C004FF6FF7511D011
:1042000001390291059120466946ADF80E5000F043
:104210006DF9421C01DA8B2323600022009B1A7087
:104220001BB030BD0291059120466946ADF80E5095
:1042300000F05CF9431C01DA8B2323601BB030BD16
:104240008B234FF0FF302360F8E700BF14000020FD
:1042500030B51446002C05469BB02CDB1A46009165
:104260004FF4027304914FF000014FF6FF7C199157
:10427000ADF80C3011D0013C69461E9B02940594A8
:10428000ADF80EC000F032F9421C01DA8B232B602E
:104290000022009B1A701BB030BD1E9B6946029421
:1042A0000594ADF80EC000F021F9431C01DA8B2310
:1042B0002B601BB030BD8B234FF0FF302B60F8E735
:1042C00020F0030110F00300C0F1000051F8043B9E
:1042D00000F1040C4FEACC0C6FF000021CBF22FA74
:1042E0000CF213434FF0010C4CEA0C2C4CEA0C4C32
:1042F000A3EB0C0222EA030212EACC1204BF51F82B
:10430000043B0430F4D0C2F1000102EA0102B2FA27
:1043100082F2C2F11F0200EBD20070472DE9F04794
:104320001D468F680C46AF4216460B6836D8B1F969
:104330000CC01CF4906F0ED13D46184631462A46FB
:1043400002F004F90020A368DF1B2368A7602B4458
:104350002360BDE8F0874A69096902EB42025F1AEF
:1043600002EBD2726B1C52103B44934292BF9146B7
:1043700099461A461CF4806F804611D0114601F010
:104380000FF8824600B33A46216902F0A3FAA389E6
:1043900023F4906343F08003A38105E02F46CCE72C
:1043A00002F058FB824658B10AEB0703A9EB070756
:1043B000A760C4F810A02F46C4F814902360BCE78F
:1043C0004046216902F064F80C22A3894FF0FF30C7
:1043D00043F04003C8F80020A381BAE72DE9F04F6D
:1043E000936883B0924617680190002B76D04FF007
:1043F000000B0C465D468B680A6848E0B4F90CC0B7
:104400001CF4906F2FD0D4E90403A2EB000803EB57
:10441000430202EBD27208F1010152102944914289
:1044200092BF914689460A461CF4806F39D01146E6
:10443000019800F0B5FF064600283DD042462169AC
:1044400002F048FAA28922F4906242F08002A2812E
:1044500006EB0800A9EB08022661A8462E46A260DA
:104460002060C4F814903246594602F06FF8DAF82A
:104470000810A3682268A3EB08033244491BA36019
:104480002260CAF8081049B3D7E900B50837984642
:104490001046002DF8D09D421E46AFD2A8462E46AB
:1044A000E1E70146019802F0D5FA06460028CFD18F
:1044B0000198216901F0ECFF0C21A389019D43F0D3
:1044C000400329600022A3814FF0FF300023CAF887
:1044D0000820CAF8043003B0BDE8F08F00200023A4
:1044E000CAF8043003B0BDE8F08F00BF2DE9F04FEB
:1044F0001C468B8989461D06824693469DB003D58E
:104500000B69002B00F0EE80002343F22002099398
:104510009BF8003001277C4E0394ADF82920002B36
:1045200071D05D4603E015F8013F002B73D0252BB9
:10453000F9D1B5EB0B0471D12A78002A63D000239E
:104540004FF0FF320135CDE90523049307938DF831
:1045500053301A9306E02546049B801B07FA00F0AF
:10456000034304932C46052214F8011B304602F045
:1045700027FEA3460028EED1049BD90644BF202283
:104580008DF853201A0748BF2B22297848BF8DF891
:1045900053202A294FD1039A11680432002903922B
:1045A0007BDB079169782E295BD0584C032220468B
:1045B00002F006FE38B14022049B001B82401343E8
:1045C0000BF1010B04931BF8011B062250488DF8D8
:1045D000281002F0F5FD002865D04E4B002B55D079
:1045E00003A900914A4650464B4B04A900F010FC29
:1045F0008046B8F1FF3F06D0099B434409939BF8DE
:104600000030002B8DD1B9F80C305B0679D40998B5
:104610001DB0BDE8F08FB5EB0B04F4D023465A462D
:1046200049465046FFF77AFE0130ECD0099B2A78C4
:104630002344099381E7A1F13002092A88BFAB46E0
:10464000B1D8079B00E00134217803EB830302EB30
:104650004303A1F13002092AF5D92E29A346079375
:10466000A3D19BF801102A2927D1039B0BF102004B
:104670001A680433002A0393B8BF4FF0FF339BF846
:10468000021005928346B8BF05938EE7039B07335C
:1046900023F0070308330393AEE7494243F00203D4
:1046A000079104937EE703A900914A4650461A4BAE
:1046B00004A902F093FA80469BE70023A1F130029F
:1046C000092A0BF1010B05933FF66FAF1BF8011F91
:1046D00003EB830302EB4303A1F13002092AF5D96E
:1046E000059362E7402100F05BFEC9F80000C9F8BD
:1046F000100018B14023C9F8143005E70C23CAF89C
:1047000000304FF0FF3083E700A2000808A2000845
:104710000CA20008114E00081D43000870B50F4B95
:104720000F4DAB42A3EB050607D00024B61055F899
:10473000043B01349847A642F9D805F02DFF094DF6
:10474000094B5E1BAB424FEAA60606D0002455F883
:10475000043B01349847A642F9D870BD0000000020
:10476000000000000000000000000000036A70B5B7
:1047700006460D468468002B38D0A3891B0714D544
:10478000236993B1013DA36815F8011F013BA360A4
:10479000D9B1002B04DAA2699A420FDC0A290DD0A4
:1047A00023685A1C22601970EDE72146304602F05A
:1047B0002FF80028E6D04FF0FF3070BD224630467B
:1047C00002F0F6FE0130DED1F5E7002B08DA2246D2
:1047D0000A21304602F0ECFE0130ECD00A2070BD18
:1047E0000A222368591C21601A70F7E700F0F4F8D8
:1047F000C3E700BF024B01461868FFF7B7BF00BF11
:104800001400002000207047024A0349034801F0C9
:10481000DDBF00BF64000020DD4B00081800002051
:104820000C4B416810B59942044601D000F0D6F90E
:10483000A168094B994202D0204600F0CFF9E16807
:10484000064B994204D02046BDE8104000F0C6B99E
:1048500010BD00BFEC03002054040020BC04002065
:10486000002070472DE9F84300250423294C2A49EC
:104870000822C4F8381104F15C002946DFF89C9046
:10488000DFF89C80274F284EC4E90335C4E9005562
:10489000C4E90555A560656600F0C6F8234B0822FB
:1048A000294604F1C4006367C4E90849C4E90A87DA
:1048B000C4E91A55C4E91E5526632567C4F8CC50CF
:1048C000C4F8805000F0B0F8194B2946C4F8DC3029
:1048D000082204F1680304F59670C4F88830C4E92E
:1048E0002398C4E92576C4E93455C4E93855C4F899
:1048F000D850C4F83451C4F8E85000F095F804F1E9
:10490000D003C4E93D98C4E93F76C4F8F030BDE86F
:10491000F88300BFEC030020094800088D810008DF
:10492000B5810008F581000819820008090001001E
:1049300012000200F8B5254B0646D3F83831002B9B
:104940003CD0234FD7E90134013B04D51DE05A1C6C
:1049500004F1680419D0B4F90C50013B002DF6D1D4
:104960001C4B08222946C4E90155C4E90455E360FB
:1049700065662560A56104F15C0000F055F8C4E9A6
:104980000D55C4E912552046F8BD3D680DB12F46BE
:10499000D8E74FF4D671304600F002FD044680B1EE
:1049A00004230560294625460C304FF4D072A060E0
:1049B000636000F039F83C602F46C3E7FFF752FF11
:1049C000BFE70C2338603360DDE700BFEC03002055
:1049D000640000200100FFFF036A03B17047044B2D
:1049E000044AD3F838310262002BF7D13AE700BF0E
:1049F000EC03002021480008704700BF704700BF4B
:104A00000020024A024901F0E1BE00BF640000201C
:104A1000054800080020024A024901F0D7BE00BF45
:104A2000640000206148000870B5860747D0541E16
:104A3000002A3ED00346CAB201E0013C39D303F854
:104A4000012B9D07F9D1032C2CD9CDB205EB0525FF
:104A50000F2C1A4605EB054534D9A4F1100C2CF0A7
:104A60000F0603F1100EB6444FEA1C1CC2E90055B4
:104A7000C2E9025510327245F8D10CF1010214F06E
:104A80000C0F03EB021204F00F0C13D0ACF1040373
:104A900023F003030433134442F8045B9342FBD135
:104AA0000CF003042CB1C9B21C4403F8011BA3424F
:104AB000FBD170BD64461346002CF4D1F9E70346E0
:104AC0001446C0E7A446E1E7F8B5B1F90C300C464E
:104AD0001E07074639D44A68002A53DDE56A002DCF
:104AE00031D000223E683A6013F48052216A55D1D9
:104AF00001233846A847451C024663D0B4F90C3060
:104B0000E56A216A580705D56368D21A636B0BB151
:104B1000236CD21A00233846A847421C40D00022FA
:104B2000236962602360A389DB0400D56065616B43
:104B30003E6041B104F14403994202D0384601F08D
:104B4000A7FC002363630020F8BD0E69002EFAD095
:104B50009B0718BF00230D6808BF4B690E60AD1B93
:104B60008B600CE02B463246D4F828C03846216AC8
:104B7000E047B0F1000CA5EB0C05664406DD002D06
:104B8000F0DCE0E70A6C002AA8DCDCE7B4F90C30C2
:104B900043F040034FF0FF30A381F8BD626DB1E7F1
:104BA0003968B4F90C301D29F2D80B4ACA40D50730
:104BB000EED50022626022692260DA04B7D50029AE
:104BC000B4D0B4E73B68002B98D01D2B01D0162B36
:104BD000DCD13E60B7E700BF010040200B69B3B1F4
:104BE00010B5044682B008B1036A5BB1B1F90C306C
:104BF00013B9002002B010BD204602B0BDE810403D
:104C0000FFF762BF0191FFF7E7FE0199EEE7002091
:104C1000704700BFB8B138B50D4A0369044615683E
:104C20002BB10DB12B6A53B1B4F90C300BB9002084
:104C300038BD21462846BDE83840FFF745BF284625
:104C4000FFF7CAFEF0E7034A0349044801F0BEBD7E
:104C50001400002064000020DD4B00081800002034
:104C60002DE9F04D002B88B014461D46109E129978
:104C7000DDF8508041DB0022B8F1650F0A7039D0B1
:104C800040DCB8F1450F35D0B8F1460F5FD10323B2
:104C90000093139B2246CDE9016307AB049306AB57
:104CA00003932B4600F09AFC074628F02003462B7E
:104CB00007EB060805D13B78302B3CD0139B1E68D0
:104CC000B044204629460022002304F0FFFA0028C1
:104CD0003BD1079B984506D930215A1C0792197081
:104CE000079B4345F9D33846159ADB1B136008B080
:104CF000BDE8F08D02230136CAE703F1004B2D22F7
:104D00005D46B9E7B8F1660FC1D0139B2246CDE9E5
:104D100001630223009307AB049306AB03932B4676
:104D200000F05CFCB8F1670F0746BED1119BDB07B2
:104D300021D4079BD7E7002200232046294604F010
:104D4000C5FAD8B1139B1B6898444346CBE7139B25
:104D50002246CDE901630223009307AB049306AB1F
:104D600003932B4600F03AFCB8F1470F07469CD15D
:104D7000119BDB07DDD507EB0608A2E7139BC6F105
:104D800001061E609CE700BF0029B4BF2D232B2322
:104D900030B5B8BF4942092983B0027043702CDD99
:104DA0000DF107042346194D8C461A46A5FB01E375
:104DB000DB0803EB830EA1EB4E0101F1300EBCF1D9
:104DC000630F194602F801EC02F1FF33ECDC3031DD
:104DD00003F8011C931EA34200F102050AD2411CF4
:104DE00013F801CBA34201F801CFF9D10DF109036A
:104DF0009B1A1D44281A03B030BD3023051D1944E9
:104E0000C1708370281A03B030BD00BFCDCCCCCCAC
:104E10002DE9F04F91B00C46DDF8688016461F462C
:104E2000054603F007FA036818460A93FFF748FAA5
:104E300000230E93D8F800300B90073323F00703BC
:104E400003F10802D4F800A094F818B0C8F80020C4
:104E5000D3E9008929F000430993CDF820804FF071
:104E6000FF32DDE90801C4E91289A04B04F060FAC1
:104E700040B9DDE908014FF0FF329C4B04F03AFAEB
:104E8000002877D042464B464046494604F050FA47
:104E9000002840F03B8263684AF480615A1C0BF0A2
:104EA000DF0A35D0BAF1470F00F028810093216066
:104EB0000191002106910EA905910DA903910DF113
:104EC000330142464B462846CDF810B00291FFF719
:104ED000C7FE8046BBF1650F0D993AD9BBF1660F4D
:104EE00000F02E810E9B8B4240F335810029CCBF10
:104EF0000122C1F10202134423614FF0000AA165AF
:104F00009DF83330002B4DD02D2384F8433049E0F9
:104F1000216001910021062006910EA9CDF810B064
:104F2000606005910DA903910DF133014246009097
:104F30004B4628460291FFF793FEBAF1470F804691
:104F4000C8D10D99C81C80F2F480ABF1020B5FFA56
:104F50008BFB5A46013904F150000D91FFF714FF05
:104F60000E9A82461318012A236140F342810133CD
:104F70002361C5E7404649460022002304F0B0F90A
:104F800010B12D2384F843302AF004032360032357
:104F9000574A2361574B4FF0000ABBF1470F8CBFB4
:104FA0009046984633462146284600970FAA01F0BE
:104FB00083FD013023D0236858052BD44246314667
:104FC00028462369B847013019D022689207E06863
:104FD0000F9B19D5984217DD4FF0000804F119090D
:104FE00004E0E0680F9BC21A42450DDD01234A46EA
:104FF00031462846B847013008F10108F1D14FF099
:10500000FF3011B0BDE8F08F9842B8BF184611B01C
:10501000BDE8F08FBBF1650F33D9D4E9120100224E
:10502000002304F053F9002800F09D80012331464D
:105030002846314AB8470130E1D0DDE90D3A534501
:1050400002DB2268D107C1D5DDE90A2331462846B3
:10505000B8470130D3D0BAF1010FB6DD4FF00008E8
:105060000AF1FF3A04F11A0901E0D045ADD001235D
:105070004A4631462846B847013008F10108F4D1C4
:10508000BDE7DDF83890B9F1010F40F39D800123B1
:10509000424631462846B8470130B0D0DDE90A2300
:1050A00031462846B8470130A9D0D4E91201002280
:1050B000002309F1FF3B04F009F9002800F09E806D
:1050C000B9F1010F40F38B804FF0000804F11A0989
:1050D00002E0D84500F0838001234A463146284645
:1050E000B847013008F10108F3D188E7FFFFEF7FEF
:1050F00018A2000814A2000824A200080BB901237A
:105100006360009321600191002106910EA9059131
:105110000DA903910DF13301424602914B462846F9
:10512000CDF810B0FFF79CFD0D998046C81CFFF626
:105130000CAF636899423FF708AF4FF0670BD1E6B9
:10514000002963685EDD2161002B00F08D80013352
:105150000B442361D1E623682161DB077FF5CDAEE7
:105160004B1C2361C9E60D9B002B52DD0E9BD4F82E
:1051700058B099465B45A8BFD946B9F1000F0893CE
:1051800009DD4B46424631462846B84701303FF4D8
:1051900036AFD4F858B029EAE972934571DD4FF083
:1051A000000A934604F11A0904E0A36DA3EB0B0275
:1051B000524565DD01234A4631462846B84701304D
:1051C0000AF1010AF1D11AE7D9073FF560AF42466B
:1051D000012331462846B84701303FF410AF53460B
:1051E0003146284604F15002B84701307FF4EDAE55
:1051F00005E72268D2077FF583AEB8E65B4608F183
:105200000102E6E7002B34D12268D20731D4012312
:1052100072E60123314628464B4AB84701303FF435
:10522000EEAEDDE90D3A5AEA030324D0DDE90A23A4
:1052300031462846B84701303FF4E1AE0D9B002BC4
:1052400079DA4FF0000B04F11A0903E00D9B5B4281
:105250005B4570DD01234A4631462846B847013098
:105260000BF1010BF2D1CAE62268D0077FF545AEFB
:105270006DE7023340E62268D3077FF5A7AED5E796
:105280009B460D9B089A9A4202DC2268D00708D5FB
:10529000DDE90A2331462846B84701303FF4AFAE76
:1052A0000D9B089AA2EB0B0AD31A9A45A8BF9A46FF
:1052B000BAF1000F91460BDD53463146284608EB04
:1052C0000B02B84701303FF49AAE4A460D9BD31A01
:1052D0002AEAEA7A53457FF778AE4FF00008DDF806
:1052E00020B004F11A0907E00D9BABEB0303A3EB1D
:1052F0000A0343457FF769AE01234A4631462846F3
:10530000B847013008F10108EED178E64B46002B92
:10531000BCBF2D2384F843302AF004032360032309
:105320000A4A23610A4B4FF0000ABBF1470F8CBFBA
:105330009046984636E65346424631462846B84798
:1053400001307FF442AE5AE624A2000820A20008F1
:105350001CA2000870B5114E054633680C46BBB15F
:105360002146284602F000FF431C01460CD0C41C15
:1053700024F00304A04205D02846611A02F0F4FE8E
:10538000013001D0204670BD4FF0FF34204670BD83
:10539000194602F0E9FE3060E2E700BF2805002070
:1053A0002DE9F843CD1C25F0030508350C2D38BF39
:1053B0000C25002D064618DBA94216D8DFF8DC8044
:1053C00001F04EFDD8F80420A2B1144603E0636852
:1053D00022467BB11C4623685B1BF8D40B2B1FD8DD
:1053E0009442636854D053600CE00C233360002077
:1053F000BDE8F88329463046FFF7ACFF431C04465E
:1054000019D00560304601F02DFD04F10B00231D7D
:1054100020F00700C21A1CBF1B1AA350BDE8F88376
:1054200061199442256014BF5160C8F8041063519B
:1054300063684B60E6E7D8F804701FB33C467F68AA
:10544000002FFBD123683946304604EB030902F0F4
:105450008BFE814516D123683046ED1A2946FFF7A9
:1054600079FF01300ED02368D8F804202B44236044
:10547000536883B1A34203D01A465B689C42FBD1B8
:105480000023B0E70C233046336001F0EBFCAEE7BD
:10549000C8F80430B6E7C8F80470B3E72805002060
:1054A0002DE9F04F03690C6985B0A342C0F29180E9
:1054B0008146013C01F1140509F1140855F8243026
:1054C00058F824C001339C45BCFBF3F64FEA840036
:1054D00005EB840708EB840243D34FF0000CAA4687
:1054E000CDE90105C646634665469346CDF80C8076
:1054F0005AF8040BDEF800201FFA80FC06FB0C555E
:105500004FEA10484FEA154C06FB08CCADB290B2FA
:10551000401B18441FFA8CF3C3EB204303EB1243E8
:1055200080B240EA034057454EF8040B4FEA1C4551
:105530004FEA2343DCD2DDE90105DDF80C8058F8A1
:10554000003073B9ABF10402904504D307E09045F5
:1055500004F1FF3403D252F80439002BF7D0C9F814
:105560001040484602F09EFB00282EDB41460022F8
:1055700055F8040BD1F800C01FFA80FE1FFA8CF317
:10558000A3EB0E031344020CC2EB234202EB1C42BA
:105590009BB243EA0243AF4241F8043B4FEA224246
:1055A000E6D258F8242008EB84036AB9043B43454B
:1055B00004D807E0984504F1FF3403D253F80429D6
:1055C000002AF7D0C9F810400136304605B0BDE8D2
:1055D000F08F002005B0BDE8F08F00BF2DE9F04F3F
:1055E00016461F46C5699DB0CDE90667299C039004
:1055F000002D00F0B283296851B101236A689340FD
:105600004A608B6002F088F80022039BDB691A6015
:10561000B7F10009B4BF012300232360784BBCBF5E
:1056200029F00049CDF81C9033EA090300F0AE8060
:10563000DDE906341846214600220023CDE90401A5
:1056400003F044FE804668B10123289A13602A9B28
:1056500013B16C4B2A9A13606B4B089308981DB0DA
:10566000BDE8F08F1AAB01931BAB00930398DDE903
:10567000042302F075FC5FEA1955824640F09C80D5
:10568000DDE91A85454405F23243202B40F3998326
:10569000C3F1400309FA03F905F2124326FA03F3B2
:1056A00049EA030003F030FB0123013D1193A1F10E
:1056B000F8710022554B03F0E9F94BA3D3E900231D
:1056C00003F09CFB4AA3D3E9002303F0E1F906466B
:1056D00028460F4603F028FB47A3D3E9002303F035
:1056E0008DFB02460B463046394603F0D1F906469B
:1056F0000F4603F033FE0022044609900023304693
:10570000394603F0EDFD002840F03483099CA8EBF6
:105710000508162C08F1FF3B00F21383DDE90401B4
:105720003B4B03EBC403D3E9002303F0D9FD00286E
:1057300074D0631E09930023BBF1000F1093C0F2D5
:10574000068300230B93099B002B6DDA099B0B9AB0
:105750000E93D21A5B420F9300230993269B0B9260
:10576000092B69D8052BC4BF043B2693269BC8BFD1
:105770000025A3F10203D8BF0125032B00F24C86BC
:10578000DFE813F07A0477046E04500442F20F73DA
:10579000289AC9F3130959EA060913601CD12A9BF8
:1057A000002B00F02F861B4B089308332A9A089889
:1057B00013601DB0BDE8F08FDDE90412C2F31303DE
:1057C000084643F07F51CDF84480A5F2FF35DDF85F
:1057D000688041F440116CE72A9B002B40F0FE8367
:1057E0000D4B08933AE700BF61436F63A787D23F31
:1057F000B3C8608B288AC63FFB799F501344D33FC0
:105800000000F07F25A2000824A200080000F83F55
:1058100080A4000828A2000834A20008B8F1000FF4
:1058200040F3AF8410900B90099B9B440E93002390
:105830000F93269B092B95D9002326934FF0FF3316
:1058400001250A9300230C9527930021039BDB6914
:1058500059600A9B1893039801F01EFF08900028D6
:1058600000F0E385039B089ADB691A600A9B0E2B04
:1058700000F20D81002D00F00A810E99002940F3FD
:105880004E84AE4B01F00F0203EBC2030A46D3E98C
:105890000067D2054FEA211540F11084DDE90401CB
:1058A000A74B4FF00309D3E9082303F0D1FBCDE95F
:1058B000120105F00F058DB1DFF88482EB0709D5E1
:1058C000D8E900233046394603F098FA06460F46D9
:1058D00009F101096D1008F10808EFD1DDE91201A5
:1058E0003B46324603F0B4FB07468846109B43B163
:1058F000002238464146934B03F0F2FC002840F06A
:105900001285484603F010FA3A46434603F076FA09
:105910008D4B002203F0BCF80A9B0446A1F15075A0
:10592000002B00F09D800E9B19930A9B1293414619
:10593000384603F013FD1299804BCDE9144503EB73
:10594000C10353E902340546CDE9163403F0ECF9FE
:105950000B4602464146384603F098F8089F0C9BD8
:1059600030357E1CECB2804689463546002B00F06F
:105970006B84DDE916230020744903F069FBDDE93F
:10598000142303F083F83C7042464B4604460D4610
:1059900003F0C4FC002840F0B984CDF858B0CDF82D
:1059A00050A0AB460027A246129D2AE00137AF4225
:1059B00080F20185504659460022654B03F01EFADD
:1059C0000022634B82468B464046494603F016FA56
:1059D0008946804603F0C2FC044603F0A5F902465E
:1059E0000B464046494603F051F8303452465B4678
:1059F00006F8014B8046894603F072FC002840F00F
:105A0000D78442464B4600204E4903F03FF85246A9
:105A10005B4603F065FC0028C8D0199B3746DDF8CB
:105A200050A0089A03F1010802E0974200F0A18417
:105A30003E4617F8013D392BF7D00133DBB245461E
:105A40003B706DE1484603F06FF93A46434603F078
:105A5000D5F900223C4B03F01BF80446A1F1507528
:105A6000384600223B4B414603F010F822462B46B5
:105A700006460F4603F052FC002840F08984304669
:105A80003946224605F1004303F02AFC28BB1B9B44
:105A9000002BC0F291800E9A0E2A00F38D80274BC6
:105AA0000E9A03EBC203D3E90034CDE90634279BF9
:105AB000002B19DA0A9B002B16DC0ED1DDE906015A
:105AC0000022244B03F09AF902460B46DDE904015B
:105AD00003F010FC002800F05B8400231F46089EA2
