:020000040800F2
:1000000000C00020D54E00081D4F00081D4F0008FD
:100010001D4F00081D4F00081D4F00080000000084
:100020000000000000000000000000001D4F00085C
:100030001D4F0008000000001D4F000815180008A3
:100040001D4F00081D4F00081D4F00081D4F0008E0
:100050001D4F00081D4F00081D4F00081D4F0008D0
:100060001D4F00081D4F00081D4F000831180008E3
:100070001D4F00081D4F00081D4F00081D4F0008B0
:100080001D4F00081D4F00081D4F00081D4F0008A0
:100090001D4F00081D4F00081D4F00081D4F000890
:1000A0001D4F00081D4F00081D4F00081D4F000880
:1000B0001D4F00081D4F00081D4F00081D4F000870
:1000C0001D4F00081D4F00081D4F00081D4F000860
:1000D0001D4F00081D4F00081D4F0008D1320008B9
:1000E0001D4F00081D4F00081D4F00081D4F000840
:1000F0001D4F00081D4F00081D4F00081D4F000830
:100100001D4F00081D4F00081D4F00081D4F00081F
:100110001D4F00081D4F00081D4F00081D4F00080F
:100120001D4F00081D4F00081D4F00081D4F0008FF
:1001300080B500AF00F02AF80F4805F0FDF900F097
:100140007DFB0E4805F0F8F906E000F07FFA0A2082
:1001500001F05AF904F004FE094B1B79002BF4D08E
:10016000022000F02DFD074B01221A70064805F011
:10017000E3F900F05DF8FCE7C4A6000808A7000852
:10018000DC010020EE01002028A7000880B500AFA8
:100190004FF4E13001F08CFC01F046F801F088F8F2
:1001A00001F0ACF800F002FD03F0D0F803F0E6F83F
:1001B00001F0D0F801F0E8F801F0FEF800F052FE8E
:1001C00000F020F80A4805F0B7F90A4805F0B4F93C
:1001D000094805F0B1F94FF47A51084807F014FFC7
:1001E000034805F0A9F9064B00221A7000BF80BD34
:1001F0004CA7000870A7000894A70008A4A700084F
:10020000EE01002080B400AF034B00221A7000BF43
:10021000BD4680BC704700BFED01002080B400AF38
:10022000024B1B781846BD4680BC7047ED0100208C
:1002300080B582B000AF01F001F9786000F010FDE8
:10024000394B1B687A68D31A042B69D9364A7B6804
:10025000136000F077F800F035F900F0F7F900F0DE
:100260009DFE0346314A936000237B8000233B8040
:100270002E4BB3F900002D4BB3F902103B46BA1CCC
:1002800000F0B4FE294B1B79012B14D1284B1B78AD
:10029000002B10D1B7F90230184600F013FEB7F961
:1002A0000030184600F02EFE012000F04BFE214BDE
:1002B00002221A7005E0002000F044FE1D4B0122CE
:1002C0001A70B7F90230002BB8BF5B429BB2322BD9
:1002D00007D8B7F90030002BB8BF5B429BB2322B76
:1002E00003D9154B00221A6004E0134B1B6801333D
:1002F000114A136000F01EFA104B1A68531C0F4984
:100300000B600F4BA3FB02139B09C82101FB03F3F6
:10031000D31A002B01D100F03BFB04F021FD00E0DB
:1003200000BF0837BD4680BDF0010020DC01002081
:10033000EC010020EE010020E8010020F401002083
:100340001F85EB5180B582B000AF0023FB71FFF732
:1003500065FF0346002B3FD04A4B9B684FF07E5110
:1003600018460AF061F90346002B19D0454B9B68EB
:10037000184609F07DFB02460B46434807F044FE51
:10038000FB7943F00103FB713E4B9B683F491846E4
:100390000AF04AF90346002B1ED000F0AFFA1BE02A
:1003A000384B9B684FF0804118460AF03DF90346F0
:1003B000002B11D0364B1A68531C35490B60354B56
:1003C000A3FB02135B09642101FB03F3D31A002B87
:1003D00002D1032000F0F4FB00F0EAFD38602E4962
:1003E00038680AF03FF90346002B0BD0386809F053
:1003F0003FFB02460B46294807F006FEFB7943F017
:100400000203FB71264B1B780A2B09D9254805F0FE
:1004100093F8FB7943F00803FB71234B03221A7016
:10042000224B1B68224A934204D9224805F084F8E3
:1004300000F064FA204B1B78012B06D11F4805F011
:100440007BF8FB7943F01003FB71FB79002B0FD095
:100450001B4B1B78FA799A4206D1114B1B7801335A
:10046000DAB20F4B1A7006E00D4B01221A7002E04F
:100470000B4B00221A70124AFB79137000BF083729
:10048000BD4680BDDC010020BCA70008000080BF85
:10049000F80100201F85EB510000A041E4A70008EF
:1004A000FC01002008A80008EE010020E80100205F
:1004B000C0D401001CA80008EC01002040A80008DE
:1004C000FD01002090B583B000AF01F0C5F901F047
:1004D0004FFA0346FB8001F053FA0346BB8001F05C
:1004E00057FA0346FB70524BB3F90030184609F037
:1004F000A9FE03464F49184609F0F8FE03461C467C
:10050000B7F90630184609F09DFE03464A491846D9
:1005100009F0ECFE03461946204609F0DFFD0346CC
:1005200018460AF0A9F803461AB2414B1A80434B09
:10053000B3F90030184609F085FE03463D491846D8
:1005400009F0D4FE03461C46B7F90430184609F0FA
:1005500079FE03463849184609F0C8FE0346194695
:10056000204609F0BBFD034618460AF085F803460D
:100570001AB2324B1A802E4BB3F90030002BB8BFA1
:100580005B429BB2132B02D8294B00221A802B4BC3
:10059000B3F90030002BB8BF5B429BB2132B02D8DB
:1005A000264B00221A80224BB3F9003013F57A7FD4
:1005B00009DB1F4BB3F90030B3F57A7FA8BF4FF4C6
:1005C0007A731BB200E01E4B1E4A13801B4BB3F91B
:1005D000003013F57A7F09DB184BB3F90030B3F51F
:1005E0007A7FA8BF4FF47A731BB200E0144B154A10
:1005F0005380FB78012B02D1124B01221A7101F0BA
:10060000DBF90346002B0CBF01230023DBB21A46A3
:100610000D4B1A700C4B1B78012B05D1094B002296
:100620001A80084B00225A8000BF0C37BD4690BD8F
:10063000FE010020CDCC4C3FCDCC4C3E0002002032
:1006400018FCFFFFDC010020EC01002080B582B027
:1006500000AF4FF400512F4802F07DFF0346002BFE
:1006600014BF01230023DBB2FB71FB79012B1BD1EB
:10067000294B1B78002B07D100F0E0FE0346274AE8
:100680001360254B01221A7000F0D8FE0246234B5E
:100690001B68D31A40F6B832934237D9204804F089
:1006A0004BFF00F02BF931E01B4B1B78012B2DD1B8
:1006B00000F0C4FE0246194B1B68D31A3B603B682E
:1006C000B3F57A7F1FD2174B1B79002B0CBF012388
:1006D0000023DBB21A46134B1A71124B1B79002B05
:1006E00001D0114B00E0114B1946114807F08CFC6A
:1006F0000C4B1B79002B03D0022000F061FA02E0C2
:10070000012000F05DFA044B00221A7000BF083788
:10071000BD4680BD001001400202002004020020FE
:1007200054A80008DC01002068A800086CA8000894
:1007300070A8000880B500AF3B4B1B78032B6BD82B
:1007400001A252F823F000BF5907000885070008EE
:10075000B3070008BD070008344B1A68344BA3FBED
:1007600002135B09642101FB03F3D31A312B04D874
:100770000421304802F0D1FE4EE004212D4802F061
:10078000DBFE49E0294B1A682B4BA3FB02135B09E4
:100790004FF4FA7101FB03F3D31AF92B04D80421A7
:1007A000244802F0BAFE37E00421224802F0C4FED9
:1007B00032E004211F4802F0B0FE2DE01B4B1A6806
:1007C0001B4BA3FB02139B09C82101FB03F3D31AA4
:1007D000312B17D9154B1A68154BA3FB02139B0934
:1007E000C82101FB03F3D31A632B10D90F4B1A68EE
:1007F0000F4BA3FB02139B09C82101FB03F3D31A80
:10080000952B04D804210B4802F087FE03E0042155
:10081000084802F091FE00BF044B1B680133034AF5
:10082000136000BF80BD00BFEE0100200802002061
:100830001F85EB51000C0140D34D621080B582B092
:1008400000AF012000F07EFB0023FB7144E0FB7948
:1008500001339BB21A46920013441A4691001A467D
:100860000B4613449B009BB27B80FB7901339BB208
:100870001A46920013441A4691001A460B46134436
:100880005B00BB80BB88B3F5FA7F02D94FF4FA73E3
:10089000BB80B7F90230184600F014FBB7F90230FC
:1008A000184600F02FFB1021134802F036FEBB88DB
:1008B000184600F0A9FD10210F4802F03DFEBB884C
:1008C000B3F57A7F05D2BB88C3F57A73184600F07A
:1008D0009BFDFB790133FB71FB79092BB7D9002014
:1008E00000F0F0FA002000F00DFB002000F02AFBE1
:1008F00000BF0837BD4680BD0008014080B582B00A
:1009000000AF1D4804F018FE002000F01BFB04207F
:1009100000F056F94FF0804003F01DFA174803F03D
:100920001AFA174803F017FA164803F09BFE002343
:100930007B6010E00421144802F0EFFD642000F019
:1009400063FD0421104802F0F7FD642000F05CFD17
:100950007B6801337B607B68042BEBDD0B4804F084
:10096000EBFD02F021FD642000F04EFD4FF47A70A3
:1009700000F04AFDFAE700BF84A800080008004024
:10098000000C004000240140000C0140A4A8000815
:100990002DE9F04792B008AF2E4B1B783B722E4BDF
:1009A0009B68FB6000F004FB03463B6100F00AFB20
:1009B00003467B61294B9B783B7600F00DFB034699
:1009C000FB61274B9B7887F82030234BB3F900302D
:1009D0007B84214BB3F90230BB84224B1B68214A34
:1009E00012681946204807F00FFB3B7A9A46FB68CD
:1009F000184609F03DF8804689463B69184609F0DB
:100A000037F804460D467B69184609F035FE064660
:100A10003B7E7B60FB69184609F02EFE034697F883
:100A20002020B7F92210B7F924000790069105920B
:100A300004937B6803930296CDE9004542464B46FA
:100A400051460A4807F0E0FA00BF2837BD46BDE826
:100A5000F08700BFEE010020DC0100201C02002016
:100A60002802002010000020B4A80008D4A8000824
:100A700080B582B000AF0346FB71FB79012B04D136
:100A80001021064802F049FD03E01021034802F05E
:100A900053FD00BF0837BD4680BD00BF00080140C0
:100AA00080B500AF0020FFF7E3FF0A4B00221A6079
:100AB000084B00221A71074B00225A71054B002285
:100AC0009A71044B00229A60024B00221A7300BFF5
:100AD00080BD00BF0C02002080B582B000AF7860FE
:100AE0000A4A7B681360094B00221A71074B0022E7
:100AF0009A71064B01221A7300F0A0FC03461846B7
:100B000000F006F800BF0837BD4680BD0C0200208B
:100B100080B584B000AF7860194B1A68184B1B7908
:100B200019460B465B000B445B001344FB60FB68FB
:100B30001B88002B0AD1FB685B88002B06D1FB6861
:100B40001B79002B02D1FFF7ABFF16E0FB681B7986
:100B5000002B02D0FB681B7900E00123084A537187
:100B6000074B01229A710120FFF782FFFB681B8867
:100B70001A467B681344024A93601037BD4680BD15
:100B80000C02002080B582B000AF7860064B1B7964
:100B90000133DAB2044B1A717868FFF7B9FF00BF6E
:100BA0000837BD4680BD00BF0C02002080B500AFF5
:100BB0000020FFF75DFFFFF773FF00BF80BD00005F
:100BC00080B582B000AF0346FB71FB79013B092B76
:100BD0003ED801A252F823F0010C0008090C0008CD
:100BE000110C0008190C0008210C0008290C000841
:100BF000310C0008390C0008410C0008490C0008B1
:100C0000012000F0A7F827E0022000F0A3F823E07D
:100C1000052000F09FF81FE0062000F09BF81BE085
:100C2000072000F097F817E0082000F093F813E091
:100C3000092000F08FF80FE00A2000F08BF80BE09D
:100C40000B2000F087F807E00C2000F083F803E0A9
:100C5000002000F07FF800BF00BF0837BD4680BD10
:100C600080B582B000AF3A4B1B7B012B69D1384B6A
:100C70001B68002B65D000F0E1FB7860344B9B686B
:100C80007A68D31A002B5EDB314B1A68304B1B7924
:100C900019460B465B000B445B0013443B602C4B36
:100CA0009B79012B2DD10020FFF7E2FE3B685B888A
:100CB000002B1BD1264B5B79012B13D9244B5B797D
:100CC000013BDAB2224B5A71214B01229A71012069
:100CD000FFF7CEFE3B681B881A467B6813441C4A0C
:100CE000936031E07868FFF74DFF2DE0184B02224A
:100CF0009A713B685B881A467B681344144A936078
:100D000022E0134B9B79022B1ED1114B5B79012BF7
:100D100013D90F4B5B79013BDAB20D4B5A710C4B77
:100D200001229A710120FFF7A3FE3B681B881A4637
:100D30007B681344064A936006E07868FFF722FF59
:100D400002E000BF00E000BF0837BD4680BD00BF25
:100D50000C02002080B582B000AF0346FB71FB7926
:100D60000E2B5CD801A252F823F000BFA90D000899
:100D7000AF0D0008B70D0008BF0D0008C70D000833
:100D8000CF0D0008D70D0008DF0D0008E70D0008A3
:100D9000EF0D0008F70D0008FF0D0008070E000812
:100DA0000F0E0008170E0008FFF77AFE3AE01F4802
:100DB000FFF792FE36E01E48FFF78EFE32E01D4838
:100DC000FFF78AFE2EE01C48FFF786FE2AE01B484C
:100DD000FFF782FE26E01A48FFF77EFE22E0194860
:100DE000FFF77AFE1EE01848FFF776FE1AE0174874
:100DF000FFF772FE16E01648FFF76EFE12E0154888
:100E0000FFF76AFE0EE01448FFF766FE0AE013489B
:100E1000FFF762FE06E01248FFF75EFE02E0FFF712
:100E20003FFE00BF00BF0837BD4680BDBCA900081B
:100E3000C8A90008D4A90008E0A90008ECA9000886
:100E4000F8A9000864A900087CA900081CA90008EA
:100E500040A9000890A900089CA90008A8A90008BA
:100E600004AA000880B500AF134B00221A80124B71
:100E700000229A70104B0022DA700F4B4FF00002E4
:100E80005A600D4B4FF000029A600C4B00221A8002
:100E90000A4B00229A70094B0022DA70074B4FF080
:100EA00000025A60054B4FF000029A60044804F0BB
:100EB00043FB00BF80BD00BF1C02002028020020B1
:100EC00010AA000880B483B000AF0346FB80B7F9D6
:100ED000063013F57A7F08DBB7F90630B3F57A7F71
:100EE000A8BF4FF47A731BB200E0044B044A13808E
:100EF00000BF0C37BD4680BC704700BF18FCFFFF29
:100F00001C02002080B483B000AF0346FB80B7F919
:100F1000063013F57A7F08DBB7F90630B3F57A7F30
:100F2000A8BF4FF47A731BB200E0044B044A13804D
:100F300000BF0C37BD4680BC704700BF18FCFFFFE8
:100F40002802002080B582B000AF0346FB710D4A35
:100F5000FB791370FB79002B05D10B4B00221A8013
:100F60000A4B00221A80FB79002B01D0084B00E0CD
:100F7000084B1946084807F047F800BF0837BD4638
:100F800080BD00BF400200201C020020280200207B
:100F90002CAA000830AA000834AA000880B400AFC8
:100FA000024B1B681846BD4680BC704700000020FD
:100FB00080B400AF024B1B681846BD4680BC70472A
:100FC0003C02002080B400AF024B5B681846BD466F
:100FD00080BC70471C02002080B400AF024B5B68ED
:100FE0001846BD4680BC70472802002090B587B0E7
:100FF00000AFBA607B600346FB810B46BB81B7F94B
:101000000C30184609F01EF903465E49184609F0EF
:1010100021FA03467B61FB897B82B7F912301846BF
:1010200009F010F904464FF07E51786909F056F83E
:1010300003461946204609F059F903465249184615
:1010400009F0F2FA0346002B01D0504B30E0B7F91B
:101050001230184609F0F6F804464FF07E517869D0
:1010600009F03CF803461946204609F03FF90346CB
:101070004449184609F0F6FA0346002B02D04FF413
:101080007A7315E0B7F91230184609F0DBF8044618
:101090004FF07E51786909F021F803461946204641
:1010A00009F024F90346184609F0E6FA03461BB294
:1010B000BA681380B7F91230184609F0C3F804462D
:1010C00079694FF07E5009F007F80346194620462B
:1010D00009F00CF903462C49184609F0A5FA034615
:1010E000002B01D0294B30E0B7F91230184609F037
:1010F000A9F8044679694FF07E5008F0EDFF0346E9
:101100001946204609F0F2F803461E49184609F030
:10111000A9FA0346002B02D04FF47A7315E0B7F911
:101120001230184609F08EF8044679694FF07E5067
:1011300008F0D2FF03461946204609F0D7F80346C7
:10114000184609F099FA03461BB27A681380B7F97A
:101150000E30002BB8BF5B429BB2312B0DD8B7F9D4
:101160000C30002BB8BF5B429BB2312B05D8BB685B
:1011700000221A807B6800221A8000BF1C37BD46FF
:1011800090BD00BF00007A4400007AC418FCFFFF45
:1011900080B483B000AF03463960FB7197F9073024
:1011A000002B0BDA3B68DAB20C49FB7903F00F0332
:1011B000043B1201D2B20B441A7609E03B68DAB262
:1011C000074997F907301201D2B20B4483F8002384
:1011D00000BF0C37BD4680BC704700BF00ED00E08B
:1011E00000E100E080B582B000AF78607B68013B31
:1011F000B3F1807F01D301230FE00A4A7B68013BF2
:1012000053600F214FF0FF30FFF7C2FF054B002264
:101210009A60044B07221A60002318460837BD461F
:1012200080BD00BF10E000E080B500AF002002F0FC
:1012300025FC00BF002002F06DFB0346002BF9D017
:10124000002002F09BFA4FF4806002F0AFFA002019
:1012500002F0C4FA1249002002F0D8FA182002F075
:101260000DFC00BF182002F055FB0346002BF9D0FF
:10127000022003F0D5FD022002F05CFA00BF02F06C
:1012800071FA0346082BFAD1064B074A1A60054B40
:101290001B681946054806F0B7FE00BF80BD00BFB9
:1012A000000004081000002000A24A0448AA000818
:1012B00080B500AF0D4B1B680D4AA2FB03239B09B1
:1012C0001846FFF78FFF0346002B04D0094804F0AF
:1012D00033F900BFFDE700214FF0FF30FFF758FF63
:1012E000054804F029F900BF80BD00BF10000020B0
:1012F000D34D62106CAA000884AA000880B500AF24
:1013000040F2026002F0AEF940F2036002F0AAF986
:1013100040F2046002F0A6F94FF4C06002F0A2F9B6
:101320000121094802F02CF9084804F005F900F001
:101330008FF800F0C1F800F0D5F800F0FDF804488F
:1013400004F0FAF800BF80BD000230009CAA00083B
:10135000B0AA000880B500AF4FF4E06002F082F957
:1013600040F2027002F07EF940F2037002F07AF966
:1013700000F0FCF800F069F9024804F0DDF800BF65
:1013800080BD00BFC4AA000880B500AF40F209606C
:1013900002F068F94FF4A06002F064F9022002F054
:1013A00055FA00F0DBF900F0FBF9024804F0C4F84C
:1013B00000BF80BDDCAA000880B500AF40F61D105C
:1013C00002F07CFA0346002B04D002F095FA0B4899
:1013D00004F0B2F8022140F6FF7003F0CDFC0346A2
:1013E000012B04D0064804F0A7F800BFFDE703F086
:1013F000ABFC044804F0A0F800BF80BDF0AA0008D0
:1014000008AB000820AB000880B485B000AF78605E
:10141000094B1B68FB6001E000BF00BF064B1A6868
:10142000FB68D31A7A689A42F6D800BF00BF143717
:10143000BD4680BC704700BF4402002080B400AFAE
:10144000024B1B681846BD4680BC70474402002012
:1014500080B500AF4FF4E07303221821134801F068
:10146000B9FF832303221821114801F0B3FF4FF481
:101470008073032218210E4801F0ACFF4FF4005393
:10148000032218210B4801F0A5FF4FF4C06303228B
:101490001821074801F09EFF4FF440430322182112
:1014A000044801F097FF00BF80BD00BF001001405D
:1014B00000080140000C014080B500AFE02303228A
:1014C0000421064801F086FF4FF4E0530322042173
:1014D000034801F07FFF00BF80BD00BF000C01404A
:1014E0000010014080B500AF4FF4005303221021DB
:1014F0000E4801F06FFF4FF400510C4802F01CF849
:101500001023032210210A4801F064FF102108482B
:1015100002F012F8042303221021064801F05AFFBA
:101520000421044801F0F9FF00BF80BD0010014014
:1015300000080140000C014080B500AF04230322E5
:101540000021084801F046FF02230322002106483B
:1015500001F040FF0C2303220021034801F03AFF71
:1015600000BF80BD001001400008014080B58CB074
:1015700000AF4FF0804002F0A3FA00233B846023C9
:101580007B840023BB8440F6CA03BB620023BB8577
:10159000002387F82E3007F1200319464FF08040D2
:1015A00002F026FB0123BB800423FB8000233B8148
:1015B00008237B810023BB814FF40073FB813B1D1B
:1015C0001A4601214FF0804002F01AFC3B1D1A46DA
:1015D00002214FF0804002F013FC3B1D1A4603210C
:1015E0004FF0804002F00CFC702201214FF080404F
:1015F00002F0F4FD702202214FF0804002F0EEFD77
:10160000702203214FF0804002F0E8FD4FF40063A8
:101610003B8200237B823223BB820023FB824FF478
:1016200080433B8300237B830023BB8307F11003AC
:1016300019464FF0804002F0BBFB4FF0804002F0B3
:101640007BFB00BF3037BD4680BD80B500AF00F0EA
:1016500005F800F03DF800BF80BD000080B588B0FF
:1016600000AF1A4802F02CFA00233B8260237B82F1
:101670000023BB8240F6CA03BB610023BB83002367
:10168000BB7707F110031946104802F0B1FA0123A5
:10169000BB800423FB8000233B8108237B81002344
:1016A000BB814FF40073FB813B1D1A4603210748A1
:1016B00002F0A6FB70220321044802F08FFD0348CC
:1016C00002F03AFB00BF2037BD4680BD0008004055
:1016D00080B588B000AF204802F0F2F900233B82C9
:1016E00060237B820023BB8240F6CA03BB610023D8
:1016F000BB830023BB7707F110031946164802F09D
:1017000077FA0123BB800423FB8000233B8108235D
:101710007B810023BB814FF40073FB813B1D1A4684
:1017200001210D4802F06CFB3B1D1A4603210A48BB
:1017300002F066FB70220121074802F04FFD702283
:101740000321054802F04AFD034802F0F5FA00BF04
:101750002037BD4680BD00BF000C004080B500AF03
:101760000E4802F097FE002002F0D0FE00210B4848
:1017700002F042FF01224FF48071084802F0DEFEC1
:1017800000220121054802F0B9FF044802F052FF8F
:10179000024802F078FF00BF80BD00BF0024014076
:1017A00080B588B000AF0021164802F0ECFF00239E
:1017B000BB77154BFB6001237B774FF480633B6164
:1017C00003237B61114B7B6000233B774FF48073D5
:1017D000BB604FF40053BB613B1D1A460021094812
:1017E00003F038F80021074803F030F900210548DC
:1017F00003F057F9064802F070FF00BF2037BD46DE
:1018000080BD00BF00000240340200204C24014093
:101810000024014080B500AF044B1B680133034A2C
:10182000136003F09DFA00BF80BD00BF440200209A
:1018300080B500AF02220021064803F05DF903469F
:10184000002B04D002220021024803F0C2F900BF9D
:1018500080BD00BF0000024080B584B000AFFFF73C
:10186000EDFDB8602D4B1B68BA68D31A092B51D90E
:101870002A4ABB6813602A4B1B78032B4BD1294B98
:101880001B88FB80274B5B88BB80B7F90630184666
:1018900000F0DEF803461A46234B1A80B7F90430ED
:1018A000184600F0D5F803461A461F4B9A801E4B87
:1018B00000225A801C4B0022DA801B4B4FF47A72B4
:1018C0001A81194B00225A81174B00229A81164B1C
:1018D0000022DA81154ABB681360144B1B68BA6892
:1018E000D31AB3F57A7F11D9114B00221A70002355
:1018F000FB6007E00C4AFB68002122F81310FB682C
:101900000133FB60FB68072BF4DD04E0084B012288
:101910001A7000E000BF1037BD4680BD6002002095
:101920005D020020340200204802002058020020FE
:101930005C02002080B483B000AF0346FB71FB79EA
:10194000072B01D9002309E0074B1B78002B01D19D
:10195000002303E0FB79054A32F9133018460C37AF
:10196000BD4680BC704700BF5C02002048020020DA
:1019700080B500AF0220FFF7DDFF0346184680BDAB
:1019800080B500AF0020FFF7D5FF0346184680BDA5
:1019900080B582B000AF0420FFF7CCFF0346FB8088
:1019A000B7F90630B3F5FA7FCCBF01230023DBB2D1
:1019B00018460837BD4680BD80B400AF024B1B7887
:1019C0001846BD4680BC70475C02002090B482B0CF
:1019D00000AF0446084611461A462346FB800346DC
:1019E000BB800B467B8013463B80B7F90620B7F9D6
:1019F00000309A4215DAB7F90620B7F90430D31A45
:101A00004FF47A7203FB02F2B7F90010B7F9043011
:101A1000CB1A92FBF3F39BB2A3F57A739BB21BB282
:101A200010E0B7F90620B7F90030D31A4FF47A72F4
:101A300003FB02F2B7F90210B7F90030CB1A92FBA0
:101A4000F3F31BB218460837BD4690BC7047000040
:101A500080B582B000AF0346FB80094BB3F902109A
:101A6000074BB3F90420064BB3F90630B7F906006B
:101A7000FFF7ACFF034618460837BD4680BD00BFE0
:101A80000400002080B400AFBFF34F8F00BF064BAF
:101A9000DB6803F4E0620449044B1343CB60BFF3FB
:101AA0004F8F00BF00BFFDE700ED00E00400FA0526
:101AB00080B483B000AF7860144B1B68134A43F0C6
:101AC00008031360124B1B68114A43F48023136010
:101AD000104B00221A60104B1B6823F47F0323F481
:101AE0007F430D4A43F4964313600C4B4FF49C72B2
:101AF0001A60084B42F22C021A60094B80225A608D
:101B000000BF0C37BD4680BC704700BF18100240B4
:101B10001C1002400C480040040C014008480040E2
:101B200000E100E080B584B000AF78607B68002BF6
:101B30001ED0786803F066FAB8600023FB6012E0FC
:101B40007A68FB6813441B7819460B4803F074F855
:101B500000BF0721084803F090F80346002BF8D097
:101B6000FB680133FB60FA68BB689A42E8D300E087
:101B700000BF1037BD4680BD0048004080B584B02E
:101B800000AF78600B467B807B68002B1DD07B8884
:101B9000002B1AD00023FB8112E0FB897A681344E2
:101BA0001B7819460B4803F047F800BF0721094886
:101BB00003F063F80346002BF8D0FB890133FB8167
:101BC000FA897B889A42E8D300E000BF1037BD460F
:101BD00080BD00BF004800400FB480B5A2B000AF88
:101BE00007F194037B6007F108007B68D7F8902029
:101BF000802103F095F907F108031846FFF792FFDB
:101C000000BF8837BD46BDE8804004B07047000083
:101C100080B584B000AF0346FB71FB790D2B02D079
:101C2000FB790A2B27D12E4B1B88002B1FD02C4B66
:101C30001B881A462B4B002199542B4B01221A70FA
:101C40002A4B1B682A4AA2FB03239A09294B9B684B
:101C5000D31AFB60F9682848FFF7BEFF2148FFF759
:101C600061FF2648FFF75EFF1E4800F00BFC1C4B8F
:101C700000221A8030E0FB79082B02D0FB797F2B01
:101C80000DD1174B1B88002B26D0154B1B88013B11
:101C90009AB2134B1A801A48FFF744FF1CE0104B0E
:101CA0001B88FE2B18D80E4B1B885A1C91B20C4A6D
:101CB000118019460B4AFB795354FB799BB21946A4
:101CC000104802F0B9FF00BF07210E4802F0D5FF0F
:101CD0000346002BF8D0FFE700BF1037BD4680BD9C
:101CE000640300206402002066030020100000202E
:101CF000D34D621010E000E084AB000898AB000800
:101D0000A0AB00080048004080B584B000AF786008
:101D1000786805F065FB0346FB81B7F90E3013F5D3
:101D20007A7F08DBB7F90E30B3F57A7FA8BF4FF49E
:101D30007A731BB200E0024B18461037BD4680BDD7
:101D400018FCFFFF80B582B000AF78600B467B8047
:101D50007B881946786801F0FEFB0346002B0CBF18
:101D600001230023DBB218460837BD4680BD0000C2
:101D700080B582B000AF78600B467B8013467B70E5
:101D80007A887B7879680348FFF726FF00BF083719
:101D9000BD4680BDA4AB000880B588B000AFF86038
:101DA000B9607A60FB68002B01D1002398E0FB68E2
:101DB000FB6102E0FB690133FB61FB691B78202BAF
:101DC000F8D00023FB7600237B61FB691B78502B46
:101DD00003D0FB691B78702B11D1FB6901331B7891
:101DE000402B0CD9FB6901331B787A2B07D8FB6990
:101DF00001331B78FB76FB6902337B6110E0FB69E2
:101E00001B78402B0AD9FB691B787A2B06D8FB6913
:101E10001B78FB76FB6901337B6101E000235FE007
:101E2000FB7E602B05D9FB7E7A2B02D8FB7E203B04
:101E3000FB76FB7E402B02D9FB7E472B01D900238A
:101E40004EE0786905F0CCFA38613B69002B02DB83
:101E50003B690F2B01DD002342E0FB7E413B042B5D
:101E600034D801A252F823F07D1E00088D1E000810
:101E70009D1E0008AD1E0008BD1E0008BB681A4A62
:101E80001A6040F2026001F0EDFB21E0BB68174AE6
:101E90001A6040F2036001F0E5FB19E0BB68144AE8
:101EA0001A6040F2046001F0DDFB11E0BB68114AEA
:101EB0001A6040F2056001F0D5FB09E0BB680E4AEC
:101EC0001A6040F2066001F0CDFB01E0002307E05C
:101ED00001223B6902FA03F39AB27B681A8001235C
:101EE00018462037BD4680BD00080140000C014067
:101EF00000100140001401400018014080B586B078
:101F000000AF786007F10E0207F1100319467868F8
:101F1000FFF742FF0346002B03D10A48FFF702FEFA
:101F20000DE03B69FA891146184601F014FB03469F
:101F3000FB75FA7DFB8979680348FFF74DFE18377A
:101F4000BD4680BDC4AB0008E8AB000880B586B0D4
:101F500000AF7860396007F10E0207F110031946EF
:101F60007868FFF719FF0346002B03D11548FFF7E8
:101F7000D9FD24E0386805F033FA78613869FB89C7
:101F80000322102101F026FA7B69002B06D03B6961
:101F9000FA891146184601F0C0FA05E03B69FA8952
:101FA0001146184601F0C8FA7B69002B14BF0123C3
:101FB0000023DBB21A4679680348FFF70DFE183795
:101FC000BD4680BD0CAC000834AC000880B489B0BC
:101FD00000AFF860B9607A60FB68002B05DDBB6874
:101FE000002B02D07B68002B01D100232BE0184B83
:101FF000FB61FB68FA69B2FBF3F3BB61BB69002BC1
:1020000001D100231FE0BB69013B1B0C7B617B6995
:10201000B3F5803F01D3002315E07B690133BA6932
:10202000B2FBF3F33B613B69002B03D03B69B3F593
:10203000803F01D3002306E0BB687A691A607B68A1
:102040003A691A60012318462437BD4680BC7047A0
:1020500000A24A0480B592B002AF78603960786817
:1020600005F0BEF9B8633B68002B04D0386805F072
:10207000B7F9034600E032237B63BB6B002B05DD21
:102080007B6B002B02DB7B6B642B03DD8848FFF747
:1020900049FD0AE107F1280207F12C031946B86B44
:1020A000FFF794FF0346002B04D1B96B8148FFF77B
:1020B00093FDFAE0BB6A01337A6B02FB03F37E4ABD
:1020C000A2FB03235B09FB63BB6AFA6B9A4201D94B
:1020D000BB6AFB634FF4806001F0E6FA4FF4806066
:1020E00001F004FB4FF4E06001F0BCFA40F2026042
:1020F00001F0B8FA4FF4C06001F0B4FA6F4B3B63E3
:102100003B6B1B6823F440723B6B1A604FF08040BE
:1021100001F0D6FCFB6A9BB23B8360237B830023E8
:10212000BB83BB6A9BB23B620023BB84002387F85E
:10213000263007F1180319464FF0804001F058FD92
:102140000123BB810423FB8100233B8208237B8284
:102150000023BB824FF40073FB8207F10C031A4685
:1021600001214FF0804001F04BFE07F10C031A46AD
:1021700002214FF0804001F043FE07F10C031A46A4
:1021800003214FF0804001F03BFE702201214FF00F
:10219000804002F023F8702202214FF0804002F0CC
:1021A0001DF8702203214FF0804002F017F8FB6BFE
:1021B0009BB21A4601214FF0804002F071F8FB6B90
:1021C0009BB21A4602214FF0804002F069F8FB6B87
:1021D0009BB21A4603214FF0804002F061F84FF0A5
:1021E000804001F0A9FD364801F06AFCBB6A9BB251
:1021F0003B6207F118031946314801F0F9FC07F179
:102200000C031A4603212E4801F0FAFD7022032127
:102210002B4801F0E3FFFB6B9BB21A4603212848D1
:1022200002F03EF8264801F087FD264801F048FC00
:10223000BB6A9BB23B6207F118031946214801F0C3
:10224000D7FC07F10C031A4601211E4801F0D8FD06
:1022500007F10C031A4603211A4801F0D1FD702240
:102260000121184801F0BAFF70220321154801F03E
:10227000B5FFFB6B9BB21A460121124802F010F821
:10228000FB6B9BB21A4603210E4802F009F80D4879
:1022900001F052FDF96ABB6AFA6B019200930B469A
:1022A0007A6BB96B0848FFF797FC4037BD4680BD95
:1022B00048AC000878AC00081F85EB5104000140D1
:1022C00000080040000C0040A4AC000880B596B0A7
:1022D00004AFF860B9607A60BB68002B05DD7B68ED
:1022E000002B02DB7B68642B03DD5D48FFF71AFCE3
:1022F000B3E007F13A0207F13C031946F868FFF72B
:102300004BFD0346002B04D1F9685648FFF764FCE7
:10231000A3E0FB6B544A934202D17B8F082B03D07E
:102320005248FFF759FC98E007F1300207F13403F7
:102330001946B868FFF74AFE0346002B04D1B96876
:102340004B48FFF749FC88E03B6B01337A6802FB9E
:1023500003F3484AA2FB03235B097B643B6B7A6C63
:102360009A4201D93B6B7B6440F2014001F09CF939
:1023700040F2014001F0BAF940F2017001F072F947
:1023800040F2026001F06EF94FF4C06001F06AF9AA
:10239000394B3B643B6C1B6823F440623B6C1A6016
:1023A000082303221821304801F014F8334801F0C3
:1023B00087FB7B6B9BB23B8460237B840023BB84C5
:1023C0003B6B9BB2BB620023BB85002387F82E309A
:1023D00007F120031946294801F00AFC0123BB82BA
:1023E0000023FB8200233B8308237B830023BB83E2
:1023F0004FF40073FB8307F114031A4603211F48AF
:1024000001F0FEFC702203211C4801F0E7FE7B6C0A
:102410009BB21A460321194801F042FF082203210A
:10242000164801F071FF01220321144801F0CEFF8C
:10243000124801F09FFC114801F0ABFC0F4801F07D
:102440007BFC7B6B3A6B796C0291019200937B6809
:10245000BA68F9680A48FFF7BFFB4837BD4680BD38
:10246000E4AC000814AD0008000801402CAD0008E1
:1024700078AC00081F85EB510400014000040040C7
:1024800068AD000880B5FEB002AF07F5F873A3F59C
:10249000F673186007F5F873A3F5F6731B68002B45
:1024A00000F0D88607F5F873A3F5F6731B681B7860
:1024B000002B00F0CF8607F5F873A3F5F67307F14C
:1024C0007C00FF22196805F057F907F5F873A3F5AA
:1024D000BA73002283F8FF200023C7F8EC312BE009
:1024E00007F5F873A3F5BA72D7F8EC3113441B78EB
:1024F000402B1CD907F5F873A3F5BA72D7F8EC3165
:1025000013441B785A2B12D807F5F873A3F5BA7247
:10251000D7F8EC3113441B782033D9B207F5F873A0
:10252000A3F5BA72D7F8EC3113440A461A70D7F8FB
:10253000EC310133C7F8EC3107F5F873A3F5BA7243
:10254000D7F8EC3113441B78002BC9D107F17C0379
:10255000C649184605F01EFC0346002B08D007F1BB
:102560007C03C349184605F015FC0346002B40D1F7
:10257000C048FFF7D7FAC048FFF7D4FABF48FFF7C3
:10258000D1FABF48FFF7CEFABE48FFF7CBFABE48F4
:10259000FFF7C8FABD48FFF7C5FABD48FFF7C2FA12
:1025A000BC48FFF7BFFABC48FFF7BCFABB48FFF7CF
:1025B000B9FABB48FFF7B6FABA48FFF7B3FABA4818
:1025C000FFF7B0FAB948FFF7ADFAB948FFF7AAFA32
:1025D000B848FFF7A7FAB848FFF7A4FAB748FFF7DB
:1025E000A1FAB748FFF79EFAB648FFF79BFA00F04A
:1025F00032BE07F17C030622B349184605F0FCFA07
:102600000346002B40F0978007F5F873A3F5F673A7
:102610001B680633C7F884310622AC49D7F8840119
:1026200005F0EAFA0346002B0AD10120FEF78AFCE6
:10263000A74B01221A71A748FFF774FA00F00BBEEE
:102640000722A549D7F8840105F0D6FA0346002BE6
:102650000AD10020FEF776FC9D4B00221A719F489C
:10266000FFF760FA00F0F7BD05229D49D7F8840115
:1026700005F0C2FA0346002B15D1D7F88431053393
:102680001846FFF741FB0346A7F87E31B7F97E31C4
:102690001846FEF717FCB7F97E3119469148FFF747
:1026A0009BFA00F0D8BD06228F49D7F8840105F0C7
:1026B000A3FA0346002B15D1D7F884310633184608
:1026C000FFF722FB0346A7F88031B7F9803118469F
:1026D000FEF718FCB7F9803119468448FFF77CFAF9
:1026E00000F0B9BD05228249D7F8840105F084FACB
:1026F0000346002B1AD1D7F8843105331846FFF76B
:1027000003FB0346A7F88231B7F982311846FEF77A
:10271000D9FBB7F982311846FEF7F4FBB7F98231DD
:1027200019467448FFF758FA00F095BD7248FFF754
:10273000F9F900F090BD07F17C0305226F491846B6
:1027400005F05AFA0346002B40F0E08007F5F873D5
:10275000A3F5F6731B680533C7F8E83104E0D7F832
:10276000E8310133C7F8E831D7F8E8311B78202B7E
:10277000F5D005226249D7F8E80102F0F7FF0346D9
:10278000002B15D1D7F8E8310533C7F8E43104E060
:10279000D7F8E4310133C7F8E431D7F8E4311B78D6
:1027A000202BF5D0D7F8E401FFF7A8FB00F053BDCC
:1027B00006225449D7F8E80102F0D8FF0346002B5F
:1027C0004ED1D7F8E8310633C7F8E03104E0D7F846
:1027D000E0310133C7F8E031D7F8E0311B78202B26
:1027E000F5D00023C7F8DC310FE0D7F8E021531C07
:1027F000C7F8E031D7F8DC31591CC7F8DC11117883
:1028000007F5F872A2F5C272D154D7F8E0311B78FF
:10281000002B08D0D7F8E0311B78202B03D0D7F855
:10282000DC310E2BE1DD07F5F873A3F5C272D7F8A2
:10283000DC31134400221A7004E0D7F8E031013390
:10284000C7F8E031D7F8E0311B78202BF5D007F13D
:102850006C03D7F8E0111846FFF778FB00F0FBBCDB
:102860002948FFF75FF900F0F6BC00BFACAD0008E7
:10287000B4AD0008B8AD0008E0AD0008F4AD000844
:1028800024AE000854AE000894AE0008D8AE00088C
:102890001CAF000830AF000864AF000894AF000818
:1028A000CCAF000800B0000834B000086CB00008DD
:1028B00080B00008B4B00008E8B00008F4B0000828
:1028C00024B1000854B1000878B1000880B10008B4
:1028D000DC01002088B100089CB10008A4B1000808
:1028E000B8B10008C0B10008D8B10008E0B10008D4
:1028F000F8B1000800B2000818B2000848B2000899
:1029000050B2000858B2000860B2000807F5F8732A
:10291000A3F5BA731B78722B54D107F5F873A3F59E
:10292000BA735B78202B4DD107F5F873A3F5F673D6
:102930001B680233C7F8D83104E0D7F8D831013327
:10294000C7F8D831D7F8D8311B78202BF5D0002321
:10295000C7F8D4310FE0D7F8D821531CC7F8D831C5
:10296000D7F8D431591CC7F8D411117807F5F8728B
:10297000A2F5CA72D154D7F8D8311B78002B08D0F1
:10298000D7F8D8311B78202B03D0D7F8D4310E2BB1
:10299000E1DD07F5F873A3F5CA72D7F8D431134413
:1029A00000221A70D7F8D431002B04D1B648FFF7B3
:1029B000B9F800F050BC07F15C031846FFF79EFA27
:1029C00000F049BC07F5F873A3F5BA731B78772BB1
:1029D00064D107F5F873A3F5BA735B78202B5DD14A
:1029E00007F5F873A3F5F6731B680233C7F8D03107
:1029F00004E0D7F8D0310133C7F8D031D7F8D0315F
:102A00001B78202BF5D00023C7F8CC310FE0D7F886
:102A1000D021531CC7F8D031D7F8CC31591CC7F896
:102A2000CC11117807F5F872A2F5D272D154D7F80B
:102A3000D0311B78002B08D0D7F8D0311B78202B51
:102A400003D0D7F8CC310E2BE1DD07F5F873A3F5F1
:102A5000D272D7F8CC31134400221A7004E0D7F8B0
:102A6000D0310133C7F8D031D7F8D0311B78202BC3
:102A7000F5D0D7F8CC31002B04D0D7F8D0311B7863
:102A8000002B03D18148FFF74DF8E4E307F14C0335
:102A9000D7F8D0111846FFF759FADCE307F17C03A9
:102AA0007B49184605F076F90346002B53D1794847
:102AB000FFF738F8784B1B7819467848FFF78CF801
:102AC000774B9B68184606F0D3FF02460B467548C5
:102AD000FFF782F8FEF76CFA0346184606F0C8FFC7
:102AE00002460B467048FFF777F8FEF76BFA03468D
:102AF000184606F0BDFF02460B466C4989780091E6
:102B00006B48FFF769F8FEF767FA0346184606F0C8
:102B1000AFFF02460B466749897800916648FFF788
:102B20005BF85F4BB3F9003019465D4BB3F90230E7
:102B30001A466248FFF750F8594B1B79002B01D019
:102B40005F4B00E05F4B19465F48FFF745F85F4871
:102B5000FEF7E8FF7FE307F17C035D49184605F0C7
:102B600019F90346002B18D15A48FEF7DBFF5A4BE0
:102B70001B8819465948FFF72FF8574B5B881946B1
:102B80005748FFF729F8544B9B8819465548FFF7DB
:102B900023F85548FEF7C6FF5DE307F17C03534970
:102BA000184605F0F7F80346002B29D13C4B9B68EB
:102BB000184606F05DFF02460B464D48FFF70CF83D
:102BC000374B9B684FF07E51184607F02DFD0346AA
:102BD000002B03D04748FEF7A5FF3CE3304B9B6832
:102BE0004FF08041184607F01FFD0346002B03D02D
:102BF0004148FEF797FF2EE34048FEF793FF2AE394
:102C000007F17C033E49184605F0C4F80346002B43
:102C100019D1FEF7CDF9C7F88801D7F8880106F079
:102C200027FF02460B463748FEF7D6FF3649D7F84E
:102C3000880107F017FD0346002B00F00C83334892
:102C4000FEF770FF07E307F17C033149184605F0F2
:102C5000A1F80346002B61D1FEF7B4F903461846EC
:102C600006F006FF02460B462A48FEF7B5FFFEF7C0
:102C7000B3F90346184606F0FBFE02460B4626480B
:102C8000FEF7AAFFE7E200BF98B20008B4B200085E
:102C9000C8B20008D0B20008EE010020ECB2000873
:102CA000DC0100201CB3000830B300081C02002027
:102CB00044B300082802002068B300088CB3000861
:102CC000ACB30008B0B30008B4B30008CCB300083C
:102CD000E4B30008E8B300083402002000B40008A0
:102CE0001CB4000838B4000850B4000868B40008E8
:102CF00070B400088CB40008B0B40008C8B4000870
:102D0000E4B40008ECB400080000A04104B50008D9
:102D100028B5000830B5000850B5000807F17C035D
:102D20000422A249184604F067FF0346002B40F036
:102D3000438107F5F873A3F5F6731B680433C7F8EE
:102D4000C83104E0D7F8C8310133C7F8C831D7F823
:102D5000C8311B78202BF5D004229549D7F8C8013B
:102D600002F004FD0346002B63D1D7F8C8310433C9
:102D7000C7F8C43104E0D7F8C4310133C7F8C4310F
:102D8000D7F8C4311B78202BF5D007F5F873A3F5DD
:102D9000DA731A460023136053609360D3600023F4
:102DA000C7F8C0310FE0D7F8C421531CC7F8C431AD
:102DB000D7F8C031591CC7F8C011117807F5F8725F
:102DC000A2F5DA72D154D7F8C4311B78002B08D0A1
:102DD000D7F8C4311B78202B03D0D7F8C0310E2B85
:102DE000E1DD07F5F873A3F5DA72D7F8C0311344C3
:102DF00000221A7004E0D7F8C4310133C7F8C43197
:102E0000D7F8C4311B78202BF5D00023C7F8BC318C
:102E1000D7F8C4311B78002B03D0D7F8C431C7F8DA
:102E2000BC3107F13C03D7F8BC111846FFF712F983
:102E300011E207F5F873A3F5E2731A460023136055
:102E400053609360D3600023C7F8B831D7F8C83116
:102E5000C7F8B4310FE0D7F8B421531CC7F8B43128
:102E6000D7F8B831591CC7F8B811117807F5F872BE
:102E7000A2F5E272D154D7F8B4311B78002B08D0F8
:102E8000D7F8B4311B78202B03D0D7F8B8310E2BEC
:102E9000E1DD07F5F873A3F5E272D7F8B831134412
:102EA00000221A7004E0D7F8B4310133C7F8B43106
:102EB000D7F8B4311B78202BF5D00123C7F8B031F7
:102EC0003223C7F8AC31D7F8B4311B78002B58D077
:102ED00007F5F873A3F5F273184620231A4600216C
:102EE00002F06EFC0023C7F8A8310FE0D7F8B42138
:102EF000531CC7F8B431D7F8A831591CC7F8A8112A
:102F0000117807F5F872A2F5F272D154D7F8B431FE
:102F10001B78002B08D0D7F8B4311B78202B03D0B6
:102F2000D7F8A8311E2BE1DD07F5F873A3F5F2728F
:102F3000D7F8A831134400221A7007F5F873A3F5E7
:102F4000F2731B78002B0CD007F10C03184604F029
:102F500047FAC7F8B00104E0D7F8B4310133C7F835
:102F6000B431D7F8B4311B78202BF5D0D7F8B43171
:102F70001B78002B05D0D7F8B40104F031FAC7F85C
:102F8000AC0107F5F873A3F5E2731B78002B09D0A9
:102F900007F12C03D7F8AC21D7F8B0111846FFF78A
:102FA00095F958E10348FEF7BDFD54E170B50008FE
:102FB00078B5000880B5000807F17C03A8491846D9
:102FC00004F0E8FE0346002B40F0A0802021A54835
:102FD000FEF7B8FE034687F893314021A148FEF77B
:102FE000B1FE034687F8923180219E48FEF7AAFE83
:102FF000034687F8913197F992315B005AB297F9FD
:10300000933113435AB297F991319B005BB213434A
:103010005BB287F890314FF480619348FEF792FEDF
:10302000034687F88F314FF400618F48FEF78AFE20
:10303000034687F88E314FF480518B48FEF782FEAD
:10304000034687F88D3197F98E315B005AB297F9B4
:103050008F3113435AB297F98D319B005BB2134302
:103060005BB287F88C318148FEF75CFD8048FEF743
:1030700059FD97F893311A4620217E48FEF778FED5
:1030800097F892311A4640217B48FEF771FE97F877
:1030900091311A4680217948FEF76AFE97F89031FF
:1030A00097F8902119467648FEF796FD754BDB7828
:1030B00019467548FEF790FD7448FEF733FD97F802
:1030C0008F311A464FF480617148FEF751FE97F830
:1030D0008E311A464FF400616E48FEF749FE97F8AC
:1030E0008D311A464FF480516B48FEF741FE97F838
:1030F0008C3197F88C2119466848FEF76DFD684BB6
:10310000DB7819466748FEF767FDA4E007F17C030A
:1031100004226549184604F06FFD0346002B3FD199
:1031200007F5F873A3F5F6731B680433C7F8A431E9
:1031300004E0D7F8A4310133C7F8A431D7F8A4319B
:103140001B78202BF5D0D7F8A40104F049F9C7F873
:103150009401D7F89431002B1EDDD7F894310A2B57
:103160001ADC0023C7F8A0310AE00120FDF728FD92
:103170006420FEF749F9D7F8A0310133C7F8A03130
:10318000D7F8A021D7F894319A42EEDBD7F8941102
:103190004648FEF721FD5EE04548FEF7C3FC5AE0D5
:1031A00007F17C0306224349184604F025FD034637
:1031B000002B30D107F5F873A3F5F6731B680633BF
:1031C000C7F89C3104E0D7F89C310133C7F89C3133
:1031D000D7F89C311B78202BF5D0D7F89C0104F050
:1031E000FFF8C7F89801D7F89831002B0FDDD7F812
:1031F00098310A2B0BDCD7F89831DBB21846FDF773
:10320000DFFCD7F898112C48FEF7E6FC23E02B48AA
:10321000FEF788FC1FE007F17C032949184604F0FB
:10322000B9FD0346002B09D12648FEF77BFC4FF47D
:103230007A70FEF7E9F8FEF725FC0CE007F5F87365
:10324000A3F5F67319682048FEF7C6FC1F48FEF781
:1032500069FC00E000BF07F5F877BD4680BD00BF00
:10326000D0B50008000C014000100140D8B500089E
:10327000F8B500080CB6000818B6000824B6000817
:1032800030B600081C02002050B600086CB60008DA
:1032900084B6000894B60008A4B60008B4B60008C6
:1032A00028020020D4B60008F0B60008F8B60008DE
:1032B00004B7000818B7000820B7000838B700089E
:1032C00050B7000858B7000878B7000890B7000852
:1032D00080B582B000AF1149114801F0EAFC034605
:1032E000002B0CD00E4801F0B8FC0346FB71FB79B3
:1032F0001846FEF78DFC0949094801F00EFD094901
:10330000074801F0D6FC0346002B03D005490448CA
:1033100001F003FD00BF0837BD4680BD0503050071
:10332000004800400603060080B584B000AFF86096
:10333000B9607A607B689BB21946B868FEF71EFCDC
:103340007B6818461037BD4680BD000080B500AFD1
:103350004FF4006303221021064800F03BF84FF4BD
:103360000061044800F0E8F8034B00221A7000BF27
:1033700080BD00BF000801406703002080B500AF9A
:103380004FF40061054800F0C8F8054B01221A709F
:10339000044802F0D1F800BF80BD00BF0008014022
:1033A00067030020B8B7000880B500AF4FF4006194
:1033B000054800F0C1F8054B00221A70044802F0DD
:1033C000BBF800BF80BD00BF0008014067030020BC
:1033D000DCB7000880B489B000AFF860B9607A60EB
:1033E0003B600023BB6100237B61BB6803F00F03DC
:1033F000BB61BB6803F01003002B03D0BA697B6884
:103400001343BB610023FB8339E0FB8B01229A400D
:103410003B681340002B2FD0FB681B687B61FB8B44
:103420009B000F2202FA03F3DB437A6913407B61AE
:10343000FB8B9B00BA6902FA03F37A6913437B6141
:10344000BB68282B09D1FB8B01229A40FB681433FF
:1034500019463B6813400B600BE0BB68482B08D152
:10346000FB8B01229A40FB68103319463B681340DE
:103470000B60FB687A691A60FB8B0133FB83FB8B63
:10348000072BC2D90823FB833EE0FB8B01229A4025
:103490003B681340002B34D0FB6804331B687B610E
:1034A000FB8B083B9B000F2202FA03F3DB437A6994
:1034B00013407B61FB8B083B9B00BA6902FA03F364
:1034C0007A6913437B61BB68282B09D1FB8B0122EE
:1034D0009A40FB68143319463B6813400B600BE0BD
:1034E000BB68482B08D1FB8B01229A40FB68103344
:1034F00019463B6813400B60FB6804331A467B692E
:103500001360FB8B0133FB83FB8B0F2BBDD900BFFB
:1035100000BF2437BD4680BC704780B483B000AF85
:10352000786039607B6810331A463B68136000BFCF
:103530000C37BD4680BC704780B483B000AF786064
:1035400039607B6814331A463B68136000BF0C3740
:10355000BD4680BC704780B483B000AF78603960EE
:103560007B6808331A683B681340002B01D00123A5
:1035700000E0002318460C37BD4680BC70470000B1
:1035800080B487B000AF78600B46FB7000233B61CE
:103590000023FB6000237B610023BB607B68002B62
:1035A00003DA2E4B1B687B6102E02D4B1B687B61AD
:1035B0007B681B0C03F00F03BB607B689BB23B6115
:1035C0007B6803F44013B3F5401F0AD17B6923F0F5
:1035D00070637B61224B1B68214A23F07063136088
:1035E00021E07B6803F48013002B0ED00322BB681C
:1035F00002FA03F3FB60FB68DB437A6913407B61EB
:103600007B6943F070637B610DE07B685B0D1B01A0
:103610003A6902FA03F3DB437A6913407B617B6901
:1036200043F070637B61FB78002B08D07B685B0DF7
:103630001B013A6902FA03F37A6913437B617B68E1
:10364000002B03DA054A7B69136002E0044A7B69B8
:10365000136000BF1C37BD4680BC70471C00014092
:103660000400014080B483B000AF0346FB80FB88B8
:103670009B099BB203F1804303F504331968FB886F
:1036800003F01F0301229A40FB889B099BB203F1C0
:10369000804303F50433184641EA0203036000BF88
:1036A0000C37BD4680BC704780B483B000AF034682
:1036B000FB80FB889B099BB203F1804303F5043335
:1036C0001968FB8803F01F0301229A40FB889B09BD
:1036D0009BB203F1804303F50433184641EA020329
:1036E000036000BF0C37BD4680BC704780B483B018
:1036F00000AF0346FB80FB889B099BB203F180432C
:1037000003F504331968FB8803F01F03012202FA52
:1037100003F3DA43FB889B099BB203F1804303F573
:103720000433184601EA0203036000BF0C37BD46AC
:1037300080BC704780B485B000AF7860084B1B68D0
:10374000FB60FB6823F00303FB600549FA687B68B4
:1037500013430B6000BF1437BD4680BC704700BFE9
:103760000410024080B400AF034B1B6803F00C034D
:103770001846BD4680BC70470410024080B485B036
:1037800000AF7860084B1B68FB60FB6823F0F00318
:10379000FB600549FA687B6813430B6000BF143770
:1037A000BD4680BC704700BF0410024080B485B0A5
:1037B00000AF7860084B1B68FB60FB6823F4E06394
:1037C000FB600549FA687B6813430B6000BF143740
:1037D000BD4680BC704700BF0410024080B485B075
:1037E00000AF7860084B1B68FB60FB6823F46053F4
:1037F000FB600549FA687B6813430B6000BF143710
:10380000BD4680BC704700BF0410024080B485B044
:1038100000AF786039600023FB600B4B1B68FB60D6
:10382000FB6823F0036323F45023FB607A683B6852
:103830001343FA681343FB60034AFB68136000BF3D
:103840001437BD4680BC70470410024080B485B078
:1038500000AF7860184B1B68FB60FB6823F0805357
:1038600023F44043FB607B68072B0FD07B68072B5A
:1038700018D87B68032B03D97B68052B06D011E091
:103880007B689B03FA681343FB600CE07B6823F0C2
:1038900004037B607B689A03FB68134343F0805307
:1038A000FB6000E000BF044AFB68136000BF1437F0
:1038B000BD4680BC704700BF0410024080B483B096
:1038C00000AF0346FB80FB889B099BB203F180435A
:1038D00003F504331A68FB8803F01F0322FA03F38D
:1038E00003F00103002B01D0012300E00023184660
:1038F0000C37BD4680BC704780B400AF044B1B68DA
:10390000034A43F08073136000BFBD4680BC70471C
:103910002410024080B584B000AF0346FB80002332
:10392000FB600023FB720023BB72FB88B3F5106FB2
:1039300069D0B3F5106F00F38F80B3F5006F2FD00F
:10394000B3F5006F00F38880182B75D0182B00F3A7
:103950008380002B3ED0102B7ED107E01120FFF793
:10396000ADFF0346BB72FB680133FB60BB7A002BE3
:1039700004D1FB684FF6FF729342EFD11120FFF79D
:103980009DFF0346002B69D00123FB7266E040F6E1
:103990000100FFF793FF0346BB72FB680133FB6036
:1039A000BB7A002B04D1FB686FF07C429342EED1CE
:1039B00040F60100FFF782FF0346002B50D00123A1
:1039C000FB724DE00120FFF779FF0346BB72FB68F5
:1039D0000133FB60BB7A002B03D1FB68B3F5A06F0A
:1039E000F0D10120FFF76AFF0346002B3AD00123F4
:1039F000FB7237E040F60110FFF760FF0346BB7231
:103A0000FB680133FB60BB7A002B03D1FB681A4AC9
:103A10009342EFD140F60110FFF750FF0346002B11
:103A200022D00123FB721FE01920FFF747FF034656
:103A3000BB72FB680133FB60BB7A002B03D1FB68D0
:103A40000D4A9342F0D11920FFF738FF0346002BAF
:103A50000CD00123FB7209E000BF08E000BF06E0C4
:103A600000BF04E000BF02E000BF00E000BFFB7A3F
:103A700018461037BD4680BDFFFF0F0080B483B0ED
:103A800000AF0346FB80FB889B099BB203F1804398
:103A900003F504331968FB8803F01F0301229A40E1
:103AA000FB889B099BB203F1804303F5043318465E
:103AB00041EA0203036000BF0C37BD4680BC70477B
:103AC00080B582B000AF78607B68424A934273D081
:103AD0007B68404A934278D87B683F4A93422CD017
:103AE0007B683D4A934270D87B683C4A93425AD0E7
:103AF0007B683A4A934268D87B68394A934249D0F6
:103B00007B68374A934260D87B68364A934238D004
:103B10007B68344A934258D87B68334A934227D013
:103B20007B68314A934250D87B68B3F1804F0DD007
:103B30007B682E4A934212D047E040F20B30FFF7E9
:103B4000B3FD40F20B30FFF7D1FD3FE04FF4806052
:103B5000FFF7AAFD4FF48060FFF7C8FD36E040F2A2
:103B60000140FFF7A1FD40F20140FFF7BFFD2DE04E
:103B700040F20240FFF798FD40F20240FFF7B6FD29
:103B800024E040F20340FFF78FFD40F20340FFF7CF
:103B9000ADFD1BE040F20440FFF786FD40F204401B
:103BA000FFF7A4FD12E040F20540FFF77DFD40F273
:103BB0000540FFF79BFD09E040F20D30FFF774FD73
:103BC00040F20D30FFF792FD00E000BF00BF083764
:103BD000BD4680BD00340140002C0140001400406F
:103BE00000100040000C00400008004000040040AD
:103BF00080B483B000AF786039603B681A887B6816
:103C000028331A607B683F4A93422BD07B68B3F11C
:103C1000804F27D07B683C4A934223D07B683B4A45
:103C200093421FD07B683A4A93421BD07B68394A43
:103C3000934217D07B68384A934213D07B68374A47
:103C400093420FD07B68364A93420BD07B68354A4B
:103C5000934207D07B68344A934203D07B68334A4F
:103C6000934217D17B681A687B6822F070021A6051
:103C70007B6819683B685B8803F060027B680A43D5
:103C80001A607B6819683B689B8803F010027B68A8
:103C90000A431A607B682C331A463B689B681360A2
:103CA0007B68234A934212D07B68224A93420ED00B
:103CB0007B681A687B6822F440721A607B68196816
:103CC0003B689B8903F440727B680A431A607B68F7
:103CD0000C4A934203D07B680E4A934204D13B685E
:103CE0009A7B7B6830331A607B6814331B687A6870
:103CF000143243F00103136000BF0C37BD4680BC93
:103D0000704700BF002C0140000400400008004044
:103D1000000C004000340140004C014000500140C4
:103D20000054014000180040001C004000200040EA
:103D3000001000400014004080B483B000AF7860F1
:103D40007B681A687B6842F001021A6000BF0C377A
:103D5000BD4680BC704780B483B000AF78607B689C
:103D60001A687B6822F001021A6000BF0C37BD465A
:103D700080BC704780B483B000AF78607B681A68FD
:103D80007B6842F080021A6000BF0C37BD4680BCE1
:103D9000704780B483B000AF78607B681A687B6836
:103DA00022F002021A6000BF0C37BD4680BC70478B
:103DB00080B483B000AF786039603B681A883B6894
:103DC0005B8813439AB23B689B8813439AB23B6863
:103DD000DB8813439AB23B681B8913439AB23B6852
:103DE0005B8913439AB23B689B8913439AB27B6801
:103DF00044331A6000BF0C37BD4680BC70470000DA
:103E000080B485B000AFF8600B467A607B817B8917
:103E1000032B00F2D08101A252F823F02D3E0008BE
:103E2000293F00082D40000829410008FB68203385
:103E30001B68FA68203223F001031360FB68183313
:103E40001B68FA68183223F003031360FB68203301
:103E50001B687A6812881146FA6820320B43136097
:103E6000FB6820331B68FA68203223F002031360DA
:103E7000FB6820331B687A6892881146FA68203202
:103E80000B431360FB68674A934204D0FB68664AA1
:103E9000934240F09281FB6820331B68FA6820321D
:103EA00023F004031360FB6820331B687A68528890
:103EB0001146FA6820320B431360FB6820331B68FD
:103EC000FA68203223F008031360FB6820331B6874
:103ED0007A68D2881146FA6820320B431360FB6877
:103EE00004331B68FA68043223F480731360FB68A0
:103EF00004331B687A6812891146FA6804320B434E
:103F00001360FB6804331B68FA68043223F40073FF
:103F10001360FB6804331B687A6852891146FA689B
:103F200004320B43136048E1FB6820331B68FA68D6
:103F3000203223F010031360FB6818331B68FA6803
:103F4000183223F440731360FB6820331A687B68CF
:103F50001B881B01F968203113430B60FB68203379
:103F60001B68FA68203223F020031360FB682033BB
:103F70001A687B689B881B01F968203113430B602A
:103F8000FB68284A934204D0FB68274A934240F0DA
:103F90001681FB6820331B68FA68203223F0400347
:103FA0001360FB6820331A687B685B881B01F96823
:103FB000203113430B60FB6820331B68FA68203202
:103FC00023F080031360FB6820331A687B68DB886A
:103FD0001B01F968203113430B60FB6804331B6835
:103FE000FA68043223F480631360FB6804331A68B0
:103FF0007B681B899B00F968043113430B60FB68E5
:1040000004331B68FA68043223F400631360FB680E
:1040100004331A687B685B899B00F9680431134399
:104020000B60CCE0002C014000340140FB682033E1
:104030001B68FA68203223F480731360FB681C331A
:104040001B68FA681C3223F003031360FB682033FB
:104050001A687B681B881B02F968203113430B60C8
:10406000FB6820331B68FA68203223F40073136066
:10407000FB6820331A687B689B881B02F968203133
:1040800013430B60FB68534A934204D0FB68524AC7
:10409000934240F09680FB6820331B68FA68203218
:1040A00023F480631360FB6820331A687B685B88A5
:1040B0001B02F968203113430B60FB6820331B6837
:1040C000FA68203223F400631360FB6820331A6817
:1040D0007B68DB881B02F968203113430B60FB68A7
:1040E00004331B68FA68043223F480531360FB68BE
:1040F00004331A687B681B891B01F9680431134378
:104100000B60FB6804331B68FA68043223F4005325
:104110001360FB6804331A687B685B891B01F968CC
:10412000043113430B604CE0FB6820331B68FA68D2
:10413000203223F480531360FB681C331B68FA6839
:104140001C3223F440731360FB6820331A687B68C9
:104150001B881B03F968203113430B60FB68203375
:104160001B68FA68203223F400531360FB68203385
:104170001A687B689B881B03F968203113430B6026
:10418000FB68144A934203D0FB68134A93421AD146
:10419000FB6804331B68FA68043223F4804313601D
:1041A000FB6804331A687B681B899B01F96804313A
:1041B00013430B6007E000BF06E000BF04E000BF50
:1041C00002E000BF00E000BF00BF1437BD4680BC66
:1041D000704700BF002C01400034014080B483B020
:1041E00000AF78600B467B8013463B807B88032BB7
:1041F00050D801A252F823F0094200082B420008CF
:104200004F420008714200087B6818331B687A68C7
:10421000183223F0700313607B6818331A683B88E8
:104220007968183113430B6035E07B6818331B68DD
:104230007A68183223F4E04313607B6818331A68F5
:104240003B881B027968183113430B6023E07B68BD
:104250001C331B687A681C3223F0700313607B6880
:104260001C331A683B8879681C3113430B6012E0D9
:104270007B681C331B687A681C3223F4E0431360AC
:104280007B681C331A683B881B0279681C31134316
:104290000B6000E000BF00BF0C37BD4680BC70471C
:1042A00080B483B000AF78600B467B8013463B80C0
:1042B0007B88032B22D801A252F823F0CD420008BC
:1042C000D9420008E5420008F14200087B68343317
:1042D0001A463B88136012E07B6838331A463B88E5
:1042E00013600CE07B683C331A463B88136006E0A1
:1042F0007B6840331A463B88136000E000BF00BF74
:104300000C37BD4680BC704780B483B000AF786086
:104310000B467B8013463B807B88032B50D801A241
:1043200052F823F035430008574300087B43000848
:104330009D4300087B6818331B687A68183223F0A5
:10434000080313607B6818331A683B887968183152
:1043500013430B6035E07B6818331B687A681832AA
:1043600023F4006313607B6818331A683B881B02D0
:104370007968183113430B6023E07B681C331B689A
:104380007A681C3223F0080313607B681C331A68B8
:104390003B8879681C3113430B6012E07B681C3347
:1043A0001B687A681C3223F4006313607B681C333B
:1043B0001A683B881B0279681C3113430B6000E0CC
:1043C00000BF00BF0C37BD4680BC704780B485B0CD
:1043D00000AFF8600B467A607B817B89032B53D852
:1043E00001A252F823F000BFF94300081D44000861
:1043F0004144000865440008FB6820331B68FA68E4
:10440000203223F001031360FB6820331A68FB6835
:10441000203319467B6813430B6036E0FB6820337A
:104420001B68FA68203223F010031360FB68203306
:104430001A687B681B01F968203113430B6024E084
:10444000FB6820331B68FA68203223F48073136002
:10445000FB6820331A687B681B02F968203113431C
:104460000B6012E0FB6820331B68FA68203223F4EB
:1044700080531360FB6820331A687B681B03F9685C
:10448000203113430B6000E000BF00BF1437BD466E
:1044900080BC704780B582B000AF78607B68184AF6
:1044A00093421ED07B68164A934223D87B68154AF4
:1044B000934204D07B68144A934209D01AE040F238
:1044C0000930FFF7F1F840F20930FFF70FF912E079
:1044D00040F20A30FFF7E8F840F20A30FFF706F939
:1044E00009E040F20F30FFF7DFF840F20F30FFF73E
:1044F000FDF800E000BF00BF0837BD4680BD00BF2B
:10450000003C0140002401400028014080B483B0F9
:1045100000AF7860084B1B68074A23F470231360D0
:10452000054B1A6804497B6813430B6000BF0C37C6
:10453000BD4680BC704700BF0424014080B485B0F4
:1045400000AFF860B9601346FB71FB79002B27D0F0
:10455000BB6803F48073002B07D0FB6804331B682F
:10456000FA68043243F480731360BB6803F4806319
:10457000002B07D0FB6804331B68FA68043243F44D
:1045800080631360BB6803F00203002B2FD0FB682D
:1045900008331B68FA68083243F00203136026E010
:1045A000BB6803F48073002B07D0FB6804331B68DF
:1045B000FA68043223F480731360BB6803F48063E9
:1045C000002B07D0FB6804331B68FA68043223F41D
:1045D00080631360BB6803F00203002B07D0FB6805
:1045E00008331B68FA68083223F00203136000BF27
:1045F0001437BD4680BC704780B483B000AF78608C
:1046000039603B68002B08D07B6808331B687A68E8
:10461000083243F40063136007E07B6808331B68CB
:104620007A68083223F40063136000BF0C37BD467C
:1046300080BC704780B483B000AF78607B6808337B
:104640001B6803F00103002B07D17B6808331B684C
:104650007A68083243F00103136000BF0C37BD468F
:1046600080BC704780B483B000AF78607B6808334B
:104670001B687A68083223F00103136000BF0C370F
:10468000BD4680BC704780B483B000AF78607B6863
:1046900008331B687A68083243F00803136000BFD0
:1046A0007B6808331B6803F00803002BF8D17B6894
:1046B00008331B687A68083243F00403136000BFB4
:1046C0007B6808331B6803F00403002BF8D100BF9C
:1046D00000BF0C37BD4680BC704780B483B000AFCC
:1046E00078607B6808331B687A68083243F480730B
:1046F000136000BF0C37BD4680BC704780B483B0E8
:1047000000AF78600B46FB701346BB70BB78002B84
:104710001AD0FB7803F00103002B07D07B68083325
:104720001B687A68083243F480131360FB7803F047
:104730000203002B22D07B6808331B687A6808329A
:1047400043F40043136019E0FB7803F00103002BEE
:1047500007D07B6808331B687A68083223F480131B
:104760001360FB7803F00203002B07D07B6808334B
:104770001B687A68083223F40043136000BF0C37CB
:10478000BD4680BC704780B582B000AF78600B46F4
:10479000FB70FB781946786800F034FA0346002B6A
:1047A00001D100BFFDE7FA7813469B0013449B003C
:1047B0001A467B68134408331968FA7813469B003D
:1047C00013449B001A467B68134408331A4621F0B1
:1047D00001031360FA7813469B0013449B001A46AA
:1047E0007B68134408331A4600231360FA78134693
:1047F0009B0013449B001A467B6813440C331A46F3
:1048000000231360FA7813469B0013449B001A465A
:104810007B68134410331A4600231360FA7813465A
:104820009B0013449B001A467B68134414331A46BA
:10483000002313607B6804331A68FB789B000F2108
:1048400001FA03F37968043113430B6000BF0837A2
:10485000BD4680BD80B586B000AFF8600B467A607B
:10486000FB72FB7A1946F86800F0CCF90346002B7E
:1048700001D100BFFDE7FA7A13469B0013449B0069
:104880001A46FB68134410331A467B681B68136092
:10489000FA7A13469B0013449B001A46FB681344A4
:1048A00014331A467B689B6813607B681969FA7A2F
:1048B00013469B0013449B001A46FB6813440C33B9
:1048C0001A468BB21360FA7A13469B0013449B007E
:1048D0001A46FB68134408331B687B617B6923F429
:1048E0007C537B617B685A687B68DB681A437B6812
:1048F0005B6913437A6913437B61FA7A13469B0021
:1049000013449B001A46FB68134408331A467B691C
:1049100013607B681B7E012B17D1FA7A13469B002C
:1049200013449B001A46FB68134408331968FA7A4B
:1049300013469B0013449B001A46FB68134408333C
:104940001A4641F04003136016E0FA7A13469B00C2
:1049500013449B001A46FB68134408331968FA7A1B
:1049600013469B0013449B001A46FB68134408330C
:104970001A4621F0400313607B685B7E012B17D140
:10498000FA7A13469B0013449B001A46FB681344B3
:1049900008331968FA7A13469B0013449B001A46A1
:1049A000FB68134408331A4641F08003136016E095
:1049B000FA7A13469B0013449B001A46FB68134483
:1049C00008331968FA7A13469B0013449B001A4671
:1049D000FB68134408331A4621F0800313607B6898
:1049E0009B7E002B17D1FA7A13469B0013449B0041
:1049F0001A46FB68134408331968FA7A13469B0079
:104A000013449B001A46FB68134408331A4621F0EE
:104A10001003136016E0FA7A13469B0013449B00C0
:104A20001A46FB68134408331968FA7A13469B0048
:104A300013449B001A46FB68134408331A4641F09E
:104A40001003136000BF1837BD4680BD80B582B02B
:104A500000AF78600B46FB70FB781946786800F071
:104A6000D1F80346002B01D100BFFDE7FA781346C9
:104A70009B0013449B001A467B6813440833196853
:104A8000FA7813469B0013449B001A467B68134434
:104A900008331A4641F02003136000BF0837BD46B3
:104AA00080BD80B582B000AF78600B46FB70FB78AC
:104AB0001946786800F0A6F80346002B01D100BF24
:104AC000FDE7FA7813469B0013449B001A467B6867
:104AD000134408331968FA7813469B0013449B006B
:104AE0001A467B68134408331A4641F001031360E9
:104AF00000BF0837BD4680BD80B487B000AFF86006
:104B00000B467A60FB7200237B6100233B617B686C
:104B1000082B37D07B68082B4CD87B68022B03D03E
:104B20007B68042B17D045E0FB681A68FB7A9B0072
:104B3000796801FA03F313403B61FA7A13469B004C
:104B400013449B001A46FB68134408331B6803F0A8
:104B500002037B612FE0FB681A68FB7A9B0079688F
:104B600001FA03F313403B61FA7A13469B001344A6
:104B70009B001A46FB68134408331B6803F00403C8
:104B80007B6118E0FB681A68FB7A9B00796801FA80
:104B900003F313403B61FA7A13469B0013449B00D6
:104BA0001A46FB68134408331B6803F008037B6153
:104BB00001E0FFE7FDE73B69002B04D07B69002B98
:104BC00001D0012300E0002318461C37BD4680BCFD
:104BD000704780B485B000AFF8600B467A60FB7216
:104BE000FB6804331A68FB7A9B00796801FA03F3C7
:104BF000F968043113430B6000BF1437BD4680BC15
:104C00007047000080B485B000AF78600B46FB7041
:104C10000123FB737B68074A934204D1FB78042B82
:104C200001D90023FB73FB7B18461437BD4680BCBB
:104C3000704700BF0004024080B483B000AF7860CA
:104C40000B467B807B887A680432C3F308031360C9
:104C500000BF0C37BD4680BC704780B483B000AF46
:104C600078607B6804331B689BB2C3F308039BB274
:104C700018460C37BD4680BC704780B483B000AF87
:104C800078600B46FB70FB789A097B6813441A68BE
:104C9000FB7803F01F0322FA03F303F00103002B58
:104CA00001D0012300E0002318460C37BD4680BC2C
:104CB000704780B485B000AF786039600023FB6036
:104CC0000023BB603B689B09C3F309027B68134464
:104CD0001A683B6803F01F03012101FA03F3134034
:104CE000FB603B689A0D7B6813441A683B681B0C99
:104CF00003F01F03012101FA03F31340BB60BB68FB
:104D0000002B04D0FB68002B01D0012300E000231E
:104D100018461437BD4680BC704780B483B000AFDE
:104D2000786039603B681B0C03F01F03012202FA14
:104D300003F33A68910D7A680A44DB43136000BFBD
:104D40000C37BD4680BC704780B400AF034B4CF6B7
:104D5000CC421A6000BFBD4680BC704700300040A6
:104D600080B400AF034B4AF6AA221A6000BFBD46CA
:104D700080BC70470030004080B485B000AF03466F
:104D80000A46FB8013467B71204BFB600023BB600F
:104D90001F4B45F255521A601E4B1B6803F001036E
:104DA000BB60FB68013BFB60FB68002B02D0BB686B
:104DB000002BF1D1BB68002B01D0002321E0164A63
:104DC0007B791360114BFB60124B1B6803F00203ED
:104DD000BB60FB68013BFB60FB68002B02D0BB683B
:104DE000002BF1D1BB68002B01D0002309E0FB8828
:104DF0000A4AC3F30B031360054B4AF6AA221A6052
:104E0000012318461437BD4680BC7047FFFF0F00D2
:104E1000003000400C3000400430004008300040BA
:104E200080B485B000AF7860084B1B68FB60FB68FE
:104E300023F00703FB600549FA687B6813430B60A6
:104E400000BF1437BD4680BC704700BF0020024041
:104E500080B500AF0020FEF711FE00BF0020FEF776
:104E600059FD0346002BF9D00020FEF787FC4FF4D4
:104E70008060FEF79BFC0020FEF7B0FC0F4900208D
:104E8000FEF7C4FC1820FEF7F9FD00BF1820FEF75E
:104E900041FD0346002BF9D00220FFF7C1FF02209D
:104EA000FEF748FC00BFFEF75DFC0346082BFAD175
:104EB000034B044A1A6000BF80BD00BF0000040815
:104EC0001000002000A24A0480B500AFFFF7C0FF29
:104ED00000BF80BD002103E00B4B5B584350043101
:104EE0000A480B4B42189A42F6D30A4A02E00023C2
:104EF00013600432084B9A42F9D3FFF7E5FF00F044
:104F0000AFFAFBF715F9704780BB000800000020DE
:104F1000DC010020DC010020B4040020FEE70000DA
:104F200030B51B4C002924689BB02BDB4FF00005EB
:104F3000009004904FF402701995ADF80C004FF6F4
:104F4000FF7511D001390291059120466946ADF8EF
:104F50000E5000F06DF9421C01DA8B232360002211
:104F6000009B1A701BB030BD029105912046694626
:104F7000ADF80E5000F05CF9431C01DA8B2323607E
:104F80001BB030BD8B234FF0FF302360F8E700BF2C
:104F90001400002030B51446002C05469BB02CDBD5
:104FA0001A4600914FF4027304914FF000014FF63E
:104FB000FF7C1991ADF80C3011D0013C69461E9B65
:104FC00002940594ADF80EC000F032F9421C01DAEB
:104FD0008B232B600022009B1A701BB030BD1E9BE0
:104FE000694602940594ADF80EC000F021F9431C07
:104FF00001DA8B232B601BB030BD8B234FF0FF30C9
:105000002B60F8E720F0030110F00300C0F100006E
:1050100051F8043B00F1040C4FEACC0C6FF0000295
:105020001CBF22FA0CF213434FF0010C4CEA0C2C7B
:105030004CEA0C4CA3EB0C0222EA030212EACC125B
:1050400004BF51F8043B0430F4D0C2F1000102EA7D
:105050000102B2FA82F2C2F11F0200EBD2007047E5
:105060002DE9F0471D468F680C46AF4216460B6887
:1050700036D8B1F90CC01CF4906F0ED13D461846DD
:1050800031462A4602F02EF90020A368DF1B236870
:10509000A7602B442360BDE8F0874A69096902EBE9
:1050A00042025F1A02EBD2726B1C52103B449342D5
:1050B00092BF914699461A461CF4806F804611D0E3
:1050C000114601F039F8824600B33A46216902F0F0
:1050D000CDFAA38923F4906343F08003A38105E014
:1050E0002F46CCE702F07EFB824658B10AEB07035D
:1050F000A9EB0707A760C4F810A02F46C4F81490C6
:105100002360BCE74046216902F08EF80C22A38997
:105110004FF0FF3043F04003C8F80020A381BAE706
:105120002DE9F04F936883B0924617680190002BE9
:1051300076D04FF0000B0C465D468B680A6848E05D
:10514000B4F90CC01CF4906F2FD0D4E90403A2EB87
:10515000000803EB430202EBD27208F10101521086
:105160002944914292BF914689460A461CF4806FB9
:1051700039D01146019800F0DFFF064600283DD0E7
:105180004246216902F072FAA28922F4906242F04A
:105190008002A28106EB0800A9EB08022661A8465E
:1051A0002E46A2602060C4F814903246594602F0A0
:1051B00099F8DAF80810A3682268A3EB08033244D0
:1051C000491BA3602260CAF8081049B3D7E900B5AB
:1051D000083798461046002DF8D09D421E46AFD2A3
:1051E000A8462E46E1E70146019802F0FBFA064682
:1051F0000028CFD10198216902F016F80C21A3896B
:10520000019D43F0400329600022A3814FF0FF304D
:105210000023CAF80820CAF8043003B0BDE8F08FB4
:1052200000200023CAF8043003B0BDE8F08F00BFAF
:105230002DE9F04F1C468B8989461D068246934610
:105240009DB003D50B69002B00F0EE80002343F2E4
:10525000200209939BF8003001277C4E0394ADF89F
:105260002920002B71D05D4603E015F8013F002B8B
:1052700073D0252BF9D1B5EB0B0471D12A78002A14
:1052800063D000234FF0FF320135CDE905230493AD
:1052900007938DF853301A9306E02546049B801B34
:1052A00007FA00F0034304932C46052214F8011B6F
:1052B000304602F04DFEA3460028EED1049BD906ED
:1052C00044BF20228DF853201A0748BF2B2229788B
:1052D00048BF8DF853202A294FD1039A1168043210
:1052E000002903927BDB079169782E295BD0584C0B
:1052F0000322204602F02CFE38B14022049B001B02
:10530000824013430BF1010B04931BF8011B06228F
:1053100050488DF8281002F01BFE002865D04E4B37
:10532000002B55D003A900914A4650464B4B04A987
:1053300000F03AFC8046B8F1FF3F06D0099B434499
:1053400009939BF80030002B8DD1B9F80C305B0627
:1053500079D409981DB0BDE8F08FB5EB0B04F4D0FB
:1053600023465A4649465046FFF77AFE0130ECD0B4
:10537000099B2A782344099381E7A1F13002092A85
:1053800088BFAB46B1D8079B00E00134217803EB1E
:10539000830302EB4303A1F13002092AF5D92E2938
:1053A000A3460793A3D19BF801102A2927D1039B79
:1053B0000BF102001A680433002A0393B8BF4FF0C0
:1053C000FF339BF8021005928346B8BF05938EE722
:1053D000039B073323F0070308330393AEE74942E7
:1053E00043F00203079104937EE703A900914A4624
:1053F00050461A4B04A902F0B9FA80469BE70023F5
:10540000A1F13002092A0BF1010B05933FF66FAFB2
:105410001BF8011F03EB830302EB4303A1F13002EE
:10542000092AF5D9059362E7402100F085FEC9F805
:105430000000C9F8100018B14023C9F8143005E77E
:105440000C23CAF800304FF0FF3083E7FCB70008A8
:1054500004B8000808B80008A95B000861500008FB
:1054600070B50F4B0F4DAB42A3EB050607D00024E0
:10547000B61055F8043B01349847A642F9D806F017
:105480006FFB094D094B5E1BAB424FEAA60606D0E7
:10549000002455F8043B01349847A642F9D870BD62
:1054A00000000000000000000000000000000000FC
:1054B000036A70B506460D468468002B38D0A38970
:1054C0001B0714D5236993B1013DA36815F8011F8B
:1054D000013BA360D9B1002B04DAA2699A420FDC28
:1054E0000A290DD023685A1C22601970EDE7214665
:1054F000304602F059F80028E6D04FF0FF3070BD7A
:105500002246304602F01CFF0130DED1F5E7002BC9
:1055100008DA22460A21304602F012FF0130ECD0B0
:105520000A2070BD0A222368591C21601A70F7E70F
:1055300000F0F4F8C3E700BF024B01461868FFF71C
:10554000B7BF00BF1400002000207047024A034983
:10555000034802F007B800BF640000207559000836
:10556000180000200C4B416810B59942044601D048
:1055700000F000FAA168094B994202D0204600F0E1
:10558000F9F9E168064B994204D02046BDE8104085
:1055900000F0F0B910BD00BF68030020D003002068
:1055A00038040020002070472DE9F843002504232B
:1055B000294C2A490822C4F8381104F15C00294614
:1055C000DFF89C90DFF89C80274F284EC4E9033514
:1055D000C4E90055C4E90555A560656600F0F0F81A
:1055E000234B0822294604F1C4006367C4E9084933
:1055F000C4E90A87C4E91A55C4E91E55266325671C
:10560000C4F8CC50C4F8805000F0DAF8194B2946A1
:10561000C4F8DC30082204F1680304F59670C4F87D
:105620008830C4E92398C4E92576C4E93455C4E92F
:105630003855C4F8D850C4F83451C4F8E85000F0D4
:10564000BFF804F1D003C4E93D98C4E93F76C4F83B
:10565000F030BDE8F88300BF680300204D55000816
:105660001D8F0008458F0008858F0008A98F00084E
:105670000900010012000200F8B5254B0646D3F8D8
:105680003831002B3CD0234FD7E90134013B04D5FE
:105690001DE05A1C04F1680419D0B4F90C50013B08
:1056A000002DF6D11C4B08222946C4E90155C4E956
:1056B0000455E36065662560A56104F15C0000F0B7
:1056C0007FF8C4E90D55C4E912552046F8BD3D6880
:1056D0000DB12F46D8E74FF4D671304600F02CFDBF
:1056E000044680B104230560294625460C304FF45A
:1056F000D072A060636000F063F83C602F46C3E79F
:10570000FFF752FFBFE70C2338603360DDE700BFCF
:1057100068030020640000200100FFFF036A03B15A
:105720007047044B044AD3F838310262002BF7D19A
:105730003AE700BF6803002065550008704700BFC6
:10574000704700BF0020024A024901F00BBF00BFB2
:1057500064000020495500080020024A024901F077
:1057600001BF00BF64000020A555000822B310B59A
:1057700002448646114C04E01B1A1BD1B8B1964571
:1057800016D01EF8013B11F8010B14F803C00CF001
:10579000030CBCF1010F14F800C008BF20330CF05B
:1057A000030CBCF1010FE7D12030181AE7D010BD6F
:1057B000002010BD184610BD1046704735B90008CE
:1057C00070B5860747D0541E002A3ED00346CAB2A1
:1057D00001E0013C39D303F8012B9D07F9D1032CDB
:1057E0002CD9CDB205EB05250F2C1A4605EB054546
:1057F00034D9A4F1100C2CF00F0603F1100EB644AE
:105800004FEA1C1CC2E90055C2E90255103272452C
:10581000F8D10CF1010214F00C0F03EB021204F0AA
:105820000F0C13D0ACF1040323F00303043313442F
:1058300042F8045B9342FBD10CF003042CB1C9B2D3
:105840001C4403F8011BA342FBD170BD6446134600
:10585000002CF4D1F9E703461446C0E7A446E1E77B
:10586000F8B5B1F90C300C461E07074639D44A6822
:10587000002A53DDE56A002D31D000223E683A60EF
:1058800013F48052216A55D101233846A847451C9C
:10589000024663D0B4F90C30E56A216A580705D591
:1058A0006368D21A636B0BB1236CD21A002338469B
:1058B000A847421C40D00022236962602360A3896C
:1058C000DB0400D56065616B3E6041B104F14403C7
:1058D000994202D0384601F0A7FC00236363002000
:1058E000F8BD0E69002EFAD09B0718BF00230D6883
:1058F00008BF4B690E60AD1B8B600CE02B46324637
:10590000D4F828C03846216AE047B0F1000CA5EB76
:105910000C05664406DD002DF0DCE0E70A6C002A89
:10592000A8DCDCE7B4F90C3043F040034FF0FF3063
:10593000A381F8BD626DB1E73968B4F90C301D2957
:10594000F2D80B4ACA40D507EED500226260226920
:105950002260DA04B7D50029B4D0B4E73B68002B45
:1059600098D01D2B01D0162BDCD13E60B7E700BFCD
:10597000010040200B69B3B110B5044682B008B1F4
:10598000036A5BB1B1F90C3013B9002002B010BD4D
:10599000204602B0BDE81040FFF762BF0191FFF75B
:1059A000BDFE0199EEE70020704700BFB8B138B5E1
:1059B0000D4A0369044615682BB10DB12B6A53B12A
:1059C000B4F90C300BB9002038BD21462846BDE89B
:1059D0003840FFF745BF2846FFF7A0FEF0E7034A2F
:1059E0000349044801F0BEBD1400002064000020FB
:1059F00075590008180000202DE9F04D002B88B0E3
:105A000014461D46109E1299DDF8508041DB00229D
:105A1000B8F1650F0A7039D040DCB8F1450F35D0C8
:105A2000B8F1460F5FD103230093139B2246CDE9C3
:105A3000016307AB049306AB03932B4600F09AFC7B
:105A4000074628F02003462B07EB060805D13B78D4
:105A5000302B3CD0139B1E68B044204629460022C0
:105A6000002304F0C5FA00283BD1079B984506D9CE
:105A700030215A1C07921970079B4345F9D33846C9
:105A8000159ADB1B136008B0BDE8F08D02230136C8
:105A9000CAE703F1004B2D225D46B9E7B8F1660F66
:105AA000C1D0139B2246CDE901630223009307ABCB
:105AB000049306AB03932B4600F05CFCB8F1670F30
:105AC0000746BED1119BDB0721D4079BD7E70022F5
:105AD00000232046294604F08BFAD8B1139B1B689B
