:020000040800F2
:1000000000C0002099540008E1540008E1540008A1
:10001000E1540008E1540008E15400080000000029
:10002000000000000000000000000000E154000893
:10003000E154000800000000E1540008B51D00086C
:10004000E1540008E1540008E1540008E1540008BC
:10005000E1540008E1540008E1540008E1540008AC
:10006000E1540008E1540008E1540008051E0008AE
:10007000E1540008E1540008E1540008E15400088C
:10008000E1540008E1540008E1540008E15400087C
:10009000E1540008E1540008E1540008E15400086C
:1000A000E1540008E1540008E1540008E15400085C
:1000B000D11D0008E1540008E1540008E154000893
:1000C000E1540008E1540008E1540008E15400083C
:1000D000E1540008E1540008E15400089539000893
:1000E000E1540008E1540008E1540008E15400081C
:1000F000E1540008E1540008E1540008E15400080C
:10010000E1540008E1540008E1540008E1540008FB
:10011000E1540008E1540008E1540008E1540008EB
:10012000E1540008E1540008E1540008E1540008DB
:1001300080B500AF00F02CF8104805F0DFFC00F0AF
:1001400081FB0F4805F0DAFC08E002F02FF800F020
:1001500081FA0A2001F018FC05F0E4F8094B1B793C
:10016000002BF2D0022000F02FFD074B01221A7065
:10017000064805F0C3FC00F05DF8FCE7CCAC0008D5
:1001800010AD0008DC010020EE01002030AD0008B9
:1001900080B500AF4FF4E13001F074FF01F004FBD3
:1001A00001F046FB01F06AFB00F004FD03F030FCB7
:1001B00003F046FC01F08EFB01F0A6FB01F0BCFB56
:1001C00000F054FE00F020F80A4805F097FC0A48B9
:1001D00005F094FC094805F091FC4FF47A51084869
:1001E00008F0F6F9034805F089FC064B00221A7066
:1001F00000BF80BD54AD000878AD00089CAD00087C
:10020000ACAD0008EE01002080B400AF034B00222B
:100210001A7000BFBD4680BC704700BFED010020D2
:1002200080B400AF024B1B781846BD4680BC7047B7
:10023000ED01002080B582B000AF01F0BFFB786017
:1002400001F0B4FF00F010FD394B1B687A68D31A37
:10025000042B69D9364A7B68136000F077F800F008
:1002600035F900F0F7F901F0C7F80346314A936019
:1002700000237B8000233B802E4BB3F900002D4BE5
:10028000B3F902103B46BA1C01F0DEF8294B1B798A
:10029000012B14D1284B1B78002B10D1B7F9023059
:1002A000184600F013FEB7F90030184600F02EFE95
:1002B000012000F04BFE214B02221A7005E00020C5
:1002C00000F044FE1D4B01221A70B7F90230002BDA
:1002D000B8BF5B429BB2322B07D8B7F90030002B76
:1002E000B8BF5B429BB2322B03D9154B00221A6078
:1002F00004E0134B1B680133114A136000F01EFA2F
:10030000104B1A68531C0F490B600F4BA3FB0213D1
:100310009B09C82101FB03F3D31A002B01D100F084
:100320003BFB04F0FFFF00E000BF0837BD4680BD87
:10033000F0010020DC010020EC010020EE01002093
:10034000E8010020F40100201F85EB5180B582B048
:1003500000AF0023FB71FFF763FF0346002B3FD084
:100360004A4B9B684FF07E5118460AF041FC034609
:10037000002B19D0454B9B68184609F05DFE0246DC
:100380000B46434808F024F9FB7943F00103FB7165
:100390003E4B9B683F4918460AF02AFC0346002B57
:1003A0001ED000F0AFFA1BE0384B9B684FF0804145
:1003B00018460AF01DFC0346002B11D0364B1A6874
:1003C000531C35490B60354BA3FB02135B096421B9
:1003D00001FB03F3D31A002B02D1032000F0F4FB3E
:1003E00001F014F838602E4938680AF01FFC034603
:1003F000002B0BD0386809F01FFE02460B46294837
:1004000008F0E6F8FB7943F00203FB71264B1B78FA
:100410000A2B09D9254805F071FBFB7943F0080345
:10042000FB71234B03221A70224B1B68224A934212
:1004300004D9224805F062FB00F064FA204B1B78D7
:10044000012B06D11F4805F059FBFB7943F010033F
:10045000FB71FB79002B0FD01B4B1B78FA799A426A
:1004600006D1114B1B780133DAB20F4B1A7006E03C
:100470000D4B01221A7002E00B4B00221A70124A37
:10048000FB79137000BF0837BD4680BDDC0100203A
:10049000C4AD0008000080BFF80100201F85EB51AB
:1004A0000000A041ECAD0008FC01002010AE0008E7
:1004B000EE010020E8010020C0D4010024AE0008B5
:1004C000EC01002048AE0008FD01002090B583B08B
:1004D00000AF01F0ABFC01F035FD0346FB8001F0FD
:1004E00039FD0346BB8001F03DFD0346FB70524BD6
:1004F000B3F9003018460AF089F903464F49184607
:100500000AF0D8F903461C46B7F9063018460AF037
:100510007DF903464A4918460AF0CCF903461946C4
:1005200020460AF0BFF8034618460AF089FB034646
:100530001AB2414B1A80434BB3F9003018460AF007
:1005400065F903463D4918460AF0B4F903461C46CE
:10055000B7F9043018460AF059F9034638491846E5
:100560000AF0A8F90346194620460AF09BF803460C
:1005700018460AF065FB03461AB2324B1A802E4B1E
:10058000B3F90030002BB8BF5B429BB2132B02D8EB
:10059000294B00221A802B4BB3F90030002BB8BF37
:1005A0005B429BB2132B02D8264B00221A80224BAF
:1005B000B3F9003013F57A7F09DB1F4BB3F9003034
:1005C000B3F57A7FA8BF4FF47A731BB200E01E4BDD
:1005D0001E4A13801B4BB3F9003013F57A7F09DBF9
:1005E000184BB3F90030B3F57A7FA8BF4FF47A7394
:1005F0001BB200E0144B154A5380FB78012B02D14B
:10060000124B01221A7101F0C1FC0346002B0CBFF2
:1006100001230023DBB21A460D4B1A700C4B1B78DA
:10062000012B05D1094B00221A80084B00225A8069
:1006300000BF0C37BD4690BDFE010020CDCC4C3F25
:10064000CDCC4C3E0002002018FCFFFFDC01002056
:10065000EC01002080B582B000AF4FF400512F486C
:1006600003F0DBFA0346002B14BF01230023DBB2A7
:10067000FB71FB79012B1BD1294B1B78002B07D178
:1006800001F09CF90346274A1360254B01221A709A
:1006900001F094F90246234B1B68D31A40F6B83296
:1006A000934237D9204805F029FA00F02BF931E0C0
:1006B0001B4B1B78012B2DD101F080F90246194B01
:1006C0001B68D31A3B603B68B3F57A7F1FD2174B88
:1006D0001B79002B0CBF01230023DBB21A46134BFE
:1006E0001A71124B1B79002B01D0114B00E0114BFA
:1006F0001946114807F06CFF0C4B1B79002B03D0F7
:10070000022000F061FA02E0012000F05DFA044BE3
:1007100000221A7000BF0837BD4680BD001001409E
:1007200002020020040200205CAE0008DC01002070
:1007300070AE000874AE000878AE000880B500AF57
:100740003B4B1B78032B6BD801A252F823F000BF60
:10075000610700088D070008BB070008C5070008EF
:10076000344B1A68344BA3FB02135B09642101FB71
:1007700003F3D31A312B04D80421304803F02FFAA5
:100780004EE004212D4803F039FA49E0294B1A685C
:100790002B4BA3FB02135B094FF4FA7101FB03F32C
:1007A000D31AF92B04D80421244803F018FA37E0AF
:1007B0000421224803F022FA32E004211F4803F00A
:1007C0000EFA2DE01B4B1A681B4BA3FB02139B096F
:1007D000C82101FB03F3D31A312B17D9154B1A6823
:1007E000154BA3FB02139B09C82101FB03F3D31A8A
:1007F000632B10D90F4B1A680F4BA3FB02139B09F5
:10080000C82101FB03F3D31A952B04D804210B480C
:1008100003F0E5F903E00421084803F0EFF900BF15
:10082000044B1B680133034A136000BF80BD00BF47
:10083000EE010020080200201F85EB51000C014052
:10084000D34D621080B582B000AF012000F07EFB76
:100850000023FB7144E0FB7901339BB21A469200FE
:1008600013441A4691001A460B4613449B009BB250
:100870007B80FB7901339BB21A46920013441A46DF
:1008800091001A460B4613445B00BB80BB88B3F54E
:10089000FA7F02D94FF4FA73BB80B7F902301846D9
:1008A00000F014FBB7F90230184600F02FFB1021BE
:1008B000134803F094F9BB88184601F065F810213D
:1008C0000F4803F09BF9BB88B3F57A7F05D2BB884C
:1008D000C3F57A73184601F057F8FB790133FB71C1
:1008E000FB79092BB7D9002000F0F0FA002000F0C6
:1008F0000DFB002000F02AFB00BF0837BD4680BD7D
:100900000008014080B582B000AF1D4805F0F6F840
:10091000002000F01BFB042000F056F94FF080404F
:1009200003F07BFD174803F078FD174803F075FDD1
:10093000164804F055F900237B6010E004211448A8
:1009400003F04DF9642001F01FF80421104803F072
:1009500055F9642001F018F87B6801337B607B68EF
:10096000042BEBDD0B4805F0C9F803F07FF8642099
:1009700001F00AF84FF47A7001F006F8FAE700BFC8
:100980008CAE000800080040000C0040002401402C
:10099000000C0140ACAE00082DE9F04792B008AF62
:1009A0002E4B1B783B722E4B9B68FB6000F02EFD9C
:1009B00003463B6100F034FD03467B61294B9B7885
:1009C0003B7600F037FD0346FB61274B9B7887F8A9
:1009D0002030234BB3F900307B84214BB3F9023034
:1009E000BB84224B1B68214A12681946204807F035
:1009F000EFFD3B7A9A46FB68184609F01DFB8046DE
:100A000089463B69184609F017FB04460D467B6989
:100A100018460AF015F906463B7E7B60FB691846CE
:100A20000AF00EF9034697F82020B7F92210B7F91B
:100A3000240007900691059204937B680393029625
:100A4000CDE9004542464B4651460A4807F0C0FDF5
:100A500000BF2837BD46BDE8F08700BFEE0100208B
:100A6000DC0100201C0200202802002010000020D1
:100A7000BCAE0008DCAE000880B582B000AF034613
:100A8000FB71FB79012B04D11021064803F0A7F874
:100A900003E01021034803F0B1F800BF0837BD465A
:100AA00080BD00BF0008014080B500AF0020FFF707
:100AB000E3FF0A4B00221A60084B00221A71074B11
:100AC00000225A71054B00229A71044B00229A6051
:100AD000024B00221A7300BF80BD00BF0C02002031
:100AE00080B582B000AF78600A4A7B681360094B1A
:100AF00000221A71074B00229A71064B01221A73C9
:100B000000F05CFF0346184600F006F800BF083707
:100B1000BD4680BD0C02002080B584B000AF786077
:100B2000194B1A68184B1B7919460B465B000B448E
:100B30005B001344FB60FB681B88002B0AD1FB6839
:100B40005B88002B06D1FB681B79002B02D1FFF7D5
:100B5000ABFF16E0FB681B79002B02D0FB681B790A
:100B600000E00123084A5371074B01229A710120CA
:100B7000FFF782FFFB681B881A467B681344024A12
:100B800093601037BD4680BD0C02002080B582B056
:100B900000AF7860064B1B790133DAB2044B1A714F
:100BA0007868FFF7B9FF00BF0837BD4680BD00BFBA
:100BB0000C02002080B500AF0020FFF75DFFFFF7BB
:100BC00073FF00BF80BD000080B582B000AF034658
:100BD000FB71FB79013B092B3ED801A252F823F0AF
:100BE000090C0008110C0008190C0008210C000861
:100BF000290C0008310C0008390C0008410C0008D1
:100C0000490C0008510C0008012000F0A7F827E06B
:100C1000022000F0A3F823E0052000F09FF81FE079
:100C2000062000F09BF81BE0072000F097F817E083
:100C3000082000F093F813E0092000F08FF80FE08F
:100C40000A2000F08BF80BE00B2000F087F807E09B
:100C50000C2000F083F803E0002000F07FF800BFD4
:100C600000BF0837BD4680BD80B582B000AF3A4BAB
:100C70001B7B012B69D1384B1B68002B65D000F022
:100C80009DFE7860344B9B687A68D31A002B5EDB3C
:100C9000314B1A68304B1B7919460B465B000B44ED
:100CA0005B0013443B602C4B9B79012B2DD1002022
:100CB000FFF7E2FE3B685B88002B1BD1264B5B797C
:100CC000012B13D9244B5B79013BDAB2224B5A71C9
:100CD000214B01229A710120FFF7CEFE3B681B8851
:100CE0001A467B6813441C4A936031E07868FFF72A
:100CF0004DFF2DE0184B02229A713B685B881A4623
:100D00007B681344144A936022E0134B9B79022BB7
:100D10001ED1114B5B79012B13D90F4B5B79013B32
:100D2000DAB20D4B5A710C4B01229A710120FFF778
:100D3000A3FE3B681B881A467B681344064A9360EF
:100D400006E07868FFF722FF02E000BF00E000BF86
:100D50000837BD4680BD00BF0C02002080B582B0C0
:100D600000AF0346FB71FB790E2B5CD801A252F851
:100D700023F000BFB10D0008B70D0008BF0D00083B
:100D8000C70D0008CF0D0008D70D0008DF0D0008C3
:100D9000E70D0008EF0D0008F70D0008FF0D000833
:100DA000070E00080F0E0008170E00081F0E00089F
:100DB000FFF77AFE3AE01F48FFF792FE36E01E4842
:100DC000FFF78EFE32E01D48FFF78AFE2EE01C483A
:100DD000FFF786FE2AE01B48FFF782FE26E01A484E
:100DE000FFF77EFE22E01948FFF77AFE1EE0184862
:100DF000FFF776FE1AE01748FFF772FE16E0164876
:100E0000FFF76EFE12E01548FFF76AFE0EE0144889
:100E1000FFF766FE0AE01348FFF762FE06E012489D
:100E2000FFF75EFE02E0FFF73FFE00BF00BF08379E
:100E3000BD4680BDC4AF0008D0AF0008DCAF0008DD
:100E4000E8AF0008F4AF000800B000086CAF00087D
:100E500084AF000824AF000848AF000898AF00082E
:100E6000A4AF0008B0AF00080CB0000880B500AF18
:100E7000134B00221A80124B00229A70104B002252
:100E8000DA700F4B4FF000025A600D4B4FF000022A
:100E90009A600C4B00221A800A4B00229A70094B70
:100EA0000022DA70074B4FF000025A60054B4FF0FA
:100EB00000029A60044804F021FE00BF80BD00BF1C
:100EC0001C020020280200203CB0000880B483B03F
:100ED00000AF0346FB80B7F9063013F57A7F08DBD5
:100EE000B7F90630B3F57A7FA8BF4FF47A731BB217
:100EF00000E0044B044A138000BF0C37BD4680BCA1
:100F0000704700BF18FCFFFF1C02002080B483B0B4
:100F100000AF0346FB80B7F9063013F57A7F08DB94
:100F2000B7F90630B3F57A7FA8BF4FF47A731BB2D6
:100F300000E0044B044A138000BF0C37BD4680BC60
:100F4000704700BF18FCFFFF2802002080B582B068
:100F500000AF0346FB710D4AFB791370FB79002B40
:100F600005D10B4B00221A800A4B00221A80FB7914
:100F7000002B01D0084B00E0084B1946084807F049
:100F800027FB00BF0837BD4680BD00BF40020020E0
:100F90001C0200202802002058B000085CB00008A5
:100FA00060B0000880B483B000AF78600B467B80EF
:100FB0007B68002B27D0B7F9023013F57A7F08DB66
:100FC000B7F90230B3F57A7FA8BF4FF47A731BB23A
:100FD00000E00F4B7B807B681B784C2B03D07B6839
:100FE0001B786C2B03D10B4A7B8813800CE07B6849
:100FF0001B78522B03D07B681B78722B04D1064AD6
:101000007B88138000E000BF0C37BD4680BC704772
:1010100018FCFFFF420200204402002080B588B087
:1010200000AF764B1B78012B40F08081744BB3F9F5
:101030000030002B00F0AA80714BB3F90030184645
:1010400009F0E4FB03466F49184609F033FC0346F8
:101050001A466D4B1B681946104609F023FB0346E0
:101060001A46694B1A6009E0674B1B6867491846C6
:1010700009F016FB03461A46634B1A60624B1B6865
:101080006249184609F0C8FD0346002BECD109E07F
:101090005D4B1B685D49184609F004FB03461A4680
:1010A000594B1A60584B1B684FF00001184609F065
:1010B0009FFD0346002BEBD1534B1B68184609F0EC
:1010C000E5FD0346FB774E4BB3F90030184609F0B7
:1010D0009DFB03464E49184609F0A0FC0346BB6140
:1010E000FA7F4C4913465B0013445B000B44B3F991
:1010F0000030184609F08AFB0346B969184609F022
:10110000D9FB0346184609F09BFD0346FB82FA7F94
:10111000404913465B0013445B000B440233B3F9B0
:101120000030184609F072FB0346B969184609F009
:10113000C1FB0346184609F083FD0346BB82FA7FD4
:10114000344913465B0013445B000B440433B3F98A
:101150000030184609F05AFB0346B969184609F0F1
:10116000A9FB0346184609F06BFD03467B82B7F9DD
:101170001220B7F91410B7F91630184600F0F0F83D
:101180001F4BB3F90020244B1A8004E000220021F9
:10119000002000F0E5F8214BB3F90030002B00F0FF
:1011A000BF801E4BB3F90030184609F02FFB0346F1
:1011B0001449184609F07EFB03461A46184B1B6873
:1011C0001946104609F06EFA03461A46144B1A6087
:1011D00009E0134B1B680D49184609F061FA0346F4
:1011E0001A460F4B1A600E4B1B680849184609F047
:1011F00013FD0346002BECD11EE000BF400200208F
:10120000420200206F12033A480200200000C04052
:1012100000007A4418B000081C020020440200209C
:101220004C020020484B1B684849184609F03AFA1E
:1012300003461A46444B1A60434B1B684FF00001AB
:10124000184609F0D5FC0346002BEBD13E4B1B683A
:10125000184609F01BFD03467B743D4BB3F9003083
:10126000184609F0D3FA03463A49184609F0D6FB66
:101270000346FB607A7C384913465B0013445B00ED
:101280000B44B3F90030184609F0C0FA0346F96878
:10129000184609F00FFB0346184609F0D1FC034637
:1012A0007B817A7C2C4913465B0013445B000B4422
:1012B0000233B3F90030184609F0A8FA0346F9687A
:1012C000184609F0F7FA0346184609F0B9FC034638
:1012D0003B817A7C204913465B0013445B000B443E
:1012E0000433B3F90030184609F090FA0346F96860
:1012F000184609F0DFFA0346184609F0A1FC034638
:10130000FB80B7F90620B7F90810B7F90A3018467C
:1013100000F04CF80E4BB3F90020104B1A800FE090
:1013200000220021002000F041F809E00022002105
:10133000002000F015F800220021002000F036F80F
:1013400000BF2037BD4680BD4C0200200000C040D9
:101350004402002000007A4418B00008280200204F
:1013600080B582B000AF0346FB800B46BB801346BE
:101370007B80B7F906301A4601214FF0804000F01B
:1013800077F9B7F904301A4602214FF0804000F097
:101390006FF9B7F902301A4603214FF0804000F090
:1013A00067F900BF0837BD4680BD000080B582B038
:1013B00000AF0346FB800B46BB8013467B80B7F92A
:1013C00006301A4603210A4800F052F9B7F90430F2
:1013D0001A460121074800F04BF9B7F902301A46C6
:1013E0000321044800F044F900BF0837BD4680BD22
:1013F00000080040000C004080B400AF024B1B68A6
:101400001846BD4680BC70470000002080B400AF85
:10141000024B1B681846BD4680BC70473C0200204A
:1014200080B400AF024B5B681846BD4680BC704775
:101430001C02002080B400AF024B5B681846BD461A
:1014400080BC70472802002090B587B000AFBA601A
:101450007B600346FB810B46BB81B7F90C30184615
:1014600009F0D4F903465E49184609F0D7FA034655
:101470007B61FB897B82B7F91230184609F0C6F907
:1014800004464FF07E51786909F00CF9034619467D
:10149000204609F00FFA03465249184609F0A8FB06
:1014A0000346002B01D0504B30E0B7F912301846FC
:1014B00009F0ACF904464FF07E51786909F0F2F872
:1014C00003461946204609F0F5F9034644491846F3
:1014D00009F0ACFB0346002B02D04FF47A7315E001
:1014E000B7F91230184609F091F904464FF07E51D1
:1014F000786909F0D7F803461946204609F0DAF969
:101500000346184609F09CFB03461BB2BA681380D9
:10151000B7F91230184609F079F9044679694FF0A5
:101520007E5009F0BDF803461946204609F0C2F97D
:1015300003462C49184609F05BFB0346002B01D0FB
:10154000294B30E0B7F91230184609F05FF904462C
:1015500079694FF07E5009F0A3F8034619462046FA
:1015600009F0A8F903461E49184609F05FFB034637
:10157000002B02D04FF47A7315E0B7F912301846F9
:1015800009F044F9044679694FF07E5009F088F873
:1015900003461946204609F08DF90346184609F01E
:1015A0004FFB03461BB27A681380B7F90E30002B4D
:1015B000B8BF5B429BB2312B0DD8B7F90C30002B72
:1015C000B8BF5B429BB2312B05D8BB6800221A80A2
:1015D0007B6800221A8000BF1C37BD4690BD00BF4B
:1015E00000007A4400007AC418FCFFFF80B586B082
:1015F00000AFF8607A601A460B467B8113463B8148
:101600007B891946F86802F008FB0346002B0CBFE3
:1016100001230023DBB2FB753B891946786802F091
:10162000FCFA0346002B0CBF01230023DBB2BB7581
:10163000BB8C1946386A02F0F0FA0346002B0CBF47
:1016400001230023DBB27B7597F916305B005AB299
:1016500097F9173013435AB297F915309B005BB2D4
:1016600013435BB2DBB218461837BD4680BD00009D
:1016700080B485B000AF78600B46FB7013463B80AA
:10168000B7F9003040F6CA0202FB03F31F4A82FB9F
:101690000312D211DB17D31A9BB203F265439BB23C
:1016A000FB81B7F90E30092B08DDB7F90E30B3F521
:1016B0000C6FA8BF4FF40C631BB200E00A23FB8140
:1016C000FB78032B14D0032B19DC012B02D0022B47
:1016D00007D014E07B6838331A46B7F90E30136030
:1016E0000EE07B683C331A46B7F90E30136007E012
:1016F0007B6840331A46B7F90E30136000E000BF34
:1017000000BF1437BD4680BC704700BFD34D621088
:1017100080B483B000AF03463960FB7197F907309E
:10172000002B0BDA3B68DAB20C49FB7903F00F03AC
:10173000043B1201D2B20B441A7609E03B68DAB2DC
:10174000074997F907301201D2B20B4483F80023FE
:1017500000BF0C37BD4680BC704700BF00ED00E005
:1017600000E100E080B582B000AF78607B68013BAB
:10177000B3F1807F01D301230FE00A4A7B68013B6C
:1017800053600F214FF0FF30FFF7C2FF054B0022DF
:101790009A60044B07221A60002318460837BD469A
:1017A00080BD00BF10E000E080B500AF002002F077
:1017B000C7FC00BF002002F00FFC0346002BF9D04D
:1017C000002002F03DFB4FF4806002F051FB00204E
:1017D00002F066FB1249002002F07AFB182002F0AA
:1017E000AFFC00BF182002F0F7FB0346002BF9D036
:1017F000022003F0F7FD022002F0FEFA00BF02F023
:1018000013FB0346082BFAD1064B074A1A60054B17
:101810001B681946054806F0DBFE00BF80BD00BF0F
:10182000000004081000002000A24A0474B0000860
:1018300080B500AF0D4B1B680D4AA2FB03239B092B
:101840001846FFF78FFF0346002B04D0094804F029
:1018500055F900BFFDE700214FF0FF30FFF758FFBB
:10186000054804F04BF900BF80BD00BF1000002008
:10187000D34D621098B00008B0B0000880B500AF3A
:1018800040F2026002F050FA40F2036002F04CFABB
:1018900040F2046002F048FA4FF4C06002F044FAEB
:1018A0000121094802F0CEF9084804F027F900F0B8
:1018B0008FF800F0C1F800F0D5F800F0FDF804480A
:1018C00004F01CF900BF80BD00023000C8B0000861
:1018D000DCB0000880B500AF4FF4E06002F024FAFD
:1018E00040F2027002F020FA40F2037002F01CFA9B
:1018F00000F0FCF800F07AF9024804F0FFF800BFAD
:1019000080BD00BFF0B0000880B500AF40F20960B4
:1019100002F00AFA4FF4A06002F006FA022002F088
:10192000F7FA00F0EBF900F00BFA024804F0E6F8E1
:1019300000BF80BD08B1000880B500AF40F61D10A3
:1019400002F01EFB0346002B04D002F037FB0B48CD
:1019500004F0D4F8022140F6FF7003F0EFFC0346D8
:10196000012B04D0064804F0C9F800BFFDE703F0DE
:10197000CDFC044804F0C2F800BF80BD1CB10008D3
:1019800034B100084CB1000880B485B000AF786075
:10199000094B1B68FB6001E000BF00BF064B1A68E3
:1019A000FB68D31A7A689A42F6D800BF00BF143792
:1019B000BD4680BC704700BF5002002080B400AF1D
:1019C000024B1B681846BD4680BC70475002002081
:1019D00080B500AF4FF4E07303221821134802F0E2
:1019E0005BF8832303221821114802F055F84FF4C5
:1019F0008073032218210E4802F04EF84FF4005372
:101A0000032218210B4802F047F84FF4C063032269
:101A10001821074802F040F84FF4404303221821F0
:101A2000044802F039F800BF80BD00BF001001403B
:101A300000080140000C014080B500AFE023032204
:101A40000421064802F028F84FF4E0530322042151
:101A5000034802F021F800BF80BD00BF000C014028
:101A60000010014080B500AF4FF400530322102155
:101A70000E4802F011F84FF400510C4802F0BEF885
:101A80001023032210210A4802F006F8102108480A
:101A900002F0B4F8042303221021064801F0FCFFF1
:101AA0000421044802F09BF800BF80BD00100140F3
:101AB00000080140000C014080B500AF0423032260
:101AC0000021084801F0E8FF022303220021064814
:101AD00001F0E2FF0C2303220021034801F0DCFFA8
:101AE00000BF80BD001001400008014080B58CB0EF
:101AF00000AF4FF0804002F045FB00233B846023A1
:101B00007B840023BB8440F6CA03BB620023BB85F1
:101B1000002387F82E3007F1200319464FF080404C
:101B200002F0C8FB0123BB800423FB8000233B8120
:101B300008237B810023BB814FF40073FB813B1D95
:101B40001A4601214FF0804002F09EFC3B1D1A46D0
:101B500002214FF0804002F097FC3B1D1A46032102
:101B60004FF0804002F090FC702201214FF0804045
:101B700002F078FE702202214FF0804002F072FEE7
:101B8000702203214FF0804002F06CFE4FF400639E
:101B90003B8200237B823223BB820023FB824FF4F3
:101BA00080433B8300237B830023BB8307F1100327
:101BB00019464FF0804002F03FFC4FF0804002F0A9
:101BC0001DFC01214FF0804002F012FF01214FF077
:101BD000804002F0DDFE044B4FF080521A6000BFDF
:101BE0003037BD4680BD00BF00E100E080B500AFEA
:101BF00000F004F800F03CF800BF80BD80B588B06C
:101C000000AF1A4802F0BEFA00233B8260237B82B9
:101C10000023BB8240F6CA03BB610023BB830023C1
:101C2000BB7707F110031946104802F043FB01236C
:101C3000BB800423FB8000233B8108237B8100239E
:101C4000BB814FF40073FB813B1D1A4603210748FB
:101C500002F01AFC70220321044802F003FE03483C
:101C600002F0CCFB00BF2037BD4680BD000800401D
:101C700080B588B000AF204802F084FA00233B8290
:101C800060237B820023BB8240F6CA03BB61002332
:101C9000BB830023BB7707F110031946164802F0F7
:101CA00009FB0123BB800423FB8000233B81082325
:101CB0007B810023BB814FF40073FB813B1D1A46DF
:101CC00001210D4802F0E0FB3B1D1A4603210A48A2
:101CD00002F0DAFB70220121074802F0C3FD7022F6
:101CE0000321054802F0BEFD034802F087FB00BF58
:101CF0002037BD4680BD00BF000C004080B500AF5E
:101D00000E4802F085FE002002F0BEFE00210B48C6
:101D100002F030FF01224FF48071084802F0CCFE3F
:101D200000220121054802F0A7FF044802F040FF0D
:101D3000024802F066FF00BF80BD00BF00240140E2
:101D400080B588B000AF0021164802F0FFFF0023E5
:101D5000BB77154BFB6001237B774FF480633B61BE
:101D600003237B61114B7B6000233B774FF480732F
:101D7000BB604FF40053BB613B1D1A46002109486C
:101D800003F04BF80021074803F043F90021054810
:101D900003F06AF9064802F05EFF00BF2037BD4637
:101DA00080BD00BF00000240340200204C240140EE
:101DB0000024014080B500AF044B1B680133034A87
:101DC000136003F0AFFA00BF80BD00BF50020020D7
:101DD00080B500AF01214FF0804002F0ECFD0346DA
:101DE000002B0AD001214FF0804002F001FEFFF7E6
:101DF00015F90121024802F084FF00BF80BD00BF39
:101E00000024014080B500AF02220021064803F003
:101E100056F90346002B04D002220021024803F0A9
:101E2000BBF900BF80BD00BF0000024080B584B098
:101E300000AFFFF7C3FDB8602D4B1B68BA68D31A1B
:101E4000092B51D92A4ABB6813602A4B1B78032BF4
:101E50004BD1294B1B88FB80274B5B88BB80B7F994
:101E60000630184600F0DEF803461A46234B1A8067
:101E7000B7F90430184600F0D5F803461A461F4B50
:101E80009A801E4B00225A801C4B0022DA801B4B8A
:101E90004FF47A721A81194B00225A81174B002293
:101EA0009A81164B0022DA81154ABB681360144BE5
:101EB0001B68BA68D31AB3F57A7F11D9114B002287
:101EC0001A700023FB6007E00C4AFB68002122F82F
:101ED0001310FB680133FB60FB68072BF4DD04E0A3
:101EE000084B01221A7000E000BF1037BD4680BDCC
:101EF0006C020020690200203402002054020020FD
:101F0000640200206802002080B483B000AF034662
:101F1000FB71FB79072B01D9002309E0074B1B78E4
:101F2000002B01D1002303E0FB79054A32F913307D
:101F300018460C37BD4680BC704700BF68020020C1
:101F40005402002080B500AF0220FFF7DDFF0346FA
:101F5000184680BD80B500AF0020FFF7D5FF0346CF
:101F6000184680BD80B582B000AF0420FFF7CCFFDB
:101F70000346FB80B7F90630B3F5FA7FCCBF0123E7
:101F80000023DBB218460837BD4680BD80B400AFE1
:101F9000024B1B781846BD4680BC70476802002083
:101FA00090B482B000AF0446084611461A46234654
:101FB000FB800346BB800B467B8013463B80B7F912
:101FC0000620B7F900309A4215DAB7F90620B7F9BA
:101FD0000430D31A4FF47A7203FB02F2B7F90010FF
:101FE000B7F90430CB1A92FBF3F39BB2A3F57A73E3
:101FF0009BB21BB210E0B7F90620B7F90030D31A34
:102000004FF47A7203FB02F2B7F90210B7F900300D
:10201000CB1A92FBF3F31BB218460837BD4690BCAF
:102020007047000080B582B000AF0346FB80094BCB
:10203000B3F90210074BB3F90420064BB3F906308D
:10204000B7F90600FFF7ACFF034618460837BD4650
:1020500080BD00BF0400002080B400AFBFF34F8FED
:1020600000BF064BDB6803F4E0620449044B1343F2
:10207000CB60BFF34F8F00BF00BFFDE700ED00E076
:102080000400FA0580B483B000AF7860144B1B687D
:10209000134A43F008031360124B1B68114A43F4C0
:1020A00080231360104B00221A60104B1B6823F42E
:1020B0007F0323F47F430D4A43F4964313600C4B94
:1020C0004FF49C721A60084B42F22C021A60094BC2
:1020D00080225A6000BF0C37BD4680BC704700BFED
:1020E000181002401C1002400C480040040C014033
:1020F0000848004000E100E080B584B000AF78609F
:102100007B68002B1ED0786803F05EFAB86000236D
:10211000FB6012E07A68FB6813441B7819460B4891
:1021200003F06CF800BF0721084803F088F8034665
:10213000002BF8D0FB680133FB60FA68BB689A4259
:10214000E8D300E000BF1037BD4680BD0048004026
:1021500080B584B000AF78600B467B807B68002B35
:102160001DD07B88002B1AD00023FB8112E0FB8955
:102170007A6813441B7819460B4803F03FF800BFF8
:102180000721094803F05BF80346002BF8D0FB89D0
:102190000133FB81FA897B889A42E8D300E000BFD3
:1021A0001037BD4680BD00BF0048004080B500AF7D
:1021B0000C4B1B78002B12D00B4B1B881A460B4B79
:1021C00000219954094800F02BFC094B00221A8089
:1021D000054B00221A80034B00221A7000E000BF5A
:1021E00080BD00BF74030020720300207002002035
:1021F000700300200FB480B5A2B000AF07F19403C4
:102200007B6007F108007B68D7F89020802103F0FD
:1022100069F907F108031846FFF76EFF00BF88371A
:10222000BD46BDE8804004B07047000080B584B072
:1022300000AF0346FB71FB790D2B02D0FB790A2B13
:1022400028D12F4B1B88002B20D02D4B1B881A46E2
:102250002C4B002199542A4B1A882B4B1A802B4B5C
:1022600001221A702A4B1B682A4AA2FB03239A09EF
:10227000294B9B68D31AFB60F9682848FFF7BAFF1F
:102280002048FFF739FF2648FFF736FF1C4B002296
:102290001A8030E0FB79082B02D0FB797F2B0DD11F
:1022A000174B1B88002B26D0154B1B88013B9AB27D
:1022B000134B1A801B48FFF71FFF1CE0104B1B88B5
:1022C000FE2B18D80E4B1B885A1C91B20C4A118059
:1022D00019460C4AFB795354FB799BB219461248B4
:1022E00002F08CFF00BF07210F4802F0A8FF034651
:1022F000002BF8D0FFE700BF1037BD4680BD00BF00
:10230000700300207002002072030020740300207C
:1023100010000020D34D621010E000E0B0B10008C2
:10232000C4B10008CCB100080048004080B584B0BA
:1023300000AF7860786805F037FB0346FB81B7F99A
:102340000E3013F57A7F08DBB7F90E30B3F57A7FDC
:10235000A8BF4FF47A731BB200E0024B1846103747
:10236000BD4680BD18FCFFFF80B588B000AFF860A7
:10237000B9607A60FB68002B01D1002398E0FB680C
:10238000FB6102E0FB690133FB61FB691B78202BD9
:10239000F8D00023FB7600237B61FB691B78502B70
:1023A00003D0FB691B78702B11D1FB6901331B78BB
:1023B000402B0CD9FB6901331B787A2B07D8FB69BA
:1023C00001331B78FB76FB6902337B6110E0FB690C
:1023D0001B78402B0AD9FB691B787A2B06D8FB693E
:1023E0001B78FB76FB6901337B6101E000235FE032
:1023F000FB7E602B05D9FB7E7A2B02D8FB7E203B2F
:10240000FB76FB7E402B02D9FB7E472B01D90023B4
:102410004EE0786905F0C8FA38613B69002B02DBB1
:102420003B690F2B01DD002342E0FB7E413B042B87
:1024300034D801A252F823F04D2400085D2400088E
:102440006D2400087D2400088D240008BB681A4A0A
:102450001A6040F2026001F067FC21E0BB68174A95
:102460001A6040F2036001F05FFC19E0BB68144A97
:102470001A6040F2046001F057FC11E0BB68114A99
:102480001A6040F2056001F04FFC09E0BB680E4A9B
:102490001A6040F2066001F047FC01E0002307E00B
:1024A00001223B6902FA03F39AB27B681A80012386
:1024B00018462037BD4680BD00080140000C014091
:1024C00000100140001401400018014080B586B0A2
:1024D00000AF786007F10E0207F110031946786823
:1024E000FFF742FF0346002B03D10A48FFF704FE23
:1024F0000DE03B69FA891146184601F08EFB034650
:10250000FB75FA7DFB8979680348FFF773FE18377E
:10251000BD4680BDD0B10008F4B1000880B586B0DA
:1025200000AF7860396007F10E0207F11003194619
:102530007868FFF719FF0346002B03D11548FFF712
:10254000DBFD24E0386805F02FFA78613869FB89F3
:102550000322102101F0A0FA7B69002B06D03B6911
:10256000FA891146184601F03AFB05E03B69FA8901
:102570001146184601F042FB7B69002B14BF012372
:102580000023DBB21A4679680348FFF733FE183799
:10259000BD4680BD18B2000840B2000880B489B0C2
:1025A00000AFF860B9607A60FB68002B05DDBB689E
:1025B000002B02D07B68002B01D100232BE0184BAD
:1025C000FB61FB68FA69B2FBF3F3BB61BB69002BEB
:1025D00001D100231FE0BB69013B1B0C7B617B69C0
:1025E000B3F5803F01D3002315E07B690133BA695D
:1025F000B2FBF3F33B613B69002B03D03B69B3F5BE
:10260000803F01D3002306E0BB687A691A607B68CB
:102610003A691A60012318462437BD4680BC7047CA
:1026200000A24A0480B592B002AF78603960786841
:1026300005F0BAF9B8633B68002B04D0386805F0A0
:10264000B3F9034600E032237B63BB6B002B05DD4F
:102650007B6B002B02DB7B6B642B03DD8848FFF771
:102660004BFD0AE107F1280207F12C031946B86B6C
:10267000FFF794FF0346002B04D1B96B8148FFF7A5
:10268000B9FDFAE0BB6A01337A6B02FB03F37E4AC1
:10269000A2FB03235B09FB63BB6AFA6B9A4201D975
:1026A000BB6AFB634FF4806001F060FB4FF4806015
:1026B00001F07EFB4FF4E06001F036FB40F2026077
:1026C00001F032FB4FF4C06001F02EFB6F4B3B6317
:1026D0003B6B1B6823F440723B6B1A604FF08040E9
:1026E00001F050FDFB6A9BB23B8360237B83002398
:1026F000BB83BB6A9BB23B620023BB84002387F889
:10270000263007F1180319464FF0804001F0D2FD42
:102710000123BB810423FB8100233B8208237B82AE
:102720000023BB824FF40073FB8207F10C031A46AF
:1027300001214FF0804001F0A7FE07F10C031A467B
:1027400002214FF0804001F09FFE07F10C031A4672
:1027500003214FF0804001F097FE702201214FF0DD
:10276000804002F07FF8702202214FF0804002F09A
:1027700079F8702203214FF0804002F073F8FB6B70
:102780009BB21A4601214FF0804002F0CDF8FB6B5E
:102790009BB21A4602214FF0804002F0C5F8FB6B55
:1027A0009BB21A4603214FF0804002F0BDF84FF073
:1027B000804001F023FE364801F0E4FCBB6A9BB286
:1027C0003B6207F118031946314801F073FD07F128
:1027D0000C031A4603212E4801F056FE70220321F5
:1027E0002B4802F03FF8FB6B9BB21A4603212848A6
:1027F00002F09AF8264801F001FE264801F0C2FCDA
:10280000BB6A9BB23B6207F118031946214801F0ED
:1028100051FD07F10C031A4601211E4801F034FE58
:1028200007F10C031A4603211A4801F02DFE70220D
:102830000121184802F016F870220321154802F011
:1028400011F8FB6B9BB21A460121124802F06CF89A
:10285000FB6B9BB21A4603210E4802F065F80D4847
:1028600001F0CCFDF96ABB6AFA6B019200930B464A
:102870007A6BB96B0848FFF7BDFC4037BD4680BD99
:1028800054B2000884B200081F85EB5104000140D7
:1028900000080040000C0040B0B2000880B594B0C1
:1028A00002AFF860B9607A6007F11A0207F11C0301
:1028B0001946F868FFF758FD0346002B04D1F96864
:1028C0004948FFF797FC8BE0FB69484A934202D1E5
:1028D0007B8B082B03D04648FFF78CFC80E007F188
:1028E000100207F114031946B868FFF757FE0346B4
:1028F000002B04D1B9683F48FFF77CFC70E03B69CE
:1029000001337A6802FB03F33B4AA2FB03235B0912
:102910007B644FF4806001F029FA4FF4806001F08D
:1029200047FA4FF4E06001F0FFF940F2026001F075
:10293000FBF94FF4C06001F0F7F9304B3B643B6C9E
:102940001B6823F440723B6C1A6008230322182191
:10295000264801F0A1F84FF08043FB63284BBB638E
:10296000284B7B63284B3B63284BFB62284BBB62A5
:10297000284B7B62284B3B62FB6A00221A607A6913
:10298000BB6A1A603A697B6A1A603B6A7A6C1A60A1
:102990003B6B1B6823F0FF0343F068023B6B1A603C
:1029A0007B6B1B6823F400527B6B1A607B6B1B688C
:1029B00043F480527B6B1A60BB6B01221A60FB6B85
:1029C0001B6843F00102FB6B1A6079693B697A6C02
:1029D000019200930B467A68B9681048FFF70AFC29
:1029E0004837BD4680BD00BFF0B200080008014076
:1029F00008B3000884B200081F85EB5104000140B1
:102A000014000040200000401C0000402400004052
:102A1000280000402C0000404000004030B3000877
:102A200090B5ADF5017D02AF07F5FC73A3F5FA7320
:102A3000186007F5FC73A3F5FA731B68002B00F010
:102A4000798707F5FC73A3F5FA731B681B78002BD5
:102A500000F0708707F5FC73A3F5FA7307F17800AF
:102A6000FF22196805F06CF907F5FC73A3F5C07334
:102A7000002283F8FF200023C7F8F4312BE007F58C
:102A8000FC73A3F5C072D7F8F43113441B78402BC4
:102A90001CD907F5FC73A3F5C072D7F8F4311344C1
:102AA0001B785A2B12D807F5FC73A3F5C072D7F820
:102AB000F43113441B782033D9B207F5FC73A3F526
:102AC000C072D7F8F43113440A461A70D7F8F431BB
:102AD0000133C7F8F43107F5FC73A3F5C072D7F8DA
:102AE000F43113441B78002BC9D107F17803C7498F
:102AF000184605F033FC0346002B08D007F1780395
:102B0000C349184605F02AFC0346002B49D1C148A9
:102B1000FFF7F2FAC048FFF7EFFAC048FFF7ECFA08
:102B2000BF48FFF7E9FABF48FFF7E6FABE48FFF7EC
:102B3000E3FABE48FFF7E0FABD48FFF7DDFABD480B
:102B4000FFF7DAFABC48FFF7D7FABC48FFF7D4FA28
:102B5000BB48FFF7D1FABB48FFF7CEFABA48FFF7F8
:102B6000CBFABA48FFF7C8FAB948FFF7C5FAB9482F
:102B7000FFF7C2FAB848FFF7BFFAB848FFF7BCFA48
:102B8000B748FFF7B9FAB748FFF7B6FAB648FFF704
:102B9000B3FAB648FFF7B0FAB548FFF7ADFA00F060
:102BA000CABE07F178030622B249184605F008FBB1
:102BB0000346002B40F0978007F5FC73A3F5FA73EA
:102BC0001B680633C7F880310622AB49D7F880016D
:102BD00005F0F6FA0346002B0AD10120FEF7B6F9FC
:102BE000A64B01221A71A648FFF786FA00F0A3BE91
:102BF0000722A449D7F8800105F0E2FA0346002B2A
:102C00000AD10020FEF7A2F99C4B00221A719E48BF
:102C1000FFF772FA00F08FBE05229C49D7F88001B9
:102C200005F0CEFA0346002B15D1D7F880310533D5
:102C30001846FFF77BFB0346A7F87A31B7F97A31DC
:102C40001846FEF743F9B7F97A3119469048FFF76D
:102C5000D1FA00F070BE06228E49D7F8800105F047
:102C6000AFFA0346002B15D1D7F88031063318464A
:102C7000FFF75CFB0346A7F87C31B7F97C311846B7
:102C8000FEF744F9B7F97C3119468348FFF7B2FAE9
:102C900000F051BE05228149D7F8800105F090FA75
:102CA0000346002B1AD1D7F8803105331846FFF7B9
:102CB0003DFB0346A7F87E31B7F97E311846FEF793
:102CC00005F9B7F97E311846FEF720F9B7F97E31DC
:102CD00019467348FFF78EFA00F02DBE7148FFF7D2
:102CE0000BFA00F028BE07F1780302226E4918465D
:102CF00005F066FA0346002B40F0FA8007F5FC73F6
:102D0000A3F5C0739B78202B07D007F5FC73A3F5C0
:102D1000C0739B78002B40F0EB8007F5FC73A3F5A4
:102D2000FA731B680233C7F8F03104E0D7F8F031CA
:102D30000133C7F8F031D7F8F0311B78202BF5D0EC
:102D40005A4BC7F8EC310023C7F8E831D7F8F03117
:102D50001B78002B04D15648FFF7CEF900F0EBBDED
:102D6000D7F8F0311B782B2B0ED0D7F8F0311B7829
:102D70002D2B09D0D7F8F0311B782F2B09D9D7F894
:102D8000F0311B78392B04D8D7F8F031C7F8E83187
:102D900096E004224549D7F8F00102F0C9FF034646
:102DA000002B08D1414BC7F8EC31D7F8F031043390
:102DB000C7F8F0311BE005223E49D7F8F00102F0D8
:102DC000B7FF0346002B08D13A4BC7F8EC31D7F8D0
:102DD000F0310533C7F8F03109E03548FFF78CF9D9
:102DE00000F0A9BDD7F8F0310133C7F8F031D7F8BA
:102DF000F0311B78202BF5D0D7F8F0311B78002B61
:102E00005AD12B48FFF778F900F095BD84B300083C
:102E10008CB3000890B30008B8B30008CCB3000826
:102E2000FCB300082CB400086CB40008B0B400086F
:102E3000F4B400083CB5000878B50008B4B5000843
:102E4000C8B50008FCB500082CB6000864B6000838
:102E500098B60008CCB6000804B7000818B70008F8
:102E60004CB7000880B700088CB70008BCB7000852
:102E7000ECB7000810B8000818B80008DC01002002
:102E800020B8000834B800083CB8000850B8000862
:102E900058B8000870B8000878B8000890B8000862
:102EA00098B80008B0B80008E0B80008E4B8000816
:102EB000ECB8000810B90008D7F8F031C7F8E831CD
:102EC000D7F8E801FFF732FA0346A7F89631B7F9C9
:102ED00096311946D7F8EC01FEF764F8B7F9963148
:102EE0001A46D7F8EC11B348FFF784F900F023BD78
:102EF00007F178030522B049184605F061F9034649
:102F0000002B40F08F8007F5FC73A3F5FA731B6864
:102F10000533C7F8E43104E0D7F8E4310133C7F8EA
:102F2000E431D7F8E4311B78202BF5D00522A349F2
:102F3000D7F8E40102F0FCFE0346002B15D1D7F8C8
:102F4000E4310533C7F8E03104E0D7F8E03101336C
:102F5000C7F8E031D7F8E0311B78202BF5D0D7F84F
:102F6000E001FFF7B3FA00F0E6BC06229449D7F877
:102F7000E40102F0DDFE0346002B4ED1D7F8E43128
:102F80000633C7F8DC3104E0D7F8DC310133C7F889
:102F9000DC31D7F8DC311B78202BF5D00023C7F8C3
:102FA000D8310FE0D7F8DC21531CC7F8DC31D7F853
:102FB000D831591CC7F8D811117807F5FC72A2F561
:102FC000C872D154D7F8DC311B78002B08D0D7F861
:102FD000DC311B78202B03D0D7F8D8310E2BE1DD64
:102FE00007F5FC73A3F5C872D7F8D8311344002253
:102FF0001A7004E0D7F8DC310133C7F8DC31D7F8B8
:10300000DC311B78202BF5D007F16803D7F8DC11F1
:103010001846FFF783FA00F08EBC6A48FFF76CF899
:1030200000F089BC07F5FC73A3F5C0731B78722B05
:1030300054D107F5FC73A3F5C0735B78202B4DD1F9
:1030400007F5FC73A3F5FA731B680233C7F8D43194
:1030500004E0D7F8D4310133C7F8D431D7F8D431EC
:103060001B78202BF5D00023C7F8D0310FE0D7F81C
:10307000D421531CC7F8D431D7F8D031591CC7F824
:10308000D011117807F5FC72A2F5D072D154D7F89F
:10309000D4311B78002B08D0D7F8D4311B78202BE3
:1030A00003D0D7F8D0310E2BE1DD07F5FC73A3F583
:1030B000D072D7F8D031134400221A70D7F8D0312B
:1030C000002B04D14048FFF717F800F034BC07F19B
:1030D00058031846FFF7FAF900F02DBC07F5FC730A
:1030E000A3F5C0731B78772B72D107F5FC73A3F59A
:1030F000C0735B78202B6BD107F5FC73A3F5FA73D3
:103100001B680233C7F8CC3104E0D7F8CC31013367
:10311000C7F8CC31D7F8CC311B78202BF5D0002361
:10312000C7F8C8310FE0D7F8CC21531CC7F8CC3111
:10313000D7F8C831591CC7F8C811117807F5FC72C7
:10314000A2F5D872D154D7F8CC311B78002B08D017
:10315000D7F8CC311B78202B03D0D7F8C8310E2BF1
:10316000E1DD07F5FC73A3F5D872D7F8C831134435
:1031700000221A7004E0D7F8CC310133C7F8CC3103
:10318000D7F8CC311B78202BF5D0D7F8C831002BDD
:1031900004D0D7F8CC311B78002B03D10B48FEF7B5
:1031A000ABFFC8E307F14803D7F8CC111846FFF787
:1031B000B5F9C0E318B9000838B9000840B90008EB
:1031C00048B9000850B9000888B90008A4B9000837
:1031D00007F17803B049184605F0C0F80346002B04
:1031E00053D1AE48FEF788FFAD4B1B781946AD486A
:1031F000FFF700F8AC4B9B68184606F01DFF02462F
:103200000B46AA48FEF7F6FFFEF700F903461846FC
:1032100006F012FF02460B46A548FEF7EBFFFEF74D
:10322000FFF80346184606F007FF02460B46A14981
:1032300089780091A048FEF7DDFFFEF7FBF8034612
:10324000184606F0F9FE02460B469C498978009123
:103250009B48FEF7CFFF944BB3F900301946924BD1
:10326000B3F902301A469748FEF7C4FF8E4B1B791C
:10327000002B01D0944B00E0944B19469448FEF784
:10328000B9FF9448FEF738FF55E307F178039249F8
:10329000184605F063F80346002B18D18F48FEF757
:1032A0002BFF8F4B1B8819468E48FEF7A3FF8C4BD4
:1032B0005B8819468C48FEF79DFF894B9B88194611
:1032C0008A48FEF797FF8A48FEF716FF33E307F1B7
:1032D00078038849184605F041F80346002B29D1A8
:1032E000714B9B68184606F0A7FE02460B468248C3
:1032F000FEF780FF6C4B9B684FF07E51184607F03D
:1033000077FC0346002B03D07C48FEF7F5FE12E362
:10331000654B9B684FF08041184607F069FC0346F7
:10332000002B03D07648FEF7E7FE04E37548FEF76E
:10333000E3FE00E307F178037349184605F00EF841
:103340000346002B19D1FEF761F8C7F88401D7F8BE
:10335000840106F071FE02460B466C48FEF74AFFF8
:103360006B49D7F8840107F061FC0346002B00F09D
:10337000E2826848FEF7C0FEDDE207F178036649A5
:10338000184604F0EBFF0346002B16D1FEF748F871
:103390000346184606F050FE02460B465F48FEF70D
:1033A00029FFFEF747F80346184606F045FE024699
:1033B0000B465B48FEF71EFFBDE207F178030422CF
:1033C0005849184604F0FCFE0346002B40F0898162
:1033D00007F5FC73A3F5FA731B680433C7F8C4310F
:1033E00004E0D7F8C4310133C7F8C431D7F8C43189
:1033F0001B78202BF5D004224B49D7F8C40102F0EA
:1034000097FC0346002B40F0AF80D7F8C43104335B
:10341000C7F8C03104E0D7F8C0310133C7F8C03174
:10342000D7F8C0311B78202BF5D007F5FC73A3F536
:10343000E0731A460023136053609360D360002347
:10344000C7F8BC310FE0D7F8C021531CC7F8C03112
:10345000D7F8BC31591CC7F8BC11117807F5FC72BC
:10346000A2F5E072D154D7F8C0311B78002B08D0F8
:10347000D7F8C0311B78202B03D0D7F8BC310E2BE6
:10348000E1DD07F5FC73A3F5E072D7F8BC31134416
:1034900000221A704FE000BFB8B90008C0B9000898
:1034A000EE010020DCB90008DC0100200CBA0008A5
:1034B00020BA00081C02002034BA000828020020AC
:1034C00058BA00087CBA00089CBA0008A0BA0008E4
:1034D000A4BA0008BCBA0008D4BA0008D8BA0008D8
:1034E00034020020F0BA00080CBB000828BB00081A
:1034F00040BB000858BB000860BB00087CBB00084C
:10350000A0BB0008B8BB0008D4BB0008DCBB0008A7
:103510000000A041F4BB000818BC000820BC000853
:1035200040BC000860BC000868BC0008D7F8C03187
:103530000133C7F8C031D7F8C0311B78202BF5D044
:103540000023C7F8B831D7F8C0311B78002B03D05F
:10355000D7F8C031C7F8B83107F13803D7F8B81138
:103560001846FFF75FF8E6E107F5FC73A3F5E8738B
:103570001A460023136053609360D3600023C7F89A
:10358000B431D7F8C431C7F8B0310FE0D7F8B02163
:10359000531CC7F8B031D7F8B431591CC7F8B4116F
:1035A000117807F5FC72A2F5E872D154D7F8B03162
:1035B0001B78002B08D0D7F8B0311B78202B03D014
:1035C000D7F8B4310E2BE1DD07F5FC73A3F5E872F3
:1035D000D7F8B431134400221A7004E0D7F8B031A0
:1035E0000133C7F8B031D7F8B0311B78202BF5D0B4
:1035F0000123C7F8AC313223C7F8A831D7F8B0316E
:103600001B78002B58D007F5FC73A3F5F873184608
:1036100020231A46002102F0B5FB0023C7F8A4318D
:103620000FE0D7F8B021531CC7F8B031D7F8A43158
:10363000591CC7F8A411117807F5FC72A2F5F872AD
:10364000D154D7F8B0311B78002B08D0D7F8B0315F
:103650001B78202B03D0D7F8A4311E2BE1DD07F512
:10366000FC73A3F5F872D7F8A431134400221A7042
:1036700007F5FC73A3F5F8731B78002B0CD007F14A
:103680000803184604F090F9C7F8AC0104E0D7F835
:10369000B0310133C7F8B031D7F8B0311B78202BE7
:1036A000F5D0D7F8B0311B78002B05D0D7F8B00192
:1036B00004F07AF9C7F8A80107F5FC73A3F5E873DD
:1036C0001B78002B09D007F12803D7F8A821D7F8D9
:1036D000AC111846FFF7E2F82DE19948FEF70CFD12
:1036E00029E107F178039749184604F037FE0346AD
:1036F000002B7BD180230193934B00934023924A6C
:1037000020219148FDF772FF034687F88B314FF473
:10371000805301938D4B00934FF400638B4A4FF419
:1037200080618A48FDF762FF034687F88A3197F87F
:103730008B31DB43DBB203F0070387F8893197F85D
:103740008A31DB43DBB203F0070387F88831804816
:10375000FEF7D2FC97F889319B08DBB203F0010138
:1037600097F889315B08DBB203F0010297F88931E1
:1037700003F0010097F88B31764CE47801940093C4
:1037800003467548FEF736FD97F888319B08DBB293
:1037900003F0010197F888315B08DBB203F0010206
:1037A00097F8883103F0010097F88A316B4CE47880
:1037B0000194009303466A48FEF71CFD97F889318F
:1037C000002B03D097F88931072B02D16548FEF70B
:1037D00093FC97F88831002B04D097F88831072B99
:1037E00040F0A9806048FEF787FCA4E007F1780369
:1037F00004225E49184604F0E3FC0346002B3FD147
:1038000007F5FC73A3F5FA731B680433C7F8A031FE
:1038100004E0D7F8A0310133C7F8A031D7F8A031C0
:103820001B78202BF5D0D7F8A00104F0BDF8C7F81D
:103830008C01D7F88C31002B1EDDD7F88C310A2B88
:103840001ADC0023C7F89C310AE00120FDF7BCF91F
:103850006420FEF799F8D7F89C310133C7F89C3102
:10386000D7F89C21D7F88C319A42EEDBD7F88C112F
:103870003F48FEF7BFFC5EE03E48FEF73DFC5AE0E5
:1038800007F1780306223C49184604F099FC0346E8
:10389000002B30D107F5FC73A3F5FA731B680633D0
:1038A000C7F8983104E0D7F898310133C7F8983158
:1038B000D7F898311B78202BF5D0D7F8980104F071
:1038C00073F8C7F89001D7F89031002B0FDDD7F8C7
:1038D00090310A2B0BDCD7F89031DBB21846FDF79C
:1038E00073F9D7F890112548FEF784FC23E02448AB
:1038F000FEF702FC1FE007F178032249184604F0A6
:103900002DFD0346002B09D11F48FEF7F5FB4FF4B0
:103910007A70FEF739F8FEF79FFB0CE007F5FC73B1
:10392000A3F5FA7319681948FEF764FC1848FEF706
:10393000E3FB00E000BF07F5FE77BD4690BD00BF8A
:1039400070BC0008C0BC0008000C01400010014021
:10395000C8BC00081C020020F0BC0008280200209F
:1039600020BD000850BD000884BD0008B8BD000897
:10397000C0BD0008CCBD0008E0BD0008E8BD0008DF
:1039800000BE000818BE000820BE000840BE0008A7
:1039900058BE000880B582B000AF1149114801F04F
:1039A0006AFC0346002B0CD00E4801F038FC03469D
:1039B000FB71FB791846FEF739FC0949094801F00B
:1039C0008EFC0949074801F056FC0346002B03D042
:1039D0000549044801F083FC00BF0837BD4680BD9F
:1039E00005030500004800400603060080B584B0CA
:1039F00000AFF860B9607A607B689BB21946B8681E
:103A0000FEF7A6FB7B6818461037BD4680BD000058
:103A100080B500AF4FF4006303221021064800F088
:103A20003BF84FF40061044800F0E8F8034B002233
:103A30001A7000BF80BD00BF000801407503002060
:103A400080B500AF4FF40061054800F0C8F8054BA1
:103A500001221A70044802F051F800BF80BD00BF77
:103A6000000801407503002080BE000880B500AF4B
:103A70004FF40061054800F0C1F8054B00221A70B0
:103A8000044802F03BF800BF80BD00BF00080140C1
:103A900075030020A4BE000880B489B000AFF860B0
:103AA000B9607A603B600023BB6100237B61BB6827
:103AB00003F00F03BB61BB6803F01003002B03D0BE
:103AC000BA697B681343BB610023FB8339E0FB8B3E
:103AD00001229A403B681340002B2FD0FB681B68E3
:103AE0007B61FB8B9B000F2202FA03F3DB437A69B5
:103AF00013407B61FB8B9B00BA6902FA03F37A697E
:103B000013437B61BB68282B09D1FB8B01229A40B0
:103B1000FB68143319463B6813400B600BE0BB682D
:103B2000482B08D1FB8B01229A40FB6810331946C1
:103B30003B6813400B60FB687A691A60FB8B0133AA
:103B4000FB83FB8B072BC2D90823FB833EE0FB8B57
:103B500001229A403B681340002B34D0FB680433A9
:103B60001B687B61FB8B083B9B000F2202FA03F36F
:103B7000DB437A6913407B61FB8B083B9B00BA698E
:103B800002FA03F37A6913437B61BB68282B09D1DE
:103B9000FB8B01229A40FB68143319463B681340A3
:103BA0000B600BE0BB68482B08D1FB8B01229A40CD
:103BB000FB68103319463B6813400B60FB68043305
:103BC0001A467B691360FB8B0133FB83FB8B0F2B46
:103BD000BDD900BF00BF2437BD4680BC704780B44C
:103BE00083B000AF786039607B6810331A463B6859
:103BF000136000BF0C37BD4680BC704780B483B0F3
:103C000000AF786039607B6814331A463B681360F4
:103C100000BF0C37BD4680BC704780B483B000AF96
:103C2000786039607B6808331A683B681340002B62
:103C300001D0012300E0002318460C37BD4680BCAC
:103C40007047000080B487B000AF78600B46FB700F
:103C500000233B610023FB6000237B610023BB60EA
:103C60007B68002B03DA2E4B1B687B6102E02D4B37
:103C70001B687B617B681B0C03F00F03BB607B68D8
:103C80009BB23B617B6803F44013B3F5401F0AD13C
:103C90007B6923F070637B61224B1B68214A23F010
:103CA0007063136021E07B6803F48013002B0ED057
:103CB0000322BB6802FA03F3FB60FB68DB437A690B
:103CC00013407B617B6943F070637B610DE07B682F
:103CD0005B0D1B013A6902FA03F3DB437A69134077
:103CE0007B617B6943F070637B61FB78002B08D0BC
:103CF0007B685B0D1B013A6902FA03F37A6913438F
:103D00007B617B68002B03DA054A7B69136002E064
:103D1000044A7B69136000BF1C37BD4680BC7047F6
:103D20001C0001400400014080B483B000AF034692
:103D3000FB80FB889B099BB203F1804303F50433AE
:103D40001968FB8803F01F0301229A40FB889B0936
:103D50009BB203F1804303F50433184641EA0203A2
:103D6000036000BF0C37BD4680BC704780B483B091
:103D700000AF0346FB80FB889B099BB203F18043A5
:103D800003F504331968FB8803F01F0301229A40EE
:103D9000FB889B099BB203F1804303F5043318466B
:103DA00041EA0203036000BF0C37BD4680BC704788
:103DB00080B483B000AF0346FB80FB889B099BB2B5
:103DC00003F1804303F504331968FB8803F01F03F4
:103DD000012202FA03F3DA43FB889B099BB203F149
:103DE000804303F50433184601EA0203036000BF71
:103DF0000C37BD4680BC704780B485B000AF78609A
:103E0000084B1B68FB60FB6823F00303FB6005495C
:103E1000FA687B6813430B6000BF1437BD4680BC53
:103E2000704700BF0410024080B400AF034B1B6812
:103E300003F00C031846BD4680BC704704100240D6
:103E400080B485B000AF7860084B1B68FB60FB68EE
:103E500023F0F003FB600549FA687B6813430B60AD
:103E600000BF1437BD4680BC704700BF041002403D
:103E700080B485B000AF7860084B1B68FB60FB68BE
:103E800023F4E063FB600549FA687B6813430B6029
:103E900000BF1437BD4680BC704700BF041002400D
:103EA00080B485B000AF7860084B1B68FB60FB688E
:103EB00023F46053FB600549FA687B6813430B6089
:103EC00000BF1437BD4680BC704700BF04100240DD
:103ED00080B485B000AF786039600023FB600B4B85
:103EE0001B68FB60FB6823F0036323F45023FB6033
:103EF0007A683B681343FA681343FB60034AFB6824
:103F0000136000BF1437BD4680BC704704100240E8
:103F100080B485B000AF7860184B1B68FB60FB680D
:103F200023F0805323F44043FB607B68072B0FD0C2
:103F30007B68072B18D87B68032B03D97B68052B7C
:103F400006D011E07B689B03FA681343FB600CE02A
:103F50007B6823F004037B607B689A03FB68134350
:103F600043F08053FB6000E000BF044AFB6813602D
:103F700000BF1437BD4680BC704700BF041002402C
:103F800080B483B000AF0346FB80FB889B099BB2E3
:103F900003F1804303F504331A68FB8803F01F0321
:103FA00022FA03F303F00103002B01D0012300E008
:103FB000002318460C37BD4680BC704780B400AF64
:103FC000044B1B68034A43F08073136000BFBD4677
:103FD00080BC70472410024080B584B000AF034617
:103FE000FB800023FB600023FB720023BB72FB8875
:103FF000B3F5106F69D0B3F5106F00F38F80B3F590
:10400000006F2FD0B3F5006F00F38880182B75D0A8
:10401000182B00F38380002B3ED0102B7ED107E0BD
:104020001120FFF7ADFF0346BB72FB680133FB6055
:10403000BB7A002B04D1FB684FF6FF729342EFD19D
:104040001120FFF79DFF0346002B69D00123FB726F
:1040500066E040F60100FFF793FF0346BB72FB6882
:104060000133FB60BB7A002B04D1FB686FF07C420C
:104070009342EED140F60100FFF782FF0346002B8A
:1040800050D00123FB724DE00120FFF779FF03467A
:10409000BB72FB680133FB60BB7A002B03D1FB686A
:1040A000B3F5A06FF0D10120FFF76AFF0346002BA4
:1040B0003AD00123FB7237E040F60110FFF760FFB2
:1040C0000346BB72FB680133FB60BB7A002B03D154
:1040D000FB681A4A9342EFD140F60110FFF750FFF8
:1040E0000346002B22D00123FB721FE01920FFF7AB
:1040F00047FF0346BB72FB680133FB60BB7A002BB2
:1041000003D1FB680D4A9342F0D11920FFF738FF25
:104110000346002B0CD00123FB7209E000BF08E02E
:1041200000BF06E000BF04E000BF02E000BF00E007
:1041300000BFFB7A18461037BD4680BDFFFF0F0059
:1041400080B483B000AF0346FB80FB889B099BB221
:1041500003F1804303F504331968FB8803F01F0360
:1041600001229A40FB889B099BB203F1804303F52F
:104170000433184641EA0203036000BF0C37BD4612
:1041800080BC704780B582B000AF78607B68424ADF
:10419000934273D07B68404A934278D87B683F4A09
:1041A00093422CD07B683D4A934270D87B683C4A4E
:1041B00093425AD07B683A4A934268D87B68394A1E
:1041C000934249D07B68374A934260D87B68364A2D
:1041D000934238D07B68344A934258D87B68334A3C
:1041E000934227D07B68314A934250D87B68B3F121
:1041F000804F0DD07B682E4A934212D047E040F2A8
:104200000B30FFF7B3FD40F20B30FFF7D1FD3FE07D
:104210004FF48060FFF7AAFD4FF48060FFF7C8FD00
:1042200036E040F20140FFF7A1FD40F20140FFF708
:10423000BFFD2DE040F20240FFF798FD40F2024042
:10424000FFF7B6FD24E040F20340FFF78FFD40F298
:104250000340FFF7ADFD1BE040F20440FFF786FD91
:1042600040F20440FFF7A4FD12E040F20540FFF7E2
:104270007DFD40F20540FFF79BFD09E040F20D3067
:10428000FFF774FD40F20D30FFF792FD00E000BF34
:1042900000BF0837BD4680BD00340140002C0140FE
:1042A0000014004000100040000C004000080040D6
:1042B0000004004080B483B000AF786039603B6890
:1042C0001A887B6828331A607B683F4A93422BD058
:1042D0007B68B3F1804F27D07B683C4A934223D060
:1042E0007B683B4A93421FD07B683A4A93421BD07B
:1042F0007B68394A934217D07B68384A934213D07F
:104300007B68374A93420FD07B68364A93420BD082
:104310007B68354A934207D07B68344A934203D086
:104320007B68334A934217D17B681A687B6822F016
:1043300070021A607B6819683B685B8803F0600252
:104340007B680A431A607B6819683B689B8803F0A6
:1043500010027B680A431A607B682C331A463B685C
:104360009B6813607B68234A934212D07B68224A81
:1043700093420ED07B681A687B6822F440721A6000
:104380007B6819683B689B8903F440727B680A4329
:104390001A607B680C4A934203D07B680E4A9342B2
:1043A00004D13B689A7B7B6830331A607B68143396
:1043B0001B687A68143243F00103136000BF0C37A6
:1043C000BD4680BC704700BF002C01400004004087
:1043D00000080040000C004000340140004C014047
:1043E000005001400054014000180040001C0040F3
:1043F00000200040001000400014004080B483B052
:1044000000AF78607B681A687B6842F001021A602E
:1044100000BF0C37BD4680BC704780B483B000AF8E
:1044200078607B681A687B6822F001021A6000BF1E
:104430000C37BD4680BC704780B483B000AF786055
:1044400039603B681A883B685B8813439AB23B68C3
:104450009B8813439AB23B68DB8813439AB23B684C
:104460001B8913439AB23B685B8913439AB23B683A
:104470009B8913439AB27B6844331A6000BF0C37A0
:10448000BD4680BC7047000080B485B000AFF860C6
:104490000B467A607B817B89032B00F2D08101A2DD
:1044A00052F823F0B5440008B1450008B5460008AD
:1044B000B1470008FB6820331B68FA68203223F0FC
:1044C00001031360FB6818331B68FA68183223F085
:1044D00003031360FB6820331B687A681288114657
:1044E000FA6820320B431360FB6820331B68FA68BC
:1044F000203223F002031360FB6820331B687A68C4
:1045000092881146FA6820320B431360FB68674AB1
:10451000934204D0FB68664A934240F09281FB6864
:1045200020331B68FA68203223F004031360FB6811
:1045300020331B687A6852881146FA6820320B4390
:104540001360FB6820331B68FA68203223F00803ED
:104550001360FB6820331B687A68D2881146FA68BA
:1045600020320B431360FB6804331B68FA68043283
:1045700023F480731360FB6804331B687A68128924
:104580001146FA6804320B431360FB6804331B685E
:10459000FA68043223F400731360FB6804331B6869
:1045A0007A6852891146FA6804320B43136048E175
:1045B000FB6820331B68FA68203223F01003136075
:1045C000FB6818331B68FA68183223F440731360D1
:1045D000FB6820331A687B681B881B01F96820314F
:1045E00013430B60FB6820331B68FA68203223F00A
:1045F00020031360FB6820331A687B689B881B01CB
:10460000F968203113430B60FB68284A934204D0B9
:10461000FB68274A934240F01681FB6820331B68F1
:10462000FA68203223F040031360FB6820331A68D5
:104630007B685B881B01F968203113430B60FB68C2
:1046400020331B68FA68203223F080031360FB6874
:1046500020331A687B68DB881B01F968203113431B
:104660000B60FB6804331B68FA68043223F4806330
:104670001360FB6804331A687B681B899B00F96828
:10468000043113430B60FB6804331B68FA6804327F
:1046900023F400631360FB6804331A687B685B894A
:1046A0009B00F968043113430B60CCE0002C0140FF
:1046B00000340140FB6820331B68FA68203223F481
:1046C00080731360FB681C331B68FA681C3223F08C
:1046D00003031360FB6820331A687B681B881B0286
:1046E000F968203113430B60FB6820331B68FA68BC
:1046F000203223F400731360FB6820331A687B6850
:104700009B881B02F968203113430B60FB68534AF6
:10471000934204D0FB68524A934240F09680FB6873
:1047200020331B68FA68203223F480631360FB682F
:1047300020331A687B685B881B02F96820311343B9
:104740000B60FB6820331B68FA68203223F4006397
:104750001360FB6820331A687B68DB881B02F968EA
:10476000203113430B60FB6804331B68FA68043282
:1047700023F480531360FB6804331A687B681B8939
:104780001B01F968043113430B60FB6804331B6899
:10479000FA68043223F400531360FB6804331A6888
:1047A0007B685B891B01F968043113430B604CE0A3
:1047B000FB6820331B68FA68203223F480531360AF
:1047C000FB681C331B68FA681C3223F440731360C7
:1047D000FB6820331A687B681B881B03F96820314B
:1047E00013430B60FB6820331B68FA68203223F404
:1047F00000531360FB6820331A687B689B881B0397
:10480000F968203113430B60FB68144A934203D0CC
:10481000FB68134A93421AD1FB6804331B68FA6899
:10482000043223F480431360FB6804331A687B6806
:104830001B899B01F968043113430B6007E000BF3B
:1048400006E000BF04E000BF02E000BF00E000BFE0
:1048500000BF1437BD4680BC704700BF002C01402C
:104860000034014080B483B000AF78600B467B8099
:1048700013463B807B88032B50D801A252F823F0CB
:1048800091480008B3480008D7480008F9480008D4
:104890007B6818331B687A68183223F07003136042
:1048A0007B6818331A683B887968183113430B60AA
:1048B00035E07B6818331B687A68183223F4E043CC
:1048C00013607B6818331A683B881B0279681831BB
:1048D00013430B6023E07B681C331B687A681C322F
:1048E00023F0700313607B681C331A683B88796877
:1048F0001C3113430B6012E07B681C331B687A6821
:104900001C3223F4E04313607B681C331A683B8835
:104910001B0279681C3113430B6000E000BF00BF2D
:104920000C37BD4680BC704780B483B000AF786060
:104930000B467B8013463B807B88032B22D801A249
:1049400052F823F055490008614900086D490008F4
:10495000794900087B6834331A463B88136012E0BB
:104960007B6838331A463B8813600CE07B683C3325
:104970001A463B88136006E07B6840331A463B8842
:10498000136000E000BF00BF0C37BD4680BC70471D
:1049900080B483B000AF786039607B680C331A68EC
:1049A0007B680C3319463B6813430B6000BF0C3720
:1049B000BD4680BC704780B485B000AF7860396078
:1049C0007B680C331B683A681340FB607B681033CC
:1049D0001A683B681340002B04D0FB68002B01D001
:1049E000012300E0002318461437BD4680BC704701
:1049F00080B483B000AF786039607B6810331A46AA
:104A00003B68DB43136000BF0C37BD4680BC70477A
:104A100080B582B000AF78607B68184A93421ED0A0
:104A20007B68164A934223D87B68154A934204D088
:104A30007B68144A934209D01AE040F20930FFF72C
:104A400095F940F20930FFF7B3F912E040F20A306D
:104A5000FFF78CF940F20A30FFF7AAF909E040F2BB
:104A60000F30FFF783F940F20F30FFF7A1F900E0B4
:104A700000BF00BF0837BD4680BD00BF003C0140FD
:104A8000002401400028014080B483B000AF78606A
:104A9000084B1B68074A23F470231360054B1A6800
:104AA00004497B6813430B6000BF0C37BD4680BCD4
:104AB000704700BF0424014080B485B000AFF860A7
:104AC000B9601346FB71FB79002B27D0BB6803F458
:104AD0008073002B07D0FB6804331B68FA6804322C
:104AE00043F480731360BB6803F48063002B07D02A
:104AF000FB6804331B68FA68043243F48063136074
:104B0000BB6803F00203002B2FD0FB6808331B683F
:104B1000FA68083243F00203136026E0BB6803F42E
:104B20008073002B07D0FB6804331B68FA680432DB
:104B300023F480731360BB6803F48063002B07D0F9
:104B4000FB6804331B68FA68043223F48063136043
:104B5000BB6803F00203002B07D0FB6808331B6817
:104B6000FA68083223F00203136000BF1437BD4611
:104B700080BC704780B483B000AF786039603B6818
:104B8000002B08D07B6808331B687A68083243F42E
:104B90000063136007E07B6808331B687A6808329B
:104BA00023F40063136000BF0C37BD4680BC704720
:104BB00080B483B000AF78607B6808331B6803F073
:104BC0000103002B07D17B6808331B687A68083221
:104BD00043F00103136000BF0C37BD4680BC704733
:104BE00080B483B000AF78607B6808331B687A6854
:104BF000083223F00103136000BF0C37BD4680BCB0
:104C0000704780B483B000AF78607B6808331B685E
:104C10007A68083243F00803136000BF7B680833EA
:104C20001B6803F00803002BF8D17B6808331B686E
:104C30007A68083243F00403136000BF7B680833CE
:104C40001B6803F00403002BF8D100BF00BF0C3732
:104C5000BD4680BC704780B483B000AF78607B688D
:104C600008331B687A68083243F48073136000BF0E
:104C70000C37BD4680BC704780B483B000AF78600D
:104C80000B46FB701346BB70BB78002B1AD0FB7829
:104C900003F00103002B07D07B6808331B687A6898
:104CA000083243F480131360FB7803F00203002BF7
:104CB00022D07B6808331B687A68083243F40043CB
:104CC000136019E0FB7803F00103002B07D07B6829
:104CD00008331B687A68083223F480131360FB786A
:104CE00003F00203002B07D07B6808331B687A6847
:104CF000083223F40043136000BF0C37BD4680BC6C
:104D0000704780B483B000AF78600B46FB70FB78CF
:104D100003F00103002B07D07B6808331B687A6817
:104D2000083243F480031360FB7803F00203002B86
:104D300007D07B6808331B687A68083243F4001395
:104D4000136000BF0C37BD4680BC704780B582B091
:104D500000AF78600B46FB70FB781946786800F06E
:104D600033FA0346002B01D100BFFDE7FA78134662
:104D70009B0013449B001A467B6813440833196850
:104D8000FA7813469B0013449B001A467B68134431
:104D900008331A4621F001031360FA7813469B008A
:104DA00013449B001A467B68134408331A460023B9
:104DB0001360FA7813469B0013449B001A467B68E5
:104DC00013440C331A4600231360FA7813469B00F1
:104DD00013449B001A467B68134410331A46002381
:104DE0001360FA7813469B0013449B001A467B68B5
:104DF000134414331A46002313607B6804331A6883
:104E0000FB789B000F2101FA03F379680431134307
:104E10000B6000BF0837BD4680BD80B586B000AFCF
:104E2000F8600B467A60FB72FB7A1946F86800F06E
:104E3000CBF90346002B01D100BFFDE7FA7A1346F8
:104E40009B0013449B001A46FB68134410331A4618
:104E50007B681B681360FA7A13469B0013449B001F
:104E60001A46FB68134414331A467B689B68136028
:104E70007B681969FA7A13469B0013449B001A4613
:104E8000FB6813440C331A468BB21360FA7A13464C
:104E90009B0013449B001A46FB68134408331B68AD
:104EA0007B617B6923F47C537B617B685A687B68F8
:104EB000DB681A437B685B6913437A6913437B6140
:104EC000FA7A13469B0013449B001A46FB6813446E
:104ED00008331A467B6913607B681B7E012B17D150
:104EE000FA7A13469B0013449B001A46FB6813444E
:104EF00008331968FA7A13469B0013449B001A463C
:104F0000FB68134408331A4641F04003136016E06F
:104F1000FA7A13469B0013449B001A46FB6813441D
:104F200008331968FA7A13469B0013449B001A460B
:104F3000FB68134408331A4621F0400313607B6872
:104F40005B7E012B17D1FA7A13469B0013449B001A
:104F50001A46FB68134408331968FA7A13469B0013
:104F600013449B001A46FB68134408331A4641F069
:104F70008003136016E0FA7A13469B0013449B00EB
:104F80001A46FB68134408331968FA7A13469B00E3
:104F900013449B001A46FB68134408331A4621F059
:104FA000800313607B689B7E002B17D1FA7A13462F
:104FB0009B0013449B001A46FB681344083319688E
:104FC000FA7A13469B0013449B001A46FB6813446D
:104FD00008331A4621F01003136016E0FA7A1346DC
:104FE0009B0013449B001A46FB681344083319685E
:104FF000FA7A13469B0013449B001A46FB6813443D
:1050000008331A4641F01003136000BF1837BD463D
:1050100080BD80B582B000AF78600B46FB70FB7836
:105020001946786800F0D0F80346002B01D100BF84
:10503000FDE7FA7813469B0013449B001A467B68F1
:10504000134408331968FA7813469B0013449B00F5
:105050001A467B68134408331A4641F02003136054
:1050600000BF0837BD4680BD80B582B000AF786014
:105070000B46FB70FB781946786800F0A5F80346EC
:10508000002B01D100BFFDE7FA7813469B001344C3
:105090009B001A467B68134408331968FA78134654
:1050A0009B0013449B001A467B68134408331A463E
:1050B00041F00103136000BF0837BD4680BD80B4D6
:1050C00087B000AFF8600B467A60FB7200237B610B
:1050D00000233B617B68082B37D07B68082B4CD8BA
:1050E0007B68022B03D07B68042B17D045E0FB685C
:1050F0001A68FB7A9B00796801FA03F313403B615D
:10510000FA7A13469B0013449B001A46FB6813442B
:1051100008331B6803F002037B612FE0FB681A6809
:10512000FB7A9B00796801FA03F313403B61FA7A3A
:1051300013469B0013449B001A46FB681344083334
:105140001B6803F004037B6118E0FB681A68FB7AB4
:105150009B00796801FA03F313403B61FA7A134626
:105160009B0013449B001A46FB68134408331B68DA
:1051700003F008037B6101E0FFE7FDE73B69002BDB
:1051800004D07B69002B01D0012300E000231846E6
:105190001C37BD4680BC704780B485B000AFF86056
:1051A0000B467A60FB72FB6804331A68FB7A9B003B
:1051B000796801FA03F3F968043113430B6000BF07
:1051C0001437BD4680BC704780B485B000AF7860AE
:1051D0000B46FB700123FB737B68074A934204D1A3
:1051E000FB78042B01D90023FB73FB7B1846143793
:1051F000BD4680BC704700BF0004024080B483B04D
:1052000000AF78600B467B807B887A680432C3F3FA
:105210000803136000BF0C37BD4680BC704780B4E4
:1052200083B000AF78607B6804331B689BB2C3F324
:1052300008039BB218460C37BD4680BC704780B44B
:1052400083B000AF78600B46FB70FB789A097B68EF
:1052500013441A68FB7803F01F0322FA03F303F0E8
:105260000103002B01D0012300E0002318460C3776
:10527000BD4680BC704780B485B000AF78603960AF
:105280000023FB600023BB603B689B09C3F309025A
:105290007B6813441A683B6803F01F03012101FA7D
:1052A00003F31340FB603B689A0D7B6813441A6854
:1052B0003B681B0C03F01F03012101FA03F31340A9
:1052C000BB60BB68002B04D0FB68002B01D001231E
:1052D00000E0002318461437BD4680BC704780B4F8
:1052E00083B000AF786039603B681B0C03F01F038C
:1052F000012202FA03F33A68910D7A680A44DB430B
:10530000136000BF0C37BD4680BC704780B400AF4F
:10531000034B4CF6CC421A6000BFBD4680BC7047C0
:105320000030004080B400AF034B4AF6AA221A6056
:1053300000BFBD4680BC70470030004080B485B0DF
:1053400000AF03460A46FB8013467B71204BFB608F
:105350000023BB601F4B45F255521A601E4B1B6861
:1053600003F00103BB60FB68013BFB60FB68002BA3
:1053700002D0BB68002BF1D1BB68002B01D0002309
:1053800021E0164A7B791360114BFB60124B1B68BE
:1053900003F00203BB60FB68013BFB60FB68002B72
:1053A00002D0BB68002BF1D1BB68002B01D00023D9
:1053B00009E0FB880A4AC3F30B031360054B4AF666
:1053C000AA221A60012318461437BD4680BC7047D4
:1053D000FFFF0F00003000400C3000400430004060
:1053E0000830004080B485B000AF7860084B1B687F
:1053F000FB60FB6823F00703FB600549FA687B68E4
:1054000013430B6000BF1437BD4680BC704700BF1C
:105410000020024080B500AF0020FEF791FE00BFE3
:105420000020FEF7D9FD0346002BF9D00020FEF73F
:1054300007FD4FF48060FEF71BFD0020FEF730FDF6
:105440000F490020FEF744FD1820FEF779FE00BF4B
:105450001820FEF7C1FD0346002BF9D00220FFF70C
:10546000C1FF0220FEF7C8FC00BFFEF7DDFC0346CB
:10547000082BFAD1034B044A1A6000BF80BD00BF5D
:10548000000004081000002000A24A0480B500AF0C
:10549000FFF7C0FF00BF80BD002103E00B4B5B584E
:1054A000435004310A480B4B42189A42F6D30A4A39
:1054B00002E0002313600432084B9A42F9D3FFF74D
:1054C000E5FF00F0AFFAFAF733FE704748C2000874
:1054D00000000020DC010020DC010020C4040020CA
:1054E000FEE7000030B51B4C002924689BB02BDB85
:1054F0004FF00005009004904FF402701995ADF83C
:105500000C004FF6FF7511D001390291059120462C
:105510006946ADF80E5000F06DF9421C01DA8B239C
:1055200023600022009B1A701BB030BD02910591D0
:1055300020466946ADF80E5000F05CF9431C01DAD4
:105540008B2323601BB030BD8B234FF0FF302360D3
:10555000F8E700BF1400002030B51446002C0546C3
:105560009BB02CDB1A4600914FF4027304914FF06C
:1055700000014FF6FF7C1991ADF80C3011D0013CC1
:1055800069461E9B02940594ADF80EC000F032F9F6
:10559000421C01DA8B232B600022009B1A701BB087
:1055A00030BD1E9B694602940594ADF80EC000F014
:1055B00021F9431C01DA8B232B601BB030BD8B23F8
:1055C0004FF0FF302B60F8E720F0030110F00300EC
:1055D000C0F1000051F8043B00F1040C4FEACC0C80
:1055E0006FF000021CBF22FA0CF213434FF0010CC3
:1055F0004CEA0C2C4CEA0C4CA3EB0C0222EA030202
:1056000012EACC1204BF51F8043B0430F4D0C2F1CA
:10561000000102EA0102B2FA82F2C2F11F0200EBBB
:10562000D20070472DE9F0471D468F680C46AF4207
:1056300016460B6836D8B1F90CC01CF4906F0ED129
:105640003D46184631462A4602F030F90020A3684C
:10565000DF1B2368A7602B442360BDE8F0874A69FD
:10566000096902EB42025F1A02EBD2726B1C521004
:105670003B44934292BF914699461A461CF4806F70
:10568000804611D0114601F039F8824600B33A46FF
:10569000216902F0CFFAA38923F4906343F08003D9
:1056A000A38105E02F46CCE702F080FB824658B18B
:1056B0000AEB0703A9EB0707A760C4F810A02F4661
:1056C000C4F814902360BCE74046216902F090F8CA
:1056D0000C22A3894FF0FF3043F04003C8F80020AC
:1056E000A381BAE72DE9F04F936883B0924617681B
:1056F0000190002B76D04FF0000B0C465D468B6876
:105700000A6848E0B4F90CC01CF4906F2FD0D4E9BB
:105710000403A2EB000803EB430202EBD27208F190
:10572000010152102944914292BF914689460A468E
:105730001CF4806F39D01146019800F0DFFF064657
:1057400000283DD04246216902F074FAA28922F471
:10575000906242F08002A28106EB0800A9EB0802E9
:105760002661A8462E46A2602060C4F814903246F6
:10577000594602F09BF8DAF80810A3682268A3EBF8
:1057800008033244491BA3602260CAF8081049B3D9
:10579000D7E900B5083798461046002DF8D09D424D
:1057A0001E46AFD2A8462E46E1E70146019802F018
:1057B000FDFA06460028CFD10198216902F018F8B9
:1057C0000C21A389019D43F0400329600022A3819D
:1057D0004FF0FF300023CAF80820CAF8043003B0A5
:1057E000BDE8F08F00200023CAF8043003B0BDE804
:1057F000F08F00BF2DE9F04F1C468B8989461D06AE
:10580000824693469DB003D50B69002B00F0EE80D5
:10581000002343F2200209939BF8003001277C4EBD
:105820000394ADF82920002B71D05D4603E015F8F4
:10583000013F002B73D0252BF9D1B5EB0B0471D1AF
:105840002A78002A63D000234FF0FF320135CDE9DA
:105850000523049307938DF853301A9306E02546E9
:10586000049B801B07FA00F0034304932C46052297
:1058700014F8011B304602F04FFEA3460028EED17B
:10588000049BD90644BF20228DF853201A0748BF35
:105890002B22297848BF8DF853202A294FD1039A0B
:1058A00011680432002903927BDB079169782E2965
:1058B0005BD0584C0322204602F02EFE38B1402225
:1058C000049B001B824013430BF1010B04931BF854
:1058D000011B062250488DF8281002F01DFE0028FA
:1058E00065D04E4B002B55D003A900914A46504637
:1058F0004B4B04A900F03AFC8046B8F1FF3F06D0BC
:10590000099B434409939BF80030002B8DD1B9F8D3
:105910000C305B0679D409981DB0BDE8F08FB5EB6B
:105920000B04F4D023465A4649465046FFF77AFE08
:105930000130ECD0099B2A782344099381E7A1F137
:105940003002092A88BFAB46B1D8079B00E001347A
:10595000217803EB830302EB4303A1F13002092A10
:10596000F5D92E29A3460793A3D19BF801102A2924
:1059700027D1039B0BF102001A680433002A03931A
:10598000B8BF4FF0FF339BF8021005928346B8BFB3
:1059900005938EE7039B073323F007030833039334
:1059A000AEE7494243F00203079104937EE703A95F
:1059B00000914A4650461A4B04A902F0BBFA8046B1
:1059C0009BE70023A1F13002092A0BF1010B05939B
:1059D0003FF66FAF1BF8011F03EB830302EB43039A
:1059E000A1F13002092AF5D9059362E7402100F0C0
:1059F00085FEC9F80000C9F8100018B14023C9F8A5
:105A0000143005E70C23CAF800304FF0FF3083E76D
:105A1000C4BE0008CCBE0008D0BE00086D610008FE
:105A20002556000870B50F4B0F4DAB42A3EB050692
:105A300007D00024B61055F8043B01349847A6421D
:105A4000F9D806F0F1FB094D094B5E1BAB424FEA5A
:105A5000A60606D0002455F8043B01349847A64218
:105A6000F9D870BD00000000000000000000000038
:105A700000000000036A70B506460D468468002BDE
:105A800038D0A3891B0714D5236993B1013DA368BE
:105A900015F8011F013BA360D9B1002B04DAA269FC
:105AA0009A420FDC0A290DD023685A1C2260197013
:105AB000EDE72146304602F05BF80028E6D04FF0D3
:105AC000FF3070BD2246304602F01EFF0130DED1AD
:105AD000F5E7002B08DA22460A21304602F014FFCF
